{
  "contractName": "Oracle",
  "abi": [
    {
      "anonymous": false,
      "inputs": [
        {
          "indexed": true,
          "internalType": "address",
          "name": "previousOwner",
          "type": "address"
        },
        {
          "indexed": true,
          "internalType": "address",
          "name": "newOwner",
          "type": "address"
        }
      ],
      "name": "OwnershipTransferred",
      "type": "event"
    },
    {
      "inputs": [],
      "name": "owner",
      "outputs": [
        {
          "internalType": "address",
          "name": "",
          "type": "address"
        }
      ],
      "stateMutability": "view",
      "type": "function",
      "constant": true
    },
    {
      "inputs": [],
      "name": "renounceOwnership",
      "outputs": [],
      "stateMutability": "nonpayable",
      "type": "function"
    },
    {
      "inputs": [
        {
          "internalType": "address",
          "name": "newOwner",
          "type": "address"
        }
      ],
      "name": "transferOwnership",
      "outputs": [],
      "stateMutability": "nonpayable",
      "type": "function"
    },
    {
      "inputs": [
        {
          "internalType": "uint256",
          "name": "projectId",
          "type": "uint256"
        },
        {
          "internalType": "uint256",
          "name": "mrId",
          "type": "uint256"
        },
        {
          "internalType": "uint256",
          "name": "userId",
          "type": "uint256"
        }
      ],
      "name": "addParticipant",
      "outputs": [],
      "stateMutability": "nonpayable",
      "type": "function"
    },
    {
      "inputs": [
        {
          "internalType": "uint256",
          "name": "projectId",
          "type": "uint256"
        },
        {
          "internalType": "uint256",
          "name": "mrId",
          "type": "uint256"
        },
        {
          "internalType": "uint256",
          "name": "userId",
          "type": "uint256"
        }
      ],
      "name": "removeParticipant",
      "outputs": [],
      "stateMutability": "nonpayable",
      "type": "function"
    },
    {
      "inputs": [
        {
          "internalType": "uint256",
          "name": "projectId",
          "type": "uint256"
        },
        {
          "internalType": "uint256",
          "name": "mrId",
          "type": "uint256"
        }
      ],
      "name": "updateStateToClosed",
      "outputs": [],
      "stateMutability": "nonpayable",
      "type": "function"
    },
    {
      "inputs": [
        {
          "internalType": "uint256",
          "name": "projectId",
          "type": "uint256"
        },
        {
          "internalType": "uint256",
          "name": "mrId",
          "type": "uint256"
        }
      ],
      "name": "updateStateToMerged",
      "outputs": [],
      "stateMutability": "nonpayable",
      "type": "function"
    },
    {
      "inputs": [
        {
          "internalType": "uint256",
          "name": "projectId",
          "type": "uint256"
        },
        {
          "internalType": "uint256",
          "name": "mrId",
          "type": "uint256"
        }
      ],
      "name": "isMergeRequestOpened",
      "outputs": [
        {
          "internalType": "bool",
          "name": "",
          "type": "bool"
        }
      ],
      "stateMutability": "view",
      "type": "function",
      "constant": true
    },
    {
      "inputs": [
        {
          "internalType": "uint256",
          "name": "projectId",
          "type": "uint256"
        },
        {
          "internalType": "uint256",
          "name": "mrId",
          "type": "uint256"
        }
      ],
      "name": "isMergeRequestMerged",
      "outputs": [
        {
          "internalType": "bool",
          "name": "",
          "type": "bool"
        }
      ],
      "stateMutability": "view",
      "type": "function",
      "constant": true
    },
    {
      "inputs": [
        {
          "internalType": "uint256",
          "name": "projectId",
          "type": "uint256"
        },
        {
          "internalType": "uint256",
          "name": "mrId",
          "type": "uint256"
        }
      ],
      "name": "isMergeRequestClosed",
      "outputs": [
        {
          "internalType": "bool",
          "name": "",
          "type": "bool"
        }
      ],
      "stateMutability": "view",
      "type": "function",
      "constant": true
    },
    {
      "inputs": [
        {
          "internalType": "uint256",
          "name": "projectId",
          "type": "uint256"
        },
        {
          "internalType": "uint256",
          "name": "mrId",
          "type": "uint256"
        }
      ],
      "name": "getMergeRequestState",
      "outputs": [
        {
          "internalType": "uint8",
          "name": "",
          "type": "uint8"
        }
      ],
      "stateMutability": "view",
      "type": "function",
      "constant": true
    },
    {
      "inputs": [
        {
          "internalType": "uint256",
          "name": "projectId",
          "type": "uint256"
        },
        {
          "internalType": "uint256",
          "name": "mrId",
          "type": "uint256"
        },
        {
          "internalType": "uint256",
          "name": "userId",
          "type": "uint256"
        }
      ],
      "name": "isParticipant",
      "outputs": [
        {
          "internalType": "bool",
          "name": "",
          "type": "bool"
        }
      ],
      "stateMutability": "view",
      "type": "function",
      "constant": true
    }
  ],
  "bytecode": "0x608060405260006100146100b760201b60201c565b9050806000806101000a81548173ffffffffffffffffffffffffffffffffffffffff021916908373ffffffffffffffffffffffffffffffffffffffff1602179055508073ffffffffffffffffffffffffffffffffffffffff16600073ffffffffffffffffffffffffffffffffffffffff167f8be0079c531659141344cd1fd0a4f28419497f9722a3daafe3b4186f6b6457e060405160405180910390a3506100bf565b600033905090565b610fe7806100ce6000396000f3fe608060405234801561001057600080fd5b50600436106100b45760003560e01c806381a74df51161007157806381a74df5146102395780638c7d06b8146102895780638da5cb5b146102c1578063ca35c3721461030b578063d2687c6014610343578063f2fde38b1461039d576100b4565b80631359dd8e146100b9578063437109f61461010b578063593e38691461015b578063595e3bd9146101ab578063715018a6146101ed5780637e0861f6146101f7575b600080fd5b6100ef600480360360408110156100cf57600080fd5b8101908080359060200190929190803590602001909291905050506103e1565b604051808260ff1660ff16815260200191505060405180910390f35b6101416004803603604081101561012157600080fd5b810190808035906020019092919080359060200190929190505050610478565b604051808215151515815260200191505060405180910390f35b6101916004803603604081101561017157600080fd5b8101908080359060200190929190803590602001909291905050506104cf565b604051808215151515815260200191505060405180910390f35b6101eb600480360360608110156101c157600080fd5b81019080803590602001909291908035906020019092919080359060200190929190505050610526565b005b6101f561062e565b005b6102376004803603606081101561020d57600080fd5b810190808035906020019092919080359060200190929190803590602001909291905050506107b6565b005b61026f6004803603604081101561024f57600080fd5b8101908080359060200190929190803590602001909291905050506108be565b604051808215151515815260200191505060405180910390f35b6102bf6004803603604081101561029f57600080fd5b810190808035906020019092919080359060200190929190505050610915565b005b6102c9610a2b565b604051808273ffffffffffffffffffffffffffffffffffffffff1673ffffffffffffffffffffffffffffffffffffffff16815260200191505060405180910390f35b6103416004803603604081101561032157600080fd5b810190808035906020019092919080359060200190929190505050610a54565b005b6103836004803603606081101561035957600080fd5b81019080803590602001909291908035906020019092919080359060200190929190505050610b69565b604051808215151515815260200191505060405180910390f35b6103df600480360360208110156103b357600080fd5b81019080803573ffffffffffffffffffffffffffffffffffffffff169060200190929190505050610bad565b005b60008060016000858152602001908152602001600020600084815260200190815260200160002060000160009054906101000a900460ff1690506001600281111561042857fe5b81600281111561043457fe5b1415610444576002915050610472565b60028081111561045057fe5b81600281111561045c57fe5b141561046c576001915050610472565b60009150505b92915050565b600080600281111561048657fe5b60016000858152602001908152602001600020600084815260200190815260200160002060000160009054906101000a900460ff1660028111156104c657fe5b14905092915050565b60006002808111156104dd57fe5b60016000858152602001908152602001600020600084815260200190815260200160002060000160009054906101000a900460ff16600281111561051d57fe5b14905092915050565b61052e610dba565b73ffffffffffffffffffffffffffffffffffffffff166000809054906101000a900473ffffffffffffffffffffffffffffffffffffffff1673ffffffffffffffffffffffffffffffffffffffff16146105ef576040517f08c379a00000000000000000000000000000000000000000000000000000000081526004018080602001828103825260208152602001807f4f776e61626c653a2063616c6c6572206973206e6f7420746865206f776e657281525060200191505060405180910390fd5b61062881600160008681526020019081526020016000206000858152602001908152602001600020600101610dc290919063ffffffff16565b50505050565b610636610dba565b73ffffffffffffffffffffffffffffffffffffffff166000809054906101000a900473ffffffffffffffffffffffffffffffffffffffff1673ffffffffffffffffffffffffffffffffffffffff16146106f7576040517f08c379a00000000000000000000000000000000000000000000000000000000081526004018080602001828103825260208152602001807f4f776e61626c653a2063616c6c6572206973206e6f7420746865206f776e657281525060200191505060405180910390fd5b600073ffffffffffffffffffffffffffffffffffffffff166000809054906101000a900473ffffffffffffffffffffffffffffffffffffffff1673ffffffffffffffffffffffffffffffffffffffff167f8be0079c531659141344cd1fd0a4f28419497f9722a3daafe3b4186f6b6457e060405160405180910390a360008060006101000a81548173ffffffffffffffffffffffffffffffffffffffff021916908373ffffffffffffffffffffffffffffffffffffffff160217905550565b6107be610dba565b73ffffffffffffffffffffffffffffffffffffffff166000809054906101000a900473ffffffffffffffffffffffffffffffffffffffff1673ffffffffffffffffffffffffffffffffffffffff161461087f576040517f08c379a00000000000000000000000000000000000000000000000000000000081526004018080602001828103825260208152602001807f4f776e61626c653a2063616c6c6572206973206e6f7420746865206f776e657281525060200191505060405180910390fd5b6108b881600160008681526020019081526020016000206000858152602001908152602001600020600101610ddc90919063ffffffff16565b50505050565b60006002808111156108cc57fe5b60016000858152602001908152602001600020600084815260200190815260200160002060000160009054906101000a900460ff16600281111561090c57fe5b14905092915050565b61091d610dba565b73ffffffffffffffffffffffffffffffffffffffff166000809054906101000a900473ffffffffffffffffffffffffffffffffffffffff1673ffffffffffffffffffffffffffffffffffffffff16146109de576040517f08c379a00000000000000000000000000000000000000000000000000000000081526004018080602001828103825260208152602001807f4f776e61626c653a2063616c6c6572206973206e6f7420746865206f776e657281525060200191505060405180910390fd5b600260016000848152602001908152602001600020600083815260200190815260200160002060000160006101000a81548160ff02191690836002811115610a2257fe5b02179055505050565b60008060009054906101000a900473ffffffffffffffffffffffffffffffffffffffff16905090565b610a5c610dba565b73ffffffffffffffffffffffffffffffffffffffff166000809054906101000a900473ffffffffffffffffffffffffffffffffffffffff1673ffffffffffffffffffffffffffffffffffffffff1614610b1d576040517f08c379a00000000000000000000000000000000000000000000000000000000081526004018080602001828103825260208152602001807f4f776e61626c653a2063616c6c6572206973206e6f7420746865206f776e657281525060200191505060405180910390fd5b6001806000848152602001908152602001600020600083815260200190815260200160002060000160006101000a81548160ff02191690836002811115610b6057fe5b02179055505050565b6000610ba482600160008781526020019081526020016000206000868152602001908152602001600020600101610df690919063ffffffff16565b90509392505050565b610bb5610dba565b73ffffffffffffffffffffffffffffffffffffffff166000809054906101000a900473ffffffffffffffffffffffffffffffffffffffff1673ffffffffffffffffffffffffffffffffffffffff1614610c76576040517f08c379a00000000000000000000000000000000000000000000000000000000081526004018080602001828103825260208152602001807f4f776e61626c653a2063616c6c6572206973206e6f7420746865206f776e657281525060200191505060405180910390fd5b600073ffffffffffffffffffffffffffffffffffffffff168173ffffffffffffffffffffffffffffffffffffffff161415610cfc576040517f08c379a0000000000000000000000000000000000000000000000000000000008152600401808060200182810382526026815260200180610f8c6026913960400191505060405180910390fd5b8073ffffffffffffffffffffffffffffffffffffffff166000809054906101000a900473ffffffffffffffffffffffffffffffffffffffff1673ffffffffffffffffffffffffffffffffffffffff167f8be0079c531659141344cd1fd0a4f28419497f9722a3daafe3b4186f6b6457e060405160405180910390a3806000806101000a81548173ffffffffffffffffffffffffffffffffffffffff021916908373ffffffffffffffffffffffffffffffffffffffff16021790555050565b600033905090565b6000610dd4836000018360001b610e10565b905092915050565b6000610dee836000018360001b610e80565b905092915050565b6000610e08836000018360001b610f68565b905092915050565b6000610e1c8383610f68565b610e75578260000182908060018154018082558091505060019003906000526020600020016000909190919091505582600001805490508360010160008481526020019081526020016000208190555060019050610e7a565b600090505b92915050565b60008083600101600084815260200190815260200160002054905060008114610f5c5760006001820390506000600186600001805490500390506000866000018281548110610ecb57fe5b9060005260206000200154905080876000018481548110610ee857fe5b9060005260206000200181905550600183018760010160008381526020019081526020016000208190555086600001805480610f2057fe5b60019003818190600052602060002001600090559055866001016000878152602001908152602001600020600090556001945050505050610f62565b60009150505b92915050565b60008083600101600084815260200190815260200160002054141590509291505056fe4f776e61626c653a206e6577206f776e657220697320746865207a65726f2061646472657373a264697066735822122023d96abb50a3fd7b17433f43303c2c09b9ad88adedc13a5dbabf5379f04ca0f564736f6c63430006020033",
  "source": "pragma solidity ^0.6.2;\n\nimport \"@openzeppelin/contracts/utils/EnumerableSet.sol\";\nimport \"@openzeppelin/contracts/access/Ownable.sol\";\n\ncontract Oracle is Ownable {\n    using EnumerableSet for EnumerableSet.UintSet;\n\n    enum MergeRequestState { Opened, Closed, Merged }\n\n    struct MergeRequest {\n        MergeRequestState state;\n        EnumerableSet.UintSet participants;\n    }\n\n    mapping(uint256 => mapping(uint256 => MergeRequest)) private _mergeRequests;\n\n    /**\n     * Add a participant to a merge request of a project\n     * @param projectId Gitlab ID of the project\n     * @param mrId Gitlab ID of the merge request\n     * @param userId Gitlab ID of the user\n     */\n    function addParticipant(uint256 projectId, uint256 mrId, uint256 userId) public onlyOwner {\n        _mergeRequests[projectId][mrId].participants.add(userId);\n    }\n\n    /**\n     * Remove a participant to a merge request of a project\n     * @param projectId Gitlab ID of the project\n     * @param mrId Gitlab ID of the merge request\n     * @param userId Gitlab ID of the user\n     */\n    function removeParticipant(uint256 projectId, uint256 mrId, uint256 userId) public onlyOwner {\n        _mergeRequests[projectId][mrId].participants.remove(userId);\n    }\n\n    /**\n     * Update the state of a merge request of a project to Closed\n     * @param projectId Gitlab ID of the project\n     * @param mrId Gitlab ID of the merge request\n     */\n    function updateStateToClosed(uint256 projectId, uint256 mrId) public onlyOwner {\n        _mergeRequests[projectId][mrId].state = MergeRequestState.Closed;\n    }\n\n    /**\n     * Update the state of a merge request of a project to Merged\n     * @param projectId Gitlab ID of the project\n     * @param mrId Gitlab ID of the merge request\n     */\n    function updateStateToMerged(uint256 projectId, uint256 mrId) public onlyOwner {\n        _mergeRequests[projectId][mrId].state = MergeRequestState.Merged;\n    }\n\n    /**\n     * Check if a merge request of a project is in Opened state\n     * @param projectId Hash of the project\n     * @param mrId Gitlab ID of the merge request\n     * @return True if the merge request is in Opened state\n     */\n    function isMergeRequestOpened(uint256 projectId, uint256 mrId) public view returns (bool) {\n        return _mergeRequests[projectId][mrId].state == MergeRequestState.Opened;\n    }\n\n    /**\n     * Check if a merge request of a project is in Merged state\n     * @param projectId Hash of the project\n     * @param mrId Gitlab ID of the merge request\n     * @return {bool} True if the merge request is in Merged state\n     */\n    function isMergeRequestMerged(uint256 projectId, uint256 mrId) public view returns (bool) {\n        return _mergeRequests[projectId][mrId].state == MergeRequestState.Merged;\n    }\n\n    /**\n     * Check if a merge request of a project is in Closed state\n     * @param projectId Hash of the project\n     * @param mrId Gitlab ID of the merge request\n     * @return {bool} True if the merge request is in Closed state\n     */\n    function isMergeRequestClosed(uint256 projectId, uint256 mrId) public view returns (bool) {\n        return _mergeRequests[projectId][mrId].state == MergeRequestState.Merged;\n    }\n\n    /**\n     * Get the merge request state as a uint\n     * @param projectId Hash of the project\n     * @param mrId Gitlab ID of the merge request\n     * @return {uint8} 0 for opened, 1 for merged, 2 for closed\n     */\n    function getMergeRequestState(uint256 projectId, uint256 mrId) public view returns (uint8) {\n        MergeRequestState state = _mergeRequests[projectId][mrId].state;\n        if (state == MergeRequestState.Closed) {\n            return 2;\n        } else if (state == MergeRequestState.Merged) {\n            return 1;\n        } else {\n            return 0;\n        }\n    }\n\n    /**\n     * Check if a user is a participant to a merge request of a project\n     * @param projectId Hash of the project\n     * @param mrId Gitlab ID of the merge request\n     * @param userId Gitlab ID of the user\n     * @return {bool} True if the user belongs to the participants\n     */\n    function isParticipant(uint256 projectId, uint256 mrId, uint256 userId) public view returns (bool) {\n        return _mergeRequests[projectId][mrId].participants.contains(userId);\n    }\n}",
  "sourcePath": "/Users/v-g/Documents/personal-projects/mr-project/mr-jam/packages/smart-contracts/contracts/Oracle.sol",
  "compiler": {
    "name": "solc",
    "version": "0.6.2+commit.bacdbe57.Emscripten.clang"
  },
  "schemaVersion": "3.1.0",
  "updatedAt": "2020-05-22T06:38:03.031Z",
  "networkType": "ethereum",
  "devdoc": {
    "methods": {
      "addParticipant(uint256,uint256,uint256)": {
        "params": {
          "mrId": "Gitlab ID of the merge request",
          "projectId": "Gitlab ID of the project",
          "userId": "Gitlab ID of the user"
        }
      },
      "getMergeRequestState(uint256,uint256)": {
        "params": {
          "mrId": "Gitlab ID of the merge request",
          "projectId": "Hash of the project"
        },
        "returns": {
          "_0": "{uint8} 0 for opened, 1 for merged, 2 for closed"
        }
      },
      "isMergeRequestClosed(uint256,uint256)": {
        "params": {
          "mrId": "Gitlab ID of the merge request",
          "projectId": "Hash of the project"
        },
        "returns": {
          "_0": "{bool} True if the merge request is in Closed state"
        }
      },
      "isMergeRequestMerged(uint256,uint256)": {
        "params": {
          "mrId": "Gitlab ID of the merge request",
          "projectId": "Hash of the project"
        },
        "returns": {
          "_0": "{bool} True if the merge request is in Merged state"
        }
      },
      "isMergeRequestOpened(uint256,uint256)": {
        "params": {
          "mrId": "Gitlab ID of the merge request",
          "projectId": "Hash of the project"
        },
        "returns": {
          "_0": "True if the merge request is in Opened state"
        }
      },
      "isParticipant(uint256,uint256,uint256)": {
        "params": {
          "mrId": "Gitlab ID of the merge request",
          "projectId": "Hash of the project",
          "userId": "Gitlab ID of the user"
        },
        "returns": {
          "_0": "{bool} True if the user belongs to the participants"
        }
      },
      "owner()": {
        "details": "Returns the address of the current owner."
      },
      "removeParticipant(uint256,uint256,uint256)": {
        "params": {
          "mrId": "Gitlab ID of the merge request",
          "projectId": "Gitlab ID of the project",
          "userId": "Gitlab ID of the user"
        }
      },
      "renounceOwnership()": {
        "details": "Leaves the contract without owner. It will not be possible to call `onlyOwner` functions anymore. Can only be called by the current owner.     * NOTE: Renouncing ownership will leave the contract without an owner, thereby removing any functionality that is only available to the owner."
      },
      "transferOwnership(address)": {
        "details": "Transfers ownership of the contract to a new account (`newOwner`). Can only be called by the current owner."
      },
      "updateStateToClosed(uint256,uint256)": {
        "params": {
          "mrId": "Gitlab ID of the merge request",
          "projectId": "Gitlab ID of the project"
        }
      },
      "updateStateToMerged(uint256,uint256)": {
        "params": {
          "mrId": "Gitlab ID of the merge request",
          "projectId": "Gitlab ID of the project"
        }
      }
    }
  },
  "userdoc": {
    "methods": {
      "addParticipant(uint256,uint256,uint256)": {
        "notice": "Add a participant to a merge request of a project"
      },
      "getMergeRequestState(uint256,uint256)": {
        "notice": "Get the merge request state as a uint"
      },
      "isMergeRequestClosed(uint256,uint256)": {
        "notice": "Check if a merge request of a project is in Closed state"
      },
      "isMergeRequestMerged(uint256,uint256)": {
        "notice": "Check if a merge request of a project is in Merged state"
      },
      "isMergeRequestOpened(uint256,uint256)": {
        "notice": "Check if a merge request of a project is in Opened state"
      },
      "isParticipant(uint256,uint256,uint256)": {
        "notice": "Check if a user is a participant to a merge request of a project"
      },
      "removeParticipant(uint256,uint256,uint256)": {
        "notice": "Remove a participant to a merge request of a project"
      },
      "updateStateToClosed(uint256,uint256)": {
        "notice": "Update the state of a merge request of a project to Closed"
      },
      "updateStateToMerged(uint256,uint256)": {
        "notice": "Update the state of a merge request of a project to Merged"
      }
    }
  }
}