{
  "contractName": "Oracle",
  "abi": [
    {
      "anonymous": false,
      "inputs": [
        {
          "indexed": true,
          "internalType": "address",
          "name": "previousOwner",
          "type": "address"
        },
        {
          "indexed": true,
          "internalType": "address",
          "name": "newOwner",
          "type": "address"
        }
      ],
      "name": "OwnershipTransferred",
      "type": "event"
    },
    {
      "inputs": [],
      "name": "owner",
      "outputs": [
        {
          "internalType": "address",
          "name": "",
          "type": "address"
        }
      ],
      "stateMutability": "view",
      "type": "function",
      "constant": true
    },
    {
      "inputs": [],
      "name": "renounceOwnership",
      "outputs": [],
      "stateMutability": "nonpayable",
      "type": "function"
    },
    {
      "inputs": [
        {
          "internalType": "address",
          "name": "newOwner",
          "type": "address"
        }
      ],
      "name": "transferOwnership",
      "outputs": [],
      "stateMutability": "nonpayable",
      "type": "function"
    },
    {
      "inputs": [
        {
          "internalType": "uint256",
          "name": "projectId",
          "type": "uint256"
        },
        {
          "internalType": "uint256",
          "name": "mrId",
          "type": "uint256"
        },
        {
          "internalType": "uint256",
          "name": "userId",
          "type": "uint256"
        }
      ],
      "name": "addParticipant",
      "outputs": [],
      "stateMutability": "nonpayable",
      "type": "function"
    },
    {
      "inputs": [
        {
          "internalType": "uint256",
          "name": "projectId",
          "type": "uint256"
        },
        {
          "internalType": "uint256",
          "name": "mrId",
          "type": "uint256"
        },
        {
          "internalType": "uint256",
          "name": "userId",
          "type": "uint256"
        }
      ],
      "name": "removeParticipant",
      "outputs": [],
      "stateMutability": "nonpayable",
      "type": "function"
    },
    {
      "inputs": [
        {
          "internalType": "uint256",
          "name": "projectId",
          "type": "uint256"
        },
        {
          "internalType": "uint256",
          "name": "mrId",
          "type": "uint256"
        }
      ],
      "name": "updateStateToClosed",
      "outputs": [],
      "stateMutability": "nonpayable",
      "type": "function"
    },
    {
      "inputs": [
        {
          "internalType": "uint256",
          "name": "projectId",
          "type": "uint256"
        },
        {
          "internalType": "uint256",
          "name": "mrId",
          "type": "uint256"
        }
      ],
      "name": "updateStateToMerged",
      "outputs": [],
      "stateMutability": "nonpayable",
      "type": "function"
    },
    {
      "inputs": [
        {
          "internalType": "uint256",
          "name": "projectId",
          "type": "uint256"
        },
        {
          "internalType": "uint256",
          "name": "mrId",
          "type": "uint256"
        }
      ],
      "name": "isMergeRequestOpened",
      "outputs": [
        {
          "internalType": "bool",
          "name": "",
          "type": "bool"
        }
      ],
      "stateMutability": "view",
      "type": "function",
      "constant": true
    },
    {
      "inputs": [
        {
          "internalType": "uint256",
          "name": "projectId",
          "type": "uint256"
        },
        {
          "internalType": "uint256",
          "name": "mrId",
          "type": "uint256"
        }
      ],
      "name": "isMergeRequestMerged",
      "outputs": [
        {
          "internalType": "bool",
          "name": "",
          "type": "bool"
        }
      ],
      "stateMutability": "view",
      "type": "function",
      "constant": true
    },
    {
      "inputs": [
        {
          "internalType": "uint256",
          "name": "projectId",
          "type": "uint256"
        },
        {
          "internalType": "uint256",
          "name": "mrId",
          "type": "uint256"
        }
      ],
      "name": "isMergeRequestClosed",
      "outputs": [
        {
          "internalType": "bool",
          "name": "",
          "type": "bool"
        }
      ],
      "stateMutability": "view",
      "type": "function",
      "constant": true
    },
    {
      "inputs": [
        {
          "internalType": "uint256",
          "name": "projectId",
          "type": "uint256"
        },
        {
          "internalType": "uint256",
          "name": "mrId",
          "type": "uint256"
        },
        {
          "internalType": "uint256",
          "name": "userId",
          "type": "uint256"
        }
      ],
      "name": "isParticipant",
      "outputs": [
        {
          "internalType": "bool",
          "name": "",
          "type": "bool"
        }
      ],
      "stateMutability": "view",
      "type": "function",
      "constant": true
    }
  ],
  "bytecode": "0x608060405260006100146100b760201b60201c565b9050806000806101000a81548173ffffffffffffffffffffffffffffffffffffffff021916908373ffffffffffffffffffffffffffffffffffffffff1602179055508073ffffffffffffffffffffffffffffffffffffffff16600073ffffffffffffffffffffffffffffffffffffffff167f8be0079c531659141344cd1fd0a4f28419497f9722a3daafe3b4186f6b6457e060405160405180910390a3506100bf565b600033905090565b610ef3806100ce6000396000f3fe608060405234801561001057600080fd5b50600436106100a95760003560e01c806381a74df51161007157806381a74df5146101dc5780638c7d06b81461022c5780638da5cb5b14610264578063ca35c372146102ae578063d2687c60146102e6578063f2fde38b14610340576100a9565b8063437109f6146100ae578063593e3869146100fe578063595e3bd91461014e578063715018a6146101905780637e0861f61461019a575b600080fd5b6100e4600480360360408110156100c457600080fd5b810190808035906020019092919080359060200190929190505050610384565b604051808215151515815260200191505060405180910390f35b6101346004803603604081101561011457600080fd5b8101908080359060200190929190803590602001909291905050506103db565b604051808215151515815260200191505060405180910390f35b61018e6004803603606081101561016457600080fd5b81019080803590602001909291908035906020019092919080359060200190929190505050610432565b005b61019861053a565b005b6101da600480360360608110156101b057600080fd5b810190808035906020019092919080359060200190929190803590602001909291905050506106c2565b005b610212600480360360408110156101f257600080fd5b8101908080359060200190929190803590602001909291905050506107ca565b604051808215151515815260200191505060405180910390f35b6102626004803603604081101561024257600080fd5b810190808035906020019092919080359060200190929190505050610821565b005b61026c610937565b604051808273ffffffffffffffffffffffffffffffffffffffff1673ffffffffffffffffffffffffffffffffffffffff16815260200191505060405180910390f35b6102e4600480360360408110156102c457600080fd5b810190808035906020019092919080359060200190929190505050610960565b005b610326600480360360608110156102fc57600080fd5b81019080803590602001909291908035906020019092919080359060200190929190505050610a75565b604051808215151515815260200191505060405180910390f35b6103826004803603602081101561035657600080fd5b81019080803573ffffffffffffffffffffffffffffffffffffffff169060200190929190505050610ab9565b005b600080600281111561039257fe5b60016000858152602001908152602001600020600084815260200190815260200160002060000160009054906101000a900460ff1660028111156103d257fe5b14905092915050565b60006002808111156103e957fe5b60016000858152602001908152602001600020600084815260200190815260200160002060000160009054906101000a900460ff16600281111561042957fe5b14905092915050565b61043a610cc6565b73ffffffffffffffffffffffffffffffffffffffff166000809054906101000a900473ffffffffffffffffffffffffffffffffffffffff1673ffffffffffffffffffffffffffffffffffffffff16146104fb576040517f08c379a00000000000000000000000000000000000000000000000000000000081526004018080602001828103825260208152602001807f4f776e61626c653a2063616c6c6572206973206e6f7420746865206f776e657281525060200191505060405180910390fd5b61053481600160008681526020019081526020016000206000858152602001908152602001600020600101610cce90919063ffffffff16565b50505050565b610542610cc6565b73ffffffffffffffffffffffffffffffffffffffff166000809054906101000a900473ffffffffffffffffffffffffffffffffffffffff1673ffffffffffffffffffffffffffffffffffffffff1614610603576040517f08c379a00000000000000000000000000000000000000000000000000000000081526004018080602001828103825260208152602001807f4f776e61626c653a2063616c6c6572206973206e6f7420746865206f776e657281525060200191505060405180910390fd5b600073ffffffffffffffffffffffffffffffffffffffff166000809054906101000a900473ffffffffffffffffffffffffffffffffffffffff1673ffffffffffffffffffffffffffffffffffffffff167f8be0079c531659141344cd1fd0a4f28419497f9722a3daafe3b4186f6b6457e060405160405180910390a360008060006101000a81548173ffffffffffffffffffffffffffffffffffffffff021916908373ffffffffffffffffffffffffffffffffffffffff160217905550565b6106ca610cc6565b73ffffffffffffffffffffffffffffffffffffffff166000809054906101000a900473ffffffffffffffffffffffffffffffffffffffff1673ffffffffffffffffffffffffffffffffffffffff161461078b576040517f08c379a00000000000000000000000000000000000000000000000000000000081526004018080602001828103825260208152602001807f4f776e61626c653a2063616c6c6572206973206e6f7420746865206f776e657281525060200191505060405180910390fd5b6107c481600160008681526020019081526020016000206000858152602001908152602001600020600101610ce890919063ffffffff16565b50505050565b60006002808111156107d857fe5b60016000858152602001908152602001600020600084815260200190815260200160002060000160009054906101000a900460ff16600281111561081857fe5b14905092915050565b610829610cc6565b73ffffffffffffffffffffffffffffffffffffffff166000809054906101000a900473ffffffffffffffffffffffffffffffffffffffff1673ffffffffffffffffffffffffffffffffffffffff16146108ea576040517f08c379a00000000000000000000000000000000000000000000000000000000081526004018080602001828103825260208152602001807f4f776e61626c653a2063616c6c6572206973206e6f7420746865206f776e657281525060200191505060405180910390fd5b600260016000848152602001908152602001600020600083815260200190815260200160002060000160006101000a81548160ff0219169083600281111561092e57fe5b02179055505050565b60008060009054906101000a900473ffffffffffffffffffffffffffffffffffffffff16905090565b610968610cc6565b73ffffffffffffffffffffffffffffffffffffffff166000809054906101000a900473ffffffffffffffffffffffffffffffffffffffff1673ffffffffffffffffffffffffffffffffffffffff1614610a29576040517f08c379a00000000000000000000000000000000000000000000000000000000081526004018080602001828103825260208152602001807f4f776e61626c653a2063616c6c6572206973206e6f7420746865206f776e657281525060200191505060405180910390fd5b6001806000848152602001908152602001600020600083815260200190815260200160002060000160006101000a81548160ff02191690836002811115610a6c57fe5b02179055505050565b6000610ab082600160008781526020019081526020016000206000868152602001908152602001600020600101610d0290919063ffffffff16565b90509392505050565b610ac1610cc6565b73ffffffffffffffffffffffffffffffffffffffff166000809054906101000a900473ffffffffffffffffffffffffffffffffffffffff1673ffffffffffffffffffffffffffffffffffffffff1614610b82576040517f08c379a00000000000000000000000000000000000000000000000000000000081526004018080602001828103825260208152602001807f4f776e61626c653a2063616c6c6572206973206e6f7420746865206f776e657281525060200191505060405180910390fd5b600073ffffffffffffffffffffffffffffffffffffffff168173ffffffffffffffffffffffffffffffffffffffff161415610c08576040517f08c379a0000000000000000000000000000000000000000000000000000000008152600401808060200182810382526026815260200180610e986026913960400191505060405180910390fd5b8073ffffffffffffffffffffffffffffffffffffffff166000809054906101000a900473ffffffffffffffffffffffffffffffffffffffff1673ffffffffffffffffffffffffffffffffffffffff167f8be0079c531659141344cd1fd0a4f28419497f9722a3daafe3b4186f6b6457e060405160405180910390a3806000806101000a81548173ffffffffffffffffffffffffffffffffffffffff021916908373ffffffffffffffffffffffffffffffffffffffff16021790555050565b600033905090565b6000610ce0836000018360001b610d1c565b905092915050565b6000610cfa836000018360001b610d8c565b905092915050565b6000610d14836000018360001b610e74565b905092915050565b6000610d288383610e74565b610d81578260000182908060018154018082558091505060019003906000526020600020016000909190919091505582600001805490508360010160008481526020019081526020016000208190555060019050610d86565b600090505b92915050565b60008083600101600084815260200190815260200160002054905060008114610e685760006001820390506000600186600001805490500390506000866000018281548110610dd757fe5b9060005260206000200154905080876000018481548110610df457fe5b9060005260206000200181905550600183018760010160008381526020019081526020016000208190555086600001805480610e2c57fe5b60019003818190600052602060002001600090559055866001016000878152602001908152602001600020600090556001945050505050610e6e565b60009150505b92915050565b60008083600101600084815260200190815260200160002054141590509291505056fe4f776e61626c653a206e6577206f776e657220697320746865207a65726f2061646472657373a2646970667358221220ac7a9e519a90438b5d3d9aadf22bb3f5035298f27ae7e2e206d33e7afac44b3464736f6c63430006020033",
  "source": "pragma solidity ^0.6.2;\n\nimport \"@openzeppelin/contracts/utils/EnumerableSet.sol\";\nimport \"@openzeppelin/contracts/access/Ownable.sol\";\n\ncontract Oracle is Ownable {\n    using EnumerableSet for EnumerableSet.UintSet;\n\n    enum MergeRequestState { Opened, Closed, Merged }\n\n    struct MergeRequest {\n        MergeRequestState state;\n        EnumerableSet.UintSet participants;\n    }\n\n    mapping(uint256 => mapping(uint256 => MergeRequest)) private _mergeRequests;\n\n    /**\n     * Add a participant to a merge request of a project\n     * @param projectId Gitlab ID of the project\n     * @param mrId Gitlab ID of the merge request\n     * @param userId Gitlab ID of the user\n     */\n    function addParticipant(uint256 projectId, uint256 mrId, uint256 userId) public onlyOwner {\n        _mergeRequests[projectId][mrId].participants.add(userId);\n    }\n\n    /**\n     * Remove a participant to a merge request of a project\n     * @param projectId Gitlab ID of the project\n     * @param mrId Gitlab ID of the merge request\n     * @param userId Gitlab ID of the user\n     */\n    function removeParticipant(uint256 projectId, uint256 mrId, uint256 userId) public onlyOwner {\n        _mergeRequests[projectId][mrId].participants.remove(userId);\n    }\n\n    /**\n     * Update the state of a merge request of a project to Closed\n     * @param projectId Gitlab ID of the project\n     * @param mrId Gitlab ID of the merge request\n     */\n    function updateStateToClosed(uint256 projectId, uint256 mrId) public onlyOwner {\n        _mergeRequests[projectId][mrId].state = MergeRequestState.Closed;\n    }\n\n    /**\n     * Update the state of a merge request of a project to Merged\n     * @param projectId Gitlab ID of the project\n     * @param mrId Gitlab ID of the merge request\n     */\n    function updateStateToMerged(uint256 projectId, uint256 mrId) public onlyOwner {\n        _mergeRequests[projectId][mrId].state = MergeRequestState.Merged;\n    }\n\n    /**\n     * Check if a merge request of a project is in Opened state\n     * @param projectId Hash of the project\n     * @param mrId Gitlab ID of the merge request\n     * @return True if the merge request is in Opened state\n     */\n    function isMergeRequestOpened(uint256 projectId, uint256 mrId) public view returns (bool) {\n        return _mergeRequests[projectId][mrId].state == MergeRequestState.Opened;\n    }\n\n    /**\n     * Check if a merge request of a project is in Merged state\n     * @param projectId Hash of the project\n     * @param mrId Gitlab ID of the merge request\n     * @return {bool} True if the merge request is in Merged state\n     */\n    function isMergeRequestMerged(uint256 projectId, uint256 mrId) public view returns (bool) {\n        return _mergeRequests[projectId][mrId].state == MergeRequestState.Merged;\n    }\n\n    /**\n     * Check if a merge request of a project is in Closed state\n     * @param projectId Hash of the project\n     * @param mrId Gitlab ID of the merge request\n     * @return {bool} True if the merge request is in Closed state\n     */\n    function isMergeRequestClosed(uint256 projectId, uint256 mrId) public view returns (bool) {\n        return _mergeRequests[projectId][mrId].state == MergeRequestState.Merged;\n    }\n\n    /**\n     * Check if a user is a participant to a merge request of a project\n     * @param projectId Hash of the project\n     * @param mrId Gitlab ID of the merge request\n     * @param userId Gitlab ID of the user\n     * @return {bool} True if the user belongs to the participants\n     */\n    function isParticipant(uint256 projectId, uint256 mrId, uint256 userId) public view returns (bool) {\n        return _mergeRequests[projectId][mrId].participants.contains(userId);\n    }\n}",
  "sourcePath": "/Users/v-g/Documents/personal-projects/mr-project/mr-jam/packages/smart-contracts/contracts/Oracle.sol",
  "compiler": {
    "name": "solc",
    "version": "0.6.2+commit.bacdbe57.Emscripten.clang"
  },
  "schemaVersion": "3.1.0",
  "updatedAt": "2020-05-21T15:18:06.496Z",
  "networkType": "ethereum",
  "devdoc": {
    "methods": {
      "addParticipant(uint256,uint256,uint256)": {
        "params": {
          "mrId": "Gitlab ID of the merge request",
          "projectId": "Gitlab ID of the project",
          "userId": "Gitlab ID of the user"
        }
      },
      "isMergeRequestClosed(uint256,uint256)": {
        "params": {
          "mrId": "Gitlab ID of the merge request",
          "projectId": "Hash of the project"
        },
        "returns": {
          "_0": "{bool} True if the merge request is in Closed state"
        }
      },
      "isMergeRequestMerged(uint256,uint256)": {
        "params": {
          "mrId": "Gitlab ID of the merge request",
          "projectId": "Hash of the project"
        },
        "returns": {
          "_0": "{bool} True if the merge request is in Merged state"
        }
      },
      "isMergeRequestOpened(uint256,uint256)": {
        "params": {
          "mrId": "Gitlab ID of the merge request",
          "projectId": "Hash of the project"
        },
        "returns": {
          "_0": "True if the merge request is in Opened state"
        }
      },
      "isParticipant(uint256,uint256,uint256)": {
        "params": {
          "mrId": "Gitlab ID of the merge request",
          "projectId": "Hash of the project",
          "userId": "Gitlab ID of the user"
        },
        "returns": {
          "_0": "{bool} True if the user belongs to the participants"
        }
      },
      "owner()": {
        "details": "Returns the address of the current owner."
      },
      "removeParticipant(uint256,uint256,uint256)": {
        "params": {
          "mrId": "Gitlab ID of the merge request",
          "projectId": "Gitlab ID of the project",
          "userId": "Gitlab ID of the user"
        }
      },
      "renounceOwnership()": {
        "details": "Leaves the contract without owner. It will not be possible to call `onlyOwner` functions anymore. Can only be called by the current owner.     * NOTE: Renouncing ownership will leave the contract without an owner, thereby removing any functionality that is only available to the owner."
      },
      "transferOwnership(address)": {
        "details": "Transfers ownership of the contract to a new account (`newOwner`). Can only be called by the current owner."
      },
      "updateStateToClosed(uint256,uint256)": {
        "params": {
          "mrId": "Gitlab ID of the merge request",
          "projectId": "Gitlab ID of the project"
        }
      },
      "updateStateToMerged(uint256,uint256)": {
        "params": {
          "mrId": "Gitlab ID of the merge request",
          "projectId": "Gitlab ID of the project"
        }
      }
    }
  },
  "userdoc": {
    "methods": {
      "addParticipant(uint256,uint256,uint256)": {
        "notice": "Add a participant to a merge request of a project"
      },
      "isMergeRequestClosed(uint256,uint256)": {
        "notice": "Check if a merge request of a project is in Closed state"
      },
      "isMergeRequestMerged(uint256,uint256)": {
        "notice": "Check if a merge request of a project is in Merged state"
      },
      "isMergeRequestOpened(uint256,uint256)": {
        "notice": "Check if a merge request of a project is in Opened state"
      },
      "isParticipant(uint256,uint256,uint256)": {
        "notice": "Check if a user is a participant to a merge request of a project"
      },
      "removeParticipant(uint256,uint256,uint256)": {
        "notice": "Remove a participant to a merge request of a project"
      },
      "updateStateToClosed(uint256,uint256)": {
        "notice": "Update the state of a merge request of a project to Closed"
      },
      "updateStateToMerged(uint256,uint256)": {
        "notice": "Update the state of a merge request of a project to Merged"
      }
    }
  }
}