{
  "contractName": "Project",
  "abi": [
    {
      "inputs": [
        {
          "internalType": "uint256",
          "name": "_projectId",
          "type": "uint256"
        },
        {
          "internalType": "address",
          "name": "managerAccount",
          "type": "address"
        },
        {
          "internalType": "uint256",
          "name": "managerId",
          "type": "uint256"
        },
        {
          "internalType": "address[]",
          "name": "additionalAccounts",
          "type": "address[]"
        },
        {
          "internalType": "uint256[]",
          "name": "additionalIds",
          "type": "uint256[]"
        },
        {
          "internalType": "address",
          "name": "_oracleAddress",
          "type": "address"
        }
      ],
      "stateMutability": "nonpayable",
      "type": "constructor"
    },
    {
      "anonymous": false,
      "inputs": [
        {
          "indexed": true,
          "internalType": "address",
          "name": "owner",
          "type": "address"
        },
        {
          "indexed": true,
          "internalType": "address",
          "name": "spender",
          "type": "address"
        },
        {
          "indexed": false,
          "internalType": "uint256",
          "name": "value",
          "type": "uint256"
        }
      ],
      "name": "Approval",
      "type": "event"
    },
    {
      "anonymous": false,
      "inputs": [
        {
          "indexed": true,
          "internalType": "address",
          "name": "previousOwner",
          "type": "address"
        },
        {
          "indexed": true,
          "internalType": "address",
          "name": "newOwner",
          "type": "address"
        }
      ],
      "name": "OwnershipTransferred",
      "type": "event"
    },
    {
      "anonymous": false,
      "inputs": [
        {
          "indexed": true,
          "internalType": "address",
          "name": "from",
          "type": "address"
        },
        {
          "indexed": true,
          "internalType": "address",
          "name": "to",
          "type": "address"
        },
        {
          "indexed": false,
          "internalType": "uint256",
          "name": "value",
          "type": "uint256"
        }
      ],
      "name": "Transfer",
      "type": "event"
    },
    {
      "inputs": [
        {
          "internalType": "address",
          "name": "owner",
          "type": "address"
        },
        {
          "internalType": "address",
          "name": "spender",
          "type": "address"
        }
      ],
      "name": "allowance",
      "outputs": [
        {
          "internalType": "uint256",
          "name": "",
          "type": "uint256"
        }
      ],
      "stateMutability": "view",
      "type": "function"
    },
    {
      "inputs": [
        {
          "internalType": "address",
          "name": "spender",
          "type": "address"
        },
        {
          "internalType": "uint256",
          "name": "amount",
          "type": "uint256"
        }
      ],
      "name": "approve",
      "outputs": [
        {
          "internalType": "bool",
          "name": "",
          "type": "bool"
        }
      ],
      "stateMutability": "nonpayable",
      "type": "function"
    },
    {
      "inputs": [
        {
          "internalType": "address",
          "name": "account",
          "type": "address"
        }
      ],
      "name": "balanceOf",
      "outputs": [
        {
          "internalType": "uint256",
          "name": "",
          "type": "uint256"
        }
      ],
      "stateMutability": "view",
      "type": "function"
    },
    {
      "inputs": [],
      "name": "decimals",
      "outputs": [
        {
          "internalType": "uint8",
          "name": "",
          "type": "uint8"
        }
      ],
      "stateMutability": "view",
      "type": "function"
    },
    {
      "inputs": [
        {
          "internalType": "address",
          "name": "spender",
          "type": "address"
        },
        {
          "internalType": "uint256",
          "name": "subtractedValue",
          "type": "uint256"
        }
      ],
      "name": "decreaseAllowance",
      "outputs": [
        {
          "internalType": "bool",
          "name": "",
          "type": "bool"
        }
      ],
      "stateMutability": "nonpayable",
      "type": "function"
    },
    {
      "inputs": [
        {
          "internalType": "address",
          "name": "spender",
          "type": "address"
        },
        {
          "internalType": "uint256",
          "name": "addedValue",
          "type": "uint256"
        }
      ],
      "name": "increaseAllowance",
      "outputs": [
        {
          "internalType": "bool",
          "name": "",
          "type": "bool"
        }
      ],
      "stateMutability": "nonpayable",
      "type": "function"
    },
    {
      "inputs": [
        {
          "internalType": "uint256",
          "name": "",
          "type": "uint256"
        }
      ],
      "name": "memberList",
      "outputs": [
        {
          "internalType": "address",
          "name": "",
          "type": "address"
        }
      ],
      "stateMutability": "view",
      "type": "function"
    },
    {
      "inputs": [
        {
          "internalType": "address",
          "name": "",
          "type": "address"
        }
      ],
      "name": "members",
      "outputs": [
        {
          "internalType": "bool",
          "name": "membership",
          "type": "bool"
        },
        {
          "internalType": "uint256",
          "name": "id",
          "type": "uint256"
        }
      ],
      "stateMutability": "view",
      "type": "function"
    },
    {
      "inputs": [],
      "name": "name",
      "outputs": [
        {
          "internalType": "string",
          "name": "",
          "type": "string"
        }
      ],
      "stateMutability": "view",
      "type": "function"
    },
    {
      "inputs": [],
      "name": "oracle",
      "outputs": [
        {
          "internalType": "contract Oracle",
          "name": "",
          "type": "address"
        }
      ],
      "stateMutability": "view",
      "type": "function"
    },
    {
      "inputs": [],
      "name": "owner",
      "outputs": [
        {
          "internalType": "address",
          "name": "",
          "type": "address"
        }
      ],
      "stateMutability": "view",
      "type": "function"
    },
    {
      "inputs": [],
      "name": "projectId",
      "outputs": [
        {
          "internalType": "uint256",
          "name": "",
          "type": "uint256"
        }
      ],
      "stateMutability": "view",
      "type": "function"
    },
    {
      "inputs": [],
      "name": "renounceOwnership",
      "outputs": [],
      "stateMutability": "nonpayable",
      "type": "function"
    },
    {
      "inputs": [],
      "name": "symbol",
      "outputs": [
        {
          "internalType": "string",
          "name": "",
          "type": "string"
        }
      ],
      "stateMutability": "view",
      "type": "function"
    },
    {
      "inputs": [],
      "name": "totalSupply",
      "outputs": [
        {
          "internalType": "uint256",
          "name": "",
          "type": "uint256"
        }
      ],
      "stateMutability": "view",
      "type": "function"
    },
    {
      "inputs": [
        {
          "internalType": "address",
          "name": "recipient",
          "type": "address"
        },
        {
          "internalType": "uint256",
          "name": "amount",
          "type": "uint256"
        }
      ],
      "name": "transfer",
      "outputs": [
        {
          "internalType": "bool",
          "name": "",
          "type": "bool"
        }
      ],
      "stateMutability": "nonpayable",
      "type": "function"
    },
    {
      "inputs": [
        {
          "internalType": "address",
          "name": "sender",
          "type": "address"
        },
        {
          "internalType": "address",
          "name": "recipient",
          "type": "address"
        },
        {
          "internalType": "uint256",
          "name": "amount",
          "type": "uint256"
        }
      ],
      "name": "transferFrom",
      "outputs": [
        {
          "internalType": "bool",
          "name": "",
          "type": "bool"
        }
      ],
      "stateMutability": "nonpayable",
      "type": "function"
    },
    {
      "inputs": [
        {
          "internalType": "address",
          "name": "newOwner",
          "type": "address"
        }
      ],
      "name": "transferOwnership",
      "outputs": [],
      "stateMutability": "nonpayable",
      "type": "function"
    },
    {
      "inputs": [
        {
          "internalType": "address",
          "name": "account",
          "type": "address"
        },
        {
          "internalType": "uint256",
          "name": "id",
          "type": "uint256"
        }
      ],
      "name": "addMember",
      "outputs": [
        {
          "internalType": "bool",
          "name": "",
          "type": "bool"
        }
      ],
      "stateMutability": "nonpayable",
      "type": "function"
    },
    {
      "inputs": [
        {
          "internalType": "address[]",
          "name": "additionalAccounts",
          "type": "address[]"
        },
        {
          "internalType": "uint256[]",
          "name": "additionalIds",
          "type": "uint256[]"
        }
      ],
      "name": "addMembers",
      "outputs": [
        {
          "internalType": "bool",
          "name": "",
          "type": "bool"
        }
      ],
      "stateMutability": "nonpayable",
      "type": "function"
    },
    {
      "inputs": [
        {
          "internalType": "uint256",
          "name": "mrId",
          "type": "uint256"
        },
        {
          "internalType": "uint256",
          "name": "amount",
          "type": "uint256"
        }
      ],
      "name": "contribute",
      "outputs": [
        {
          "internalType": "bool",
          "name": "",
          "type": "bool"
        }
      ],
      "stateMutability": "nonpayable",
      "type": "function"
    },
    {
      "inputs": [
        {
          "internalType": "uint256",
          "name": "mrId",
          "type": "uint256"
        }
      ],
      "name": "redeem",
      "outputs": [
        {
          "internalType": "bool",
          "name": "",
          "type": "bool"
        }
      ],
      "stateMutability": "nonpayable",
      "type": "function"
    },
    {
      "inputs": [
        {
          "internalType": "address",
          "name": "account",
          "type": "address"
        }
      ],
      "name": "isMember",
      "outputs": [
        {
          "internalType": "bool",
          "name": "",
          "type": "bool"
        }
      ],
      "stateMutability": "view",
      "type": "function"
    },
    {
      "inputs": [
        {
          "internalType": "uint256",
          "name": "id",
          "type": "uint256"
        }
      ],
      "name": "isIdRegistered",
      "outputs": [
        {
          "internalType": "bool",
          "name": "",
          "type": "bool"
        }
      ],
      "stateMutability": "view",
      "type": "function"
    },
    {
      "inputs": [],
      "name": "getMembers",
      "outputs": [
        {
          "internalType": "address[]",
          "name": "",
          "type": "address[]"
        },
        {
          "internalType": "uint256[]",
          "name": "",
          "type": "uint256[]"
        }
      ],
      "stateMutability": "view",
      "type": "function"
    },
    {
      "inputs": [
        {
          "internalType": "uint256",
          "name": "mrId",
          "type": "uint256"
        }
      ],
      "name": "getBountyDetails",
      "outputs": [
        {
          "internalType": "uint256",
          "name": "bountyAmount",
          "type": "uint256"
        },
        {
          "internalType": "bool",
          "name": "hasRedeemed",
          "type": "bool"
        },
        {
          "internalType": "bool",
          "name": "isContributor",
          "type": "bool"
        }
      ],
      "stateMutability": "view",
      "type": "function"
    }
  ],
  "bytecode": "0x60806040523480156200001157600080fd5b50604051620040b9380380620040b9833981810160405260c08110156200003757600080fd5b81019080805190602001909291908051906020019092919080519060200190929190805160405193929190846401000000008211156200007657600080fd5b838201915060208201858111156200008d57600080fd5b8251866020820283011164010000000082111715620000ab57600080fd5b8083526020830192505050908051906020019060200280838360005b83811015620000e4578082015181840152602081019050620000c7565b50505050905001604052602001805160405193929190846401000000008211156200010e57600080fd5b838201915060208201858111156200012557600080fd5b82518660208202830111640100000000821117156200014357600080fd5b8083526020830192505050908051906020019060200280838360005b838110156200017c5780820151818401526020810190506200015f565b50505050905001604052602001805190602001909291905050506040518060400160405280601881526020017f54657374204d6572676520546f6b656e20436f6f6c6f732000000000000000008152506040518060400160405280600481526020017f544d54430000000000000000000000000000000000000000000000000000000081525081600390805190602001906200021a92919062000cf0565b5080600490805190602001906200023392919062000cf0565b506012600560006101000a81548160ff021916908360ff1602179055505050600062000264620004c960201b60201c565b905080600560016101000a81548173ffffffffffffffffffffffffffffffffffffffff021916908373ffffffffffffffffffffffffffffffffffffffff1602179055508073ffffffffffffffffffffffffffffffffffffffff16600073ffffffffffffffffffffffffffffffffffffffff167f8be0079c531659141344cd1fd0a4f28419497f9722a3daafe3b4186f6b6457e060405160405180910390a350600073ffffffffffffffffffffffffffffffffffffffff168173ffffffffffffffffffffffffffffffffffffffff1614156200038b576040517f08c379a00000000000000000000000000000000000000000000000000000000081526004018080602001828103825260328152602001806200401c6032913960400191505060405180910390fd5b8151835114620003e7576040517f08c379a000000000000000000000000000000000000000000000000000000000815260040180806020018281038252603f8152602001806200407a603f913960400191505060405180910390fd5b8560078190555080600660006101000a81548173ffffffffffffffffffffffffffffffffffffffff021916908373ffffffffffffffffffffffffffffffffffffffff1602179055506200044085620004d160201b60201c565b620004528585620006ec60201b60201c565b60005b8351811015620004bc57620004998482815181106200047057fe5b60200260200101518483815181106200048557fe5b6020026020010151620006ec60201b60201c565b620004b46001826200096060201b620027901790919060201c565b905062000455565b5050505050505062000d9f565b600033905090565b620004e1620004c960201b60201c565b73ffffffffffffffffffffffffffffffffffffffff16600560019054906101000a900473ffffffffffffffffffffffffffffffffffffffff1673ffffffffffffffffffffffffffffffffffffffff1614620005a4576040517f08c379a00000000000000000000000000000000000000000000000000000000081526004018080602001828103825260208152602001807f4f776e61626c653a2063616c6c6572206973206e6f7420746865206f776e657281525060200191505060405180910390fd5b600073ffffffffffffffffffffffffffffffffffffffff168173ffffffffffffffffffffffffffffffffffffffff1614156200062c576040517f08c379a000000000000000000000000000000000000000000000000000000000815260040180806020018281038252602681526020018062003ff66026913960400191505060405180910390fd5b8073ffffffffffffffffffffffffffffffffffffffff16600560019054906101000a900473ffffffffffffffffffffffffffffffffffffffff1673ffffffffffffffffffffffffffffffffffffffff167f8be0079c531659141344cd1fd0a4f28419497f9722a3daafe3b4186f6b6457e060405160405180910390a380600560016101000a81548173ffffffffffffffffffffffffffffffffffffffff021916908373ffffffffffffffffffffffffffffffffffffffff16021790555050565b600073ffffffffffffffffffffffffffffffffffffffff168273ffffffffffffffffffffffffffffffffffffffff16141562000774576040517f08c379a000000000000000000000000000000000000000000000000000000000815260040180806020018281038252602c8152602001806200404e602c913960400191505060405180910390fd5b6200078582620009e960201b60201c565b15620007dd576040517f08c379a000000000000000000000000000000000000000000000000000000000815260040180806020018281038252602481526020018062003fd26024913960400191505060405180910390fd5b620007ee8162000a4260201b60201c565b1562000862576040517f08c379a000000000000000000000000000000000000000000000000000000000815260040180806020018281038252601f8152602001807f50726f6a6563743a20696420697320616c72656164792061737369676e65640081525060200191505060405180910390fd5b604051806040016040528060011515815260200182815250600860008473ffffffffffffffffffffffffffffffffffffffff1673ffffffffffffffffffffffffffffffffffffffff16815260200190815260200160002060008201518160000160006101000a81548160ff021916908315150217905550602082015181600101559050506009829080600181540180825580915050600190039060005260206000200160009091909190916101000a81548173ffffffffffffffffffffffffffffffffffffffff021916908373ffffffffffffffffffffffffffffffffffffffff1602179055506200095c82606462000b0d60201b60201c565b5050565b600080828401905083811015620009df576040517f08c379a000000000000000000000000000000000000000000000000000000000815260040180806020018281038252601b8152602001807f536166654d6174683a206164646974696f6e206f766572666c6f77000000000081525060200191505060405180910390fd5b8091505092915050565b6000600860008373ffffffffffffffffffffffffffffffffffffffff1673ffffffffffffffffffffffffffffffffffffffff16815260200190815260200160002060000160009054906101000a900460ff169050919050565b60008060005b8015801562000a5b575060098054905082105b1562000b035783600860006009858154811062000a7457fe5b9060005260206000200160009054906101000a900473ffffffffffffffffffffffffffffffffffffffff1673ffffffffffffffffffffffffffffffffffffffff1673ffffffffffffffffffffffffffffffffffffffff1681526020019081526020016000206001015414905062000afb6001836200096060201b620027901790919060201c565b915062000a48565b8092505050919050565b600073ffffffffffffffffffffffffffffffffffffffff168273ffffffffffffffffffffffffffffffffffffffff16141562000bb1576040517f08c379a000000000000000000000000000000000000000000000000000000000815260040180806020018281038252601f8152602001807f45524332303a206d696e7420746f20746865207a65726f20616464726573730081525060200191505060405180910390fd5b62000bc56000838362000ceb60201b60201c565b62000be1816002546200096060201b620027901790919060201c565b60028190555062000c3f816000808573ffffffffffffffffffffffffffffffffffffffff1673ffffffffffffffffffffffffffffffffffffffff168152602001908152602001600020546200096060201b620027901790919060201c565b6000808473ffffffffffffffffffffffffffffffffffffffff1673ffffffffffffffffffffffffffffffffffffffff168152602001908152602001600020819055508173ffffffffffffffffffffffffffffffffffffffff16600073ffffffffffffffffffffffffffffffffffffffff167fddf252ad1be2c89b69c2b068fc378daa952ba7f163c4a11628f55a4df523b3ef836040518082815260200191505060405180910390a35050565b505050565b828054600181600116156101000203166002900490600052602060002090601f016020900481019282601f1062000d3357805160ff191683800117855562000d64565b8280016001018555821562000d64579182015b8281111562000d6357825182559160200191906001019062000d46565b5b50905062000d73919062000d77565b5090565b62000d9c91905b8082111562000d9857600081600090555060010162000d7e565b5090565b90565b6132238062000daf6000396000f3fe608060405234801561001057600080fd5b506004361061018e5760003560e01c80638da5cb5b116100de578063a9059cbb11610097578063dd62ed3e11610071578063dd62ed3e14610a41578063f0f284fc14610ab9578063f2fde38b14610b11578063fe274f9214610b555761018e565b8063a9059cbb14610927578063b307fc6d1461098d578063db006a75146109fb5761018e565b80638da5cb5b1461068b57806395d89b41146106d557806398041ea3146107585780639eab5253146107be578063a230c52414610865578063a457c2d7146108c15761018e565b8063395093511161014b57806370a082311161012557806370a082311461058f578063715018a6146105e75780637dc0d1d0146105f15780638c5909171461063b5761018e565b806339509351146103a75780633e72b2bb1461040d5780633fafa127146105715761018e565b806306fdde031461019357806308ae4b0c14610216578063095ea7b31461027957806318160ddd146102df57806323b872dd146102fd578063313ce56714610383575b600080fd5b61019b610b9b565b6040518080602001828103825283818151815260200191508051906020019080838360005b838110156101db5780820151818401526020810190506101c0565b50505050905090810190601f1680156102085780820380516001836020036101000a031916815260200191505b509250505060405180910390f35b6102586004803603602081101561022c57600080fd5b81019080803573ffffffffffffffffffffffffffffffffffffffff169060200190929190505050610c3d565b60405180831515151581526020018281526020019250505060405180910390f35b6102c56004803603604081101561028f57600080fd5b81019080803573ffffffffffffffffffffffffffffffffffffffff16906020019092919080359060200190929190505050610c6e565b604051808215151515815260200191505060405180910390f35b6102e7610c8c565b6040518082815260200191505060405180910390f35b6103696004803603606081101561031357600080fd5b81019080803573ffffffffffffffffffffffffffffffffffffffff169060200190929190803573ffffffffffffffffffffffffffffffffffffffff16906020019092919080359060200190929190505050610c96565b604051808215151515815260200191505060405180910390f35b61038b610d6f565b604051808260ff1660ff16815260200191505060405180910390f35b6103f3600480360360408110156103bd57600080fd5b81019080803573ffffffffffffffffffffffffffffffffffffffff16906020019092919080359060200190929190505050610d86565b604051808215151515815260200191505060405180910390f35b6105576004803603604081101561042357600080fd5b810190808035906020019064010000000081111561044057600080fd5b82018360208201111561045257600080fd5b8035906020019184602083028401116401000000008311171561047457600080fd5b919080806020026020016040519081016040528093929190818152602001838360200280828437600081840152601f19601f820116905080830192505050505050509192919290803590602001906401000000008111156104d457600080fd5b8201836020820111156104e657600080fd5b8035906020019184602083028401116401000000008311171561050857600080fd5b919080806020026020016040519081016040528093929190818152602001838360200280828437600081840152601f19601f820116905080830192505050505050509192919290505050610e39565b604051808215151515815260200191505060405180910390f35b610579610fbd565b6040518082815260200191505060405180910390f35b6105d1600480360360208110156105a557600080fd5b81019080803573ffffffffffffffffffffffffffffffffffffffff169060200190929190505050610fc3565b6040518082815260200191505060405180910390f35b6105ef61100b565b005b6105f9611196565b604051808273ffffffffffffffffffffffffffffffffffffffff1673ffffffffffffffffffffffffffffffffffffffff16815260200191505060405180910390f35b6106716004803603604081101561065157600080fd5b8101908080359060200190929190803590602001909291905050506111bc565b604051808215151515815260200191505060405180910390f35b6106936115c6565b604051808273ffffffffffffffffffffffffffffffffffffffff1673ffffffffffffffffffffffffffffffffffffffff16815260200191505060405180910390f35b6106dd6115f0565b6040518080602001828103825283818151815260200191508051906020019080838360005b8381101561071d578082015181840152602081019050610702565b50505050905090810190601f16801561074a5780820380516001836020036101000a031916815260200191505b509250505060405180910390f35b6107a46004803603604081101561076e57600080fd5b81019080803573ffffffffffffffffffffffffffffffffffffffff16906020019092919080359060200190929190505050611692565b604051808215151515815260200191505060405180910390f35b6107c6611772565b604051808060200180602001838103835285818151815260200191508051906020019060200280838360005b8381101561080d5780820151818401526020810190506107f2565b50505050905001838103825284818151815260200191508051906020019060200280838360005b8381101561084f578082015181840152602081019050610834565b5050505090500194505050505060405180910390f35b6108a76004803603602081101561087b57600080fd5b81019080803573ffffffffffffffffffffffffffffffffffffffff1690602001909291905050506118f2565b604051808215151515815260200191505060405180910390f35b61090d600480360360408110156108d757600080fd5b81019080803573ffffffffffffffffffffffffffffffffffffffff1690602001909291908035906020019092919050505061194b565b604051808215151515815260200191505060405180910390f35b6109736004803603604081101561093d57600080fd5b81019080803573ffffffffffffffffffffffffffffffffffffffff16906020019092919080359060200190929190505050611a18565b604051808215151515815260200191505060405180910390f35b6109b9600480360360208110156109a357600080fd5b8101908080359060200190929190505050611a36565b604051808273ffffffffffffffffffffffffffffffffffffffff1673ffffffffffffffffffffffffffffffffffffffff16815260200191505060405180910390f35b610a2760048036036020811015610a1157600080fd5b8101908080359060200190929190505050611a72565b604051808215151515815260200191505060405180910390f35b610aa360048036036040811015610a5757600080fd5b81019080803573ffffffffffffffffffffffffffffffffffffffff169060200190929190803573ffffffffffffffffffffffffffffffffffffffff169060200190929190505050611e19565b6040518082815260200191505060405180910390f35b610ae560048036036020811015610acf57600080fd5b8101908080359060200190929190505050611ea0565b604051808481526020018315151515815260200182151515158152602001935050505060405180910390f35b610b5360048036036020811015610b2757600080fd5b81019080803573ffffffffffffffffffffffffffffffffffffffff169060200190929190505050611f40565b005b610b8160048036036020811015610b6b57600080fd5b8101908080359060200190929190505050612150565b604051808215151515815260200191505060405180910390f35b606060038054600181600116156101000203166002900480601f016020809104026020016040519081016040528092919081815260200182805460018160011615610100020316600290048015610c335780601f10610c0857610100808354040283529160200191610c33565b820191906000526020600020905b815481529060010190602001808311610c1657829003601f168201915b5050505050905090565b60086020528060005260406000206000915090508060000160009054906101000a900460ff16908060010154905082565b6000610c82610c7b612210565b8484612218565b6001905092915050565b6000600254905090565b6000610ca384848461240f565b610d6484610caf612210565b610d5f8560405180606001604052806028815260200161303860289139600160008b73ffffffffffffffffffffffffffffffffffffffff1673ffffffffffffffffffffffffffffffffffffffff1681526020019081526020016000206000610d15612210565b73ffffffffffffffffffffffffffffffffffffffff1673ffffffffffffffffffffffffffffffffffffffff168152602001908152602001600020546126d09092919063ffffffff16565b612218565b600190509392505050565b6000600560009054906101000a900460ff16905090565b6000610e2f610d93612210565b84610e2a8560016000610da4612210565b73ffffffffffffffffffffffffffffffffffffffff1673ffffffffffffffffffffffffffffffffffffffff16815260200190815260200160002060008973ffffffffffffffffffffffffffffffffffffffff1673ffffffffffffffffffffffffffffffffffffffff1681526020019081526020016000205461279090919063ffffffff16565b612218565b6001905092915050565b6000610e43612210565b73ffffffffffffffffffffffffffffffffffffffff16600560019054906101000a900473ffffffffffffffffffffffffffffffffffffffff1673ffffffffffffffffffffffffffffffffffffffff1614610f05576040517f08c379a00000000000000000000000000000000000000000000000000000000081526004018080602001828103825260208152602001807f4f776e61626c653a2063616c6c6572206973206e6f7420746865206f776e657281525060200191505060405180910390fd5b8151835114610f5f576040517f08c379a000000000000000000000000000000000000000000000000000000000815260040180806020018281038252603f815260200180613162603f913960400191505060405180910390fd5b60005b8351811015610fb657610f9b848281518110610f7a57fe5b6020026020010151848381518110610f8e57fe5b6020026020010151612818565b610faf60018261279090919063ffffffff16565b9050610f62565b5092915050565b60075481565b60008060008373ffffffffffffffffffffffffffffffffffffffff1673ffffffffffffffffffffffffffffffffffffffff168152602001908152602001600020549050919050565b611013612210565b73ffffffffffffffffffffffffffffffffffffffff16600560019054906101000a900473ffffffffffffffffffffffffffffffffffffffff1673ffffffffffffffffffffffffffffffffffffffff16146110d5576040517f08c379a00000000000000000000000000000000000000000000000000000000081526004018080602001828103825260208152602001807f4f776e61626c653a2063616c6c6572206973206e6f7420746865206f776e657281525060200191505060405180910390fd5b600073ffffffffffffffffffffffffffffffffffffffff16600560019054906101000a900473ffffffffffffffffffffffffffffffffffffffff1673ffffffffffffffffffffffffffffffffffffffff167f8be0079c531659141344cd1fd0a4f28419497f9722a3daafe3b4186f6b6457e060405160405180910390a36000600560016101000a81548173ffffffffffffffffffffffffffffffffffffffff021916908373ffffffffffffffffffffffffffffffffffffffff160217905550565b600660009054906101000a900473ffffffffffffffffffffffffffffffffffffffff1681565b60006111ce6111c9612210565b6118f2565b611240576040517f08c379a000000000000000000000000000000000000000000000000000000000815260040180806020018281038252601f8152602001807f50726f6a6563743a2063616c6c6572206973206e6f742061206d656d6265720081525060200191505060405180910390fd5b600061124a612210565b9050600660009054906101000a900473ffffffffffffffffffffffffffffffffffffffff1673ffffffffffffffffffffffffffffffffffffffff1663437109f6600754866040518363ffffffff1660e01b8152600401808381526020018281526020019250505060206040518083038186803b1580156112c957600080fd5b505afa1580156112dd573d6000803e3d6000fd5b505050506040513d60208110156112f357600080fd5b8101908080519060200190929190505050611359576040517f08c379a0000000000000000000000000000000000000000000000000000000008152600401808060200182810382526024815260200180612f606024913960400191505060405180910390fd5b600660009054906101000a900473ffffffffffffffffffffffffffffffffffffffff1673ffffffffffffffffffffffffffffffffffffffff1663d2687c6060075486600860008673ffffffffffffffffffffffffffffffffffffffff1673ffffffffffffffffffffffffffffffffffffffff168152602001908152602001600020600101546040518463ffffffff1660e01b815260040180848152602001838152602001828152602001935050505060206040518083038186803b15801561142057600080fd5b505afa158015611434573d6000803e3d6000fd5b505050506040513d602081101561144a57600080fd5b8101908080519060200190929190505050156114b1576040517f08c379a00000000000000000000000000000000000000000000000000000000081526004018080602001828103825260288152602001806131a16028913960400191505060405180910390fd5b6114bb8184612a6f565b6114e483600a60008781526020019081526020016000206000015461279090919063ffffffff16565b600a60008681526020019081526020016000206000018190555061156483600a600087815260200190815260200160002060010160008473ffffffffffffffffffffffffffffffffffffffff1673ffffffffffffffffffffffffffffffffffffffff1681526020019081526020016000205461279090919063ffffffff16565b600a600086815260200190815260200160002060010160008373ffffffffffffffffffffffffffffffffffffffff1673ffffffffffffffffffffffffffffffffffffffff16815260200190815260200160002081905550600191505092915050565b6000600560019054906101000a900473ffffffffffffffffffffffffffffffffffffffff16905090565b606060048054600181600116156101000203166002900480601f0160208091040260200160405190810160405280929190818152602001828054600181600116156101000203166002900480156116885780601f1061165d57610100808354040283529160200191611688565b820191906000526020600020905b81548152906001019060200180831161166b57829003601f168201915b5050505050905090565b600061169c612210565b73ffffffffffffffffffffffffffffffffffffffff16600560019054906101000a900473ffffffffffffffffffffffffffffffffffffffff1673ffffffffffffffffffffffffffffffffffffffff161461175e576040517f08c379a00000000000000000000000000000000000000000000000000000000081526004018080602001828103825260208152602001807f4f776e61626c653a2063616c6c6572206973206e6f7420746865206f776e657281525060200191505060405180910390fd5b6117688383612818565b6001905092915050565b60608060606009805490506040519080825280602002602001820160405280156117ab5781602001602082028038833980820191505090505b50905060005b60098054905081101561185d5760086000600983815481106117cf57fe5b9060005260206000200160009054906101000a900473ffffffffffffffffffffffffffffffffffffffff1673ffffffffffffffffffffffffffffffffffffffff1673ffffffffffffffffffffffffffffffffffffffff1681526020019081526020016000206001015482828151811061184457fe5b60200260200101818152505080806001019150506117b1565b50600981818054806020026020016040519081016040528092919081815260200182805480156118e257602002820191906000526020600020905b8160009054906101000a900473ffffffffffffffffffffffffffffffffffffffff1673ffffffffffffffffffffffffffffffffffffffff1681526020019060010190808311611898575b5050505050915092509250509091565b6000600860008373ffffffffffffffffffffffffffffffffffffffff1673ffffffffffffffffffffffffffffffffffffffff16815260200190815260200160002060000160009054906101000a900460ff169050919050565b6000611a0e611958612210565b84611a09856040518060600160405280602581526020016131c96025913960016000611982612210565b73ffffffffffffffffffffffffffffffffffffffff1673ffffffffffffffffffffffffffffffffffffffff16815260200190815260200160002060008a73ffffffffffffffffffffffffffffffffffffffff1673ffffffffffffffffffffffffffffffffffffffff168152602001908152602001600020546126d09092919063ffffffff16565b612218565b6001905092915050565b6000611a2c611a25612210565b848461240f565b6001905092915050565b60098181548110611a4357fe5b906000526020600020016000915054906101000a900473ffffffffffffffffffffffffffffffffffffffff1681565b6000611a84611a7f612210565b6118f2565b611af6576040517f08c379a000000000000000000000000000000000000000000000000000000000815260040180806020018281038252601f8152602001807f50726f6a6563743a2063616c6c6572206973206e6f742061206d656d6265720081525060200191505060405180910390fd5b6000611b00612210565b90506000600a60008581526020019081526020016000209050600660009054906101000a900473ffffffffffffffffffffffffffffffffffffffff1673ffffffffffffffffffffffffffffffffffffffff1663593e3869600754866040518363ffffffff1660e01b8152600401808381526020018281526020019250505060206040518083038186803b158015611b9657600080fd5b505afa158015611baa573d6000803e3d6000fd5b505050506040513d6020811015611bc057600080fd5b8101908080519060200190929190505050611c26576040517f08c379a00000000000000000000000000000000000000000000000000000000081526004018080602001828103825260248152602001806130606024913960400191505060405180910390fd5b600660009054906101000a900473ffffffffffffffffffffffffffffffffffffffff1673ffffffffffffffffffffffffffffffffffffffff1663d2687c6060075486600860008773ffffffffffffffffffffffffffffffffffffffff1673ffffffffffffffffffffffffffffffffffffffff168152602001908152602001600020600101546040518463ffffffff1660e01b815260040180848152602001838152602001828152602001935050505060206040518083038186803b158015611ced57600080fd5b505afa158015611d01573d6000803e3d6000fd5b505050506040513d6020811015611d1757600080fd5b8101908080519060200190929190505050611d7d576040517f08c379a000000000000000000000000000000000000000000000000000000000815260040180806020018281038252602481526020018061313e6024913960400191505060405180910390fd5b611d938282600201612c3390919063ffffffff16565b15611de9576040517f08c379a00000000000000000000000000000000000000000000000000000000081526004018080602001828103825260248152602001806130ca6024913960400191505060405180910390fd5b611dff8282600201612c6390919063ffffffff16565b50611e0e828260000154612c93565b600192505050919050565b6000600160008473ffffffffffffffffffffffffffffffffffffffff1673ffffffffffffffffffffffffffffffffffffffff16815260200190815260200160002060008373ffffffffffffffffffffffffffffffffffffffff1673ffffffffffffffffffffffffffffffffffffffff16815260200190815260200160002054905092915050565b600080600080600a6000868152602001908152602001600020905080600001549350611edf611ecd612210565b82600201612c3390919063ffffffff16565b92506000816001016000611ef1612210565b73ffffffffffffffffffffffffffffffffffffffff1673ffffffffffffffffffffffffffffffffffffffff16815260200190815260200160002054119150838383935093509350509193909250565b611f48612210565b73ffffffffffffffffffffffffffffffffffffffff16600560019054906101000a900473ffffffffffffffffffffffffffffffffffffffff1673ffffffffffffffffffffffffffffffffffffffff161461200a576040517f08c379a00000000000000000000000000000000000000000000000000000000081526004018080602001828103825260208152602001807f4f776e61626c653a2063616c6c6572206973206e6f7420746865206f776e657281525060200191505060405180910390fd5b600073ffffffffffffffffffffffffffffffffffffffff168173ffffffffffffffffffffffffffffffffffffffff161415612090576040517f08c379a0000000000000000000000000000000000000000000000000000000008152600401808060200182810382526026815260200180612fca6026913960400191505060405180910390fd5b8073ffffffffffffffffffffffffffffffffffffffff16600560019054906101000a900473ffffffffffffffffffffffffffffffffffffffff1673ffffffffffffffffffffffffffffffffffffffff167f8be0079c531659141344cd1fd0a4f28419497f9722a3daafe3b4186f6b6457e060405160405180910390a380600560016101000a81548173ffffffffffffffffffffffffffffffffffffffff021916908373ffffffffffffffffffffffffffffffffffffffff16021790555050565b60008060005b80158015612168575060098054905082105b156122065783600860006009858154811061217f57fe5b9060005260206000200160009054906101000a900473ffffffffffffffffffffffffffffffffffffffff1673ffffffffffffffffffffffffffffffffffffffff1673ffffffffffffffffffffffffffffffffffffffff168152602001908152602001600020600101541490506121ff60018361279090919063ffffffff16565b9150612156565b8092505050919050565b600033905090565b600073ffffffffffffffffffffffffffffffffffffffff168373ffffffffffffffffffffffffffffffffffffffff16141561229e576040517f08c379a00000000000000000000000000000000000000000000000000000000081526004018080602001828103825260248152602001806130ee6024913960400191505060405180910390fd5b600073ffffffffffffffffffffffffffffffffffffffff168273ffffffffffffffffffffffffffffffffffffffff161415612324576040517f08c379a0000000000000000000000000000000000000000000000000000000008152600401808060200182810382526022815260200180612ff06022913960400191505060405180910390fd5b80600160008573ffffffffffffffffffffffffffffffffffffffff1673ffffffffffffffffffffffffffffffffffffffff16815260200190815260200160002060008473ffffffffffffffffffffffffffffffffffffffff1673ffffffffffffffffffffffffffffffffffffffff168152602001908152602001600020819055508173ffffffffffffffffffffffffffffffffffffffff168373ffffffffffffffffffffffffffffffffffffffff167f8c5be1e5ebec7d5bd14f71427d1e84f3dd0314c0f7b2291e5b200ac8c7c3b925836040518082815260200191505060405180910390a3505050565b600073ffffffffffffffffffffffffffffffffffffffff168373ffffffffffffffffffffffffffffffffffffffff161415612495576040517f08c379a00000000000000000000000000000000000000000000000000000000081526004018080602001828103825260258152602001806130a56025913960400191505060405180910390fd5b600073ffffffffffffffffffffffffffffffffffffffff168273ffffffffffffffffffffffffffffffffffffffff16141561251b576040517f08c379a0000000000000000000000000000000000000000000000000000000008152600401808060200182810382526023815260200180612f3d6023913960400191505060405180910390fd5b612526838383612e5a565b61259181604051806060016040528060268152602001613012602691396000808773ffffffffffffffffffffffffffffffffffffffff1673ffffffffffffffffffffffffffffffffffffffff168152602001908152602001600020546126d09092919063ffffffff16565b6000808573ffffffffffffffffffffffffffffffffffffffff1673ffffffffffffffffffffffffffffffffffffffff16815260200190815260200160002081905550612624816000808573ffffffffffffffffffffffffffffffffffffffff1673ffffffffffffffffffffffffffffffffffffffff1681526020019081526020016000205461279090919063ffffffff16565b6000808473ffffffffffffffffffffffffffffffffffffffff1673ffffffffffffffffffffffffffffffffffffffff168152602001908152602001600020819055508173ffffffffffffffffffffffffffffffffffffffff168373ffffffffffffffffffffffffffffffffffffffff167fddf252ad1be2c89b69c2b068fc378daa952ba7f163c4a11628f55a4df523b3ef836040518082815260200191505060405180910390a3505050565b600083831115829061277d576040517f08c379a00000000000000000000000000000000000000000000000000000000081526004018080602001828103825283818151815260200191508051906020019080838360005b83811015612742578082015181840152602081019050612727565b50505050905090810190601f16801561276f5780820380516001836020036101000a031916815260200191505b509250505060405180910390fd5b5060008385039050809150509392505050565b60008082840190508381101561280e576040517f08c379a000000000000000000000000000000000000000000000000000000000815260040180806020018281038252601b8152602001807f536166654d6174683a206164646974696f6e206f766572666c6f77000000000081525060200191505060405180910390fd5b8091505092915050565b600073ffffffffffffffffffffffffffffffffffffffff168273ffffffffffffffffffffffffffffffffffffffff16141561289e576040517f08c379a000000000000000000000000000000000000000000000000000000000815260040180806020018281038252602c815260200180613112602c913960400191505060405180910390fd5b6128a7826118f2565b156128fd576040517f08c379a0000000000000000000000000000000000000000000000000000000008152600401808060200182810382526024815260200180612f846024913960400191505060405180910390fd5b61290681612150565b15612979576040517f08c379a000000000000000000000000000000000000000000000000000000000815260040180806020018281038252601f8152602001807f50726f6a6563743a20696420697320616c72656164792061737369676e65640081525060200191505060405180910390fd5b604051806040016040528060011515815260200182815250600860008473ffffffffffffffffffffffffffffffffffffffff1673ffffffffffffffffffffffffffffffffffffffff16815260200190815260200160002060008201518160000160006101000a81548160ff021916908315150217905550602082015181600101559050506009829080600181540180825580915050600190039060005260206000200160009091909190916101000a81548173ffffffffffffffffffffffffffffffffffffffff021916908373ffffffffffffffffffffffffffffffffffffffff160217905550612a6b826064612c93565b5050565b600073ffffffffffffffffffffffffffffffffffffffff168273ffffffffffffffffffffffffffffffffffffffff161415612af5576040517f08c379a00000000000000000000000000000000000000000000000000000000081526004018080602001828103825260218152602001806130846021913960400191505060405180910390fd5b612b0182600083612e5a565b612b6c81604051806060016040528060228152602001612fa8602291396000808673ffffffffffffffffffffffffffffffffffffffff1673ffffffffffffffffffffffffffffffffffffffff168152602001908152602001600020546126d09092919063ffffffff16565b6000808473ffffffffffffffffffffffffffffffffffffffff1673ffffffffffffffffffffffffffffffffffffffff16815260200190815260200160002081905550612bc381600254612e5f90919063ffffffff16565b600281905550600073ffffffffffffffffffffffffffffffffffffffff168273ffffffffffffffffffffffffffffffffffffffff167fddf252ad1be2c89b69c2b068fc378daa952ba7f163c4a11628f55a4df523b3ef836040518082815260200191505060405180910390a35050565b6000612c5b836000018373ffffffffffffffffffffffffffffffffffffffff1660001b612ea9565b905092915050565b6000612c8b836000018373ffffffffffffffffffffffffffffffffffffffff1660001b612ecc565b905092915050565b600073ffffffffffffffffffffffffffffffffffffffff168273ffffffffffffffffffffffffffffffffffffffff161415612d36576040517f08c379a000000000000000000000000000000000000000000000000000000000815260040180806020018281038252601f8152602001807f45524332303a206d696e7420746f20746865207a65726f20616464726573730081525060200191505060405180910390fd5b612d4260008383612e5a565b612d578160025461279090919063ffffffff16565b600281905550612dae816000808573ffffffffffffffffffffffffffffffffffffffff1673ffffffffffffffffffffffffffffffffffffffff1681526020019081526020016000205461279090919063ffffffff16565b6000808473ffffffffffffffffffffffffffffffffffffffff1673ffffffffffffffffffffffffffffffffffffffff168152602001908152602001600020819055508173ffffffffffffffffffffffffffffffffffffffff16600073ffffffffffffffffffffffffffffffffffffffff167fddf252ad1be2c89b69c2b068fc378daa952ba7f163c4a11628f55a4df523b3ef836040518082815260200191505060405180910390a35050565b505050565b6000612ea183836040518060400160405280601e81526020017f536166654d6174683a207375627472616374696f6e206f766572666c6f7700008152506126d0565b905092915050565b600080836001016000848152602001908152602001600020541415905092915050565b6000612ed88383612ea9565b612f31578260000182908060018154018082558091505060019003906000526020600020016000909190919091505582600001805490508360010160008481526020019081526020016000208190555060019050612f36565b600090505b9291505056fe45524332303a207472616e7366657220746f20746865207a65726f206164647265737350726f6a6563743a206d657267652072657175657374206973206e6f74206f70656e656450726f6a6563743a206163636f756e7420697320616c72656164792061206d656d62657245524332303a206275726e20616d6f756e7420657863656564732062616c616e63654f776e61626c653a206e6577206f776e657220697320746865207a65726f206164647265737345524332303a20617070726f766520746f20746865207a65726f206164647265737345524332303a207472616e7366657220616d6f756e7420657863656564732062616c616e636545524332303a207472616e7366657220616d6f756e74206578636565647320616c6c6f77616e636550726f6a6563743a206d657267652072657175657374206973206e6f74206d657267656445524332303a206275726e2066726f6d20746865207a65726f206164647265737345524332303a207472616e736665722066726f6d20746865207a65726f206164647265737350726f6a6563743a2073656e6465722068617320616c72656164792072656465656d656445524332303a20617070726f76652066726f6d20746865207a65726f206164647265737350726f6a6563743a206163636f756e742063616e206e6f7420626520746865207a65726f206164647265737350726f6a6563743a2073656e646572206973206e6f742061207061727469636970616e7450726f6a6563743a206164646974696f6e616c206163636f756e747320616e6420696473206d757374206265206f66207468652073616d65206c656e67746850726f6a6563743a2073656e64657220697320616c72656164792061207061727469636970616e7445524332303a2064656372656173656420616c6c6f77616e63652062656c6f77207a65726fa264697066735822122046df9ff90806816b5cc76048328ba85a69499c7021889475e0abb0b29d28555564736f6c6343000602003350726f6a6563743a206163636f756e7420697320616c72656164792061206d656d6265724f776e61626c653a206e6577206f776e657220697320746865207a65726f206164647265737350726f6a6563743a206f7261636c65416464726573732063616e206e6f7420626520746865207a65726f206164647265737350726f6a6563743a206163636f756e742063616e206e6f7420626520746865207a65726f206164647265737350726f6a6563743a206164646974696f6e616c206163636f756e747320616e6420696473206d757374206265206f66207468652073616d65206c656e677468",
  "source": "pragma solidity ^0.6.2;\n\nimport \"@openzeppelin/contracts/token/ERC20/ERC20.sol\";\nimport \"@openzeppelin/contracts/utils/EnumerableSet.sol\";\nimport \"@openzeppelin/contracts/access/Ownable.sol\";\nimport \"./Oracle.sol\";\n\ncontract Project is ERC20, Ownable {\n    using EnumerableSet for EnumerableSet.AddressSet;\n\n    struct Bounty {\n        uint256 amount;\n        mapping(address => uint256) contributions;\n        EnumerableSet.AddressSet registeredRedeemers;\n    }\n\n    struct Member {\n        bool membership;\n        uint256 id;\n    }\n\n    uint256 constant INITIAL_BALANCE = 100;\n\n    Oracle public oracle;\n    uint256 public projectId;\n    mapping(address => Member) public members;\n    address[] public memberList;\n    mapping(uint256 => Bounty) bounties;\n\n    constructor(\n        uint256 _projectId,\n        address managerAccount,\n        uint256 managerId,\n        address[] memory additionalAccounts,\n        uint256[] memory additionalIds,\n        address _oracleAddress\n    ) ERC20(\"Test Merge Token Coolos \", \"TMTC\") public {\n        require(_oracleAddress != address(0), \"Project: oracleAddress can not be the zero address\");\n        require(additionalAccounts.length == additionalIds.length, \"Project: additional accounts and ids must be of the same length\");\n        projectId = _projectId;\n        oracle = Oracle(_oracleAddress);\n        // The manager becomes the owner\n        transferOwnership(managerAccount);\n        // Register the manager as member and transfer the initial balance\n        _addMember(managerAccount, managerId);\n        // Register the additional users\n        uint256 index;\n        while (index < additionalAccounts.length) {\n            _addMember(additionalAccounts[index], additionalIds[index]);\n            index = index.add(1);\n        }\n    }\n\n    modifier onlyMember() {\n        require(isMember(_msgSender()), \"Project: caller is not a member\");\n        _;\n    }\n\n    function addMember(address account, uint256 id) public onlyOwner returns (bool) {\n        _addMember(account, id);\n        return true;\n    }\n\n    function addMembers(\n        address[] memory additionalAccounts,\n        uint256[] memory additionalIds\n    ) public onlyOwner returns (bool) {\n        require(additionalAccounts.length == additionalIds.length, \"Project: additional accounts and ids must be of the same length\");\n        // Register the additional users\n        uint256 index;\n        while (index < additionalAccounts.length) {\n            _addMember(additionalAccounts[index], additionalIds[index]);\n            index = index.add(1);\n        }\n    }\n\n    function contribute(uint256 mrId, uint256 amount) public onlyMember returns (bool) {\n        address sender = _msgSender();\n        require(oracle.isMergeRequestOpened(projectId, mrId), \"Project: merge request is not opened\");\n        require(!oracle.isParticipant(projectId, mrId, members[sender].id), \"Project: sender is already a participant\");\n        _burn(sender, amount);\n        bounties[mrId].amount = bounties[mrId].amount.add(amount);\n        bounties[mrId].contributions[sender] = bounties[mrId].contributions[sender].add(amount);\n        return true;\n    }\n\n    function redeem(uint256 mrId) public onlyMember returns (bool) {\n        address sender = _msgSender();\n        Bounty storage bounty = bounties[mrId];\n        require(oracle.isMergeRequestMerged(projectId, mrId), \"Project: merge request is not merged\");\n        require(oracle.isParticipant(projectId, mrId, members[sender].id), \"Project: sender is not a participant\");\n        require(!bounty.registeredRedeemers.contains(sender), \"Project: sender has already redeemed\");\n        bounty.registeredRedeemers.add(sender);\n        _mint(sender, bounty.amount);\n        return true;\n    }\n\n    function isMember(address account) public view returns (bool) {\n        return members[account].membership;\n    }\n\n    function isIdRegistered(uint256 id) public view returns (bool) {\n        uint256 index;\n        bool isIdMember;\n        while (!isIdMember && index < memberList.length) {\n            isIdMember = members[memberList[index]].id == id;\n            index = index.add(1);\n        }\n        return isIdMember;\n    }\n\n    function getMembers() public view returns (address[] memory, uint256[] memory) {\n        uint256[] memory ids = new uint256[](memberList.length);\n\n        for (uint256 i; i < memberList.length; i++) {\n            ids[i] = members[memberList[i]].id;\n        }\n\n        return (\n            memberList,\n            ids\n        );\n    }\n\n    function getBountyDetails(uint256 mrId) public view returns (\n        uint256 bountyAmount,\n        bool hasRedeemed,\n        bool isContributor\n    ) {\n        Bounty storage bounty = bounties[mrId];\n        bountyAmount = bounty.amount;\n        hasRedeemed = bounty.registeredRedeemers.contains(_msgSender());\n        isContributor = bounty.contributions[_msgSender()] > 0;\n\n        return (\n            bountyAmount,\n            hasRedeemed,\n            isContributor\n        );\n    }\n\n    function _addMember(address account, uint256 id) internal {\n        require(account != address(0), \"Project: account can not be the zero address\");\n        require(!isMember(account), \"Project: account is already a member\");\n        require(!isIdRegistered(id), \"Project: id is already assigned\");\n        // The account is registered as member\n        members[account] = Member(true, id);\n        memberList.push(account);\n        // The account receives the initial balance\n        _mint(account, INITIAL_BALANCE);\n    }\n}\n",
  "sourcePath": "/Users/v-g/Documents/personal-projects/mr-project/mr-jam/packages/smart-contracts/contracts/Project.sol",
  "compiler": {
    "name": "solc",
    "version": "0.6.2+commit.bacdbe57.Emscripten.clang"
  },
  "schemaVersion": "3.1.0",
  "updatedAt": "2020-05-21T17:05:24.702Z",
  "devdoc": {
    "methods": {
      "allowance(address,address)": {
        "details": "See {IERC20-allowance}."
      },
      "approve(address,uint256)": {
        "details": "See {IERC20-approve}.     * Requirements:     * - `spender` cannot be the zero address."
      },
      "balanceOf(address)": {
        "details": "See {IERC20-balanceOf}."
      },
      "decimals()": {
        "details": "Returns the number of decimals used to get its user representation. For example, if `decimals` equals `2`, a balance of `505` tokens should be displayed to a user as `5,05` (`505 / 10 ** 2`).     * Tokens usually opt for a value of 18, imitating the relationship between Ether and Wei. This is the value {ERC20} uses, unless {_setupDecimals} is called.     * NOTE: This information is only used for _display_ purposes: it in no way affects any of the arithmetic of the contract, including {IERC20-balanceOf} and {IERC20-transfer}."
      },
      "decreaseAllowance(address,uint256)": {
        "details": "Atomically decreases the allowance granted to `spender` by the caller.     * This is an alternative to {approve} that can be used as a mitigation for problems described in {IERC20-approve}.     * Emits an {Approval} event indicating the updated allowance.     * Requirements:     * - `spender` cannot be the zero address. - `spender` must have allowance for the caller of at least `subtractedValue`."
      },
      "increaseAllowance(address,uint256)": {
        "details": "Atomically increases the allowance granted to `spender` by the caller.     * This is an alternative to {approve} that can be used as a mitigation for problems described in {IERC20-approve}.     * Emits an {Approval} event indicating the updated allowance.     * Requirements:     * - `spender` cannot be the zero address."
      },
      "name()": {
        "details": "Returns the name of the token."
      },
      "owner()": {
        "details": "Returns the address of the current owner."
      },
      "renounceOwnership()": {
        "details": "Leaves the contract without owner. It will not be possible to call `onlyOwner` functions anymore. Can only be called by the current owner.     * NOTE: Renouncing ownership will leave the contract without an owner, thereby removing any functionality that is only available to the owner."
      },
      "symbol()": {
        "details": "Returns the symbol of the token, usually a shorter version of the name."
      },
      "totalSupply()": {
        "details": "See {IERC20-totalSupply}."
      },
      "transfer(address,uint256)": {
        "details": "See {IERC20-transfer}.     * Requirements:     * - `recipient` cannot be the zero address. - the caller must have a balance of at least `amount`."
      },
      "transferFrom(address,address,uint256)": {
        "details": "See {IERC20-transferFrom}.     * Emits an {Approval} event indicating the updated allowance. This is not required by the EIP. See the note at the beginning of {ERC20};     * Requirements: - `sender` and `recipient` cannot be the zero address. - `sender` must have a balance of at least `amount`. - the caller must have allowance for ``sender``'s tokens of at least `amount`."
      },
      "transferOwnership(address)": {
        "details": "Transfers ownership of the contract to a new account (`newOwner`). Can only be called by the current owner."
      }
    }
  },
  "userdoc": {
    "methods": {}
  }
}