{
  "contractName": "ProjectRegistry",
  "abi": [
    {
      "inputs": [
        {
          "internalType": "address",
          "name": "_oracleAddress",
          "type": "address"
        }
      ],
      "stateMutability": "nonpayable",
      "type": "constructor"
    },
    {
      "inputs": [],
      "name": "oracleAddress",
      "outputs": [
        {
          "internalType": "address",
          "name": "",
          "type": "address"
        }
      ],
      "stateMutability": "view",
      "type": "function"
    },
    {
      "inputs": [
        {
          "internalType": "bytes32",
          "name": "",
          "type": "bytes32"
        }
      ],
      "name": "registry",
      "outputs": [
        {
          "internalType": "address",
          "name": "",
          "type": "address"
        }
      ],
      "stateMutability": "view",
      "type": "function"
    },
    {
      "inputs": [
        {
          "internalType": "bytes32",
          "name": "projectHash",
          "type": "bytes32"
        },
        {
          "internalType": "uint256",
          "name": "managerId",
          "type": "uint256"
        }
      ],
      "name": "registerProject",
      "outputs": [],
      "stateMutability": "nonpayable",
      "type": "function"
    }
  ],
  "bytecode": "0x608060405234801561001057600080fd5b506040516137f03803806137f08339818101604052602081101561003357600080fd5b8101908080519060200190929190505050600073ffffffffffffffffffffffffffffffffffffffff168173ffffffffffffffffffffffffffffffffffffffff1614156100ca576040517f08c379a000000000000000000000000000000000000000000000000000000000815260040180806020018281038252603a8152602001806137b6603a913960400191505060405180910390fd5b806000806101000a81548173ffffffffffffffffffffffffffffffffffffffff021916908373ffffffffffffffffffffffffffffffffffffffff1602179055505061369c8061011a6000396000f3fe608060405234801561001057600080fd5b50600436106100415760003560e01c80637ef5029814610046578063a89ae4ba146100b4578063c3321bb0146100fe575b600080fd5b6100726004803603602081101561005c57600080fd5b8101908080359060200190929190505050610136565b604051808273ffffffffffffffffffffffffffffffffffffffff1673ffffffffffffffffffffffffffffffffffffffff16815260200191505060405180910390f35b6100bc610169565b604051808273ffffffffffffffffffffffffffffffffffffffff1673ffffffffffffffffffffffffffffffffffffffff16815260200191505060405180910390f35b6101346004803603604081101561011457600080fd5b81019080803590602001909291908035906020019092919050505061018e565b005b60016020528060005260406000206000915054906101000a900473ffffffffffffffffffffffffffffffffffffffff1681565b6000809054906101000a900473ffffffffffffffffffffffffffffffffffffffff1681565b600073ffffffffffffffffffffffffffffffffffffffff166001600084815260200190815260200160002060009054906101000a900473ffffffffffffffffffffffffffffffffffffffff1673ffffffffffffffffffffffffffffffffffffffff1614610246576040517f08c379a00000000000000000000000000000000000000000000000000000000081526004018080602001828103825260348152602001806136336034913960400191505060405180910390fd5b60008233836000809054906101000a900473ffffffffffffffffffffffffffffffffffffffff1660405161027990610366565b808581526020018473ffffffffffffffffffffffffffffffffffffffff1673ffffffffffffffffffffffffffffffffffffffff1681526020018381526020018273ffffffffffffffffffffffffffffffffffffffff1673ffffffffffffffffffffffffffffffffffffffff168152602001945050505050604051809103906000f08015801561030c573d6000803e3d6000fd5b509050806001600085815260200190815260200160002060006101000a81548173ffffffffffffffffffffffffffffffffffffffff021916908373ffffffffffffffffffffffffffffffffffffffff160217905550505050565b6132bf806103748339019056fe60806040523480156200001157600080fd5b50604051620032bf380380620032bf833981810160405260808110156200003757600080fd5b81019080805190602001909291908051906020019092919080519060200190929190805190602001909291905050506040518060400160405280601881526020017f54657374204d6572676520546f6b656e20436f6f6c6f732000000000000000008152506040518060400160405280600481526020017f544d5443000000000000000000000000000000000000000000000000000000008152508160039080519060200190620000ea9291906200091a565b508060049080519060200190620001039291906200091a565b506012600560006101000a81548160ff021916908360ff16021790555050506000620001346200032e60201b60201c565b905080600560016101000a81548173ffffffffffffffffffffffffffffffffffffffff021916908373ffffffffffffffffffffffffffffffffffffffff1602179055508073ffffffffffffffffffffffffffffffffffffffff16600073ffffffffffffffffffffffffffffffffffffffff167f8be0079c531659141344cd1fd0a4f28419497f9722a3daafe3b4186f6b6457e060405160405180910390a35060008085141562000230576040517f08c379a0000000000000000000000000000000000000000000000000000000008152600401808060200182810382526025815260200180620032686025913960400191505060405180910390fd5b600073ffffffffffffffffffffffffffffffffffffffff168273ffffffffffffffffffffffffffffffffffffffff161415620002b8576040517f08c379a00000000000000000000000000000000000000000000000000000000081526004018080602001828103825260328152602001806200328d6032913960400191505060405180910390fd5b8460078190555081600660006101000a81548173ffffffffffffffffffffffffffffffffffffffff021916908373ffffffffffffffffffffffffffffffffffffffff16021790555062000311846200033660201b60201c565b6200032384846200055160201b60201c565b5050505050620009c9565b600033905090565b620003466200032e60201b60201c565b73ffffffffffffffffffffffffffffffffffffffff16600560019054906101000a900473ffffffffffffffffffffffffffffffffffffffff1673ffffffffffffffffffffffffffffffffffffffff161462000409576040517f08c379a00000000000000000000000000000000000000000000000000000000081526004018080602001828103825260208152602001807f4f776e61626c653a2063616c6c6572206973206e6f7420746865206f776e657281525060200191505060405180910390fd5b600073ffffffffffffffffffffffffffffffffffffffff168173ffffffffffffffffffffffffffffffffffffffff16141562000491576040517f08c379a0000000000000000000000000000000000000000000000000000000008152600401808060200182810382526026815260200180620032426026913960400191505060405180910390fd5b8073ffffffffffffffffffffffffffffffffffffffff16600560019054906101000a900473ffffffffffffffffffffffffffffffffffffffff1673ffffffffffffffffffffffffffffffffffffffff167f8be0079c531659141344cd1fd0a4f28419497f9722a3daafe3b4186f6b6457e060405160405180910390a380600560016101000a81548173ffffffffffffffffffffffffffffffffffffffff021916908373ffffffffffffffffffffffffffffffffffffffff16021790555050565b62000562826200065560201b60201c565b15620005ba576040517f08c379a00000000000000000000000000000000000000000000000000000000081526004018080602001828103825260248152602001806200321e6024913960400191505060405180910390fd5b604051806040016040528060011515815260200182815250600860008473ffffffffffffffffffffffffffffffffffffffff1673ffffffffffffffffffffffffffffffffffffffff16815260200190815260200160002060008201518160000160006101000a81548160ff0219169083151502179055506020820151816001015590505062000651826064620006ae60201b60201c565b5050565b6000600860008373ffffffffffffffffffffffffffffffffffffffff1673ffffffffffffffffffffffffffffffffffffffff16815260200190815260200160002060000160009054906101000a900460ff169050919050565b600073ffffffffffffffffffffffffffffffffffffffff168273ffffffffffffffffffffffffffffffffffffffff16141562000752576040517f08c379a000000000000000000000000000000000000000000000000000000000815260040180806020018281038252601f8152602001807f45524332303a206d696e7420746f20746865207a65726f20616464726573730081525060200191505060405180910390fd5b62000766600083836200088c60201b60201c565b62000782816002546200089160201b62001f821790919060201c565b600281905550620007e0816000808573ffffffffffffffffffffffffffffffffffffffff1673ffffffffffffffffffffffffffffffffffffffff168152602001908152602001600020546200089160201b62001f821790919060201c565b6000808473ffffffffffffffffffffffffffffffffffffffff1673ffffffffffffffffffffffffffffffffffffffff168152602001908152602001600020819055508173ffffffffffffffffffffffffffffffffffffffff16600073ffffffffffffffffffffffffffffffffffffffff167fddf252ad1be2c89b69c2b068fc378daa952ba7f163c4a11628f55a4df523b3ef836040518082815260200191505060405180910390a35050565b505050565b60008082840190508381101562000910576040517f08c379a000000000000000000000000000000000000000000000000000000000815260040180806020018281038252601b8152602001807f536166654d6174683a206164646974696f6e206f766572666c6f77000000000081525060200191505060405180910390fd5b8091505092915050565b828054600181600116156101000203166002900490600052602060002090601f016020900481019282601f106200095d57805160ff19168380011785556200098e565b828001600101855582156200098e579182015b828111156200098d57825182559160200191906001019062000970565b5b5090506200099d9190620009a1565b5090565b620009c691905b80821115620009c2576000816000905550600101620009a8565b5090565b90565b61284580620009d96000396000f3fe608060405234801561001057600080fd5b50600436106101375760003560e01c80637dc0d1d0116100b8578063a230c5241161007c578063a230c52414610603578063a457c2d71461065f578063a9059cbb146106c5578063db006a751461072b578063dd62ed3e14610771578063f2fde38b146107e957610137565b80637dc0d1d0146104365780638c590917146104805780638da5cb5b146104d057806395d89b411461051a57806398041ea31461059d57610137565b8063313ce567116100ff578063313ce5671461032c57806339509351146103505780636c5fc62d146103b657806370a08231146103d4578063715018a61461042c57610137565b806306fdde031461013c57806308ae4b0c146101bf578063095ea7b31461022257806318160ddd1461028857806323b872dd146102a6575b600080fd5b61014461082d565b6040518080602001828103825283818151815260200191508051906020019080838360005b83811015610184578082015181840152602081019050610169565b50505050905090810190601f1680156101b15780820380516001836020036101000a031916815260200191505b509250505060405180910390f35b610201600480360360208110156101d557600080fd5b81019080803573ffffffffffffffffffffffffffffffffffffffff1690602001909291905050506108cf565b60405180831515151581526020018281526020019250505060405180910390f35b61026e6004803603604081101561023857600080fd5b81019080803573ffffffffffffffffffffffffffffffffffffffff16906020019092919080359060200190929190505050610900565b604051808215151515815260200191505060405180910390f35b61029061091e565b6040518082815260200191505060405180910390f35b610312600480360360608110156102bc57600080fd5b81019080803573ffffffffffffffffffffffffffffffffffffffff169060200190929190803573ffffffffffffffffffffffffffffffffffffffff16906020019092919080359060200190929190505050610928565b604051808215151515815260200191505060405180910390f35b610334610a01565b604051808260ff1660ff16815260200191505060405180910390f35b61039c6004803603604081101561036657600080fd5b81019080803573ffffffffffffffffffffffffffffffffffffffff16906020019092919080359060200190929190505050610a18565b604051808215151515815260200191505060405180910390f35b6103be610acb565b6040518082815260200191505060405180910390f35b610416600480360360208110156103ea57600080fd5b81019080803573ffffffffffffffffffffffffffffffffffffffff169060200190929190505050610ad1565b6040518082815260200191505060405180910390f35b610434610b19565b005b61043e610ca4565b604051808273ffffffffffffffffffffffffffffffffffffffff1673ffffffffffffffffffffffffffffffffffffffff16815260200191505060405180910390f35b6104b66004803603604081101561049657600080fd5b810190808035906020019092919080359060200190929190505050610cca565b604051808215151515815260200191505060405180910390f35b6104d86110d4565b604051808273ffffffffffffffffffffffffffffffffffffffff1673ffffffffffffffffffffffffffffffffffffffff16815260200191505060405180910390f35b6105226110fe565b6040518080602001828103825283818151815260200191508051906020019080838360005b83811015610562578082015181840152602081019050610547565b50505050905090810190601f16801561058f5780820380516001836020036101000a031916815260200191505b509250505060405180910390f35b6105e9600480360360408110156105b357600080fd5b81019080803573ffffffffffffffffffffffffffffffffffffffff169060200190929190803590602001909291905050506111a0565b604051808215151515815260200191505060405180910390f35b6106456004803603602081101561061957600080fd5b81019080803573ffffffffffffffffffffffffffffffffffffffff169060200190929190505050611280565b604051808215151515815260200191505060405180910390f35b6106ab6004803603604081101561067557600080fd5b81019080803573ffffffffffffffffffffffffffffffffffffffff169060200190929190803590602001909291905050506112d9565b604051808215151515815260200191505060405180910390f35b610711600480360360408110156106db57600080fd5b81019080803573ffffffffffffffffffffffffffffffffffffffff169060200190929190803590602001909291905050506113a6565b604051808215151515815260200191505060405180910390f35b6107576004803603602081101561074157600080fd5b81019080803590602001909291905050506113c4565b604051808215151515815260200191505060405180910390f35b6107d36004803603604081101561078757600080fd5b81019080803573ffffffffffffffffffffffffffffffffffffffff169060200190929190803573ffffffffffffffffffffffffffffffffffffffff16906020019092919050505061176b565b6040518082815260200191505060405180910390f35b61082b600480360360208110156107ff57600080fd5b81019080803573ffffffffffffffffffffffffffffffffffffffff1690602001909291905050506117f2565b005b606060038054600181600116156101000203166002900480601f0160208091040260200160405190810160405280929190818152602001828054600181600116156101000203166002900480156108c55780601f1061089a576101008083540402835291602001916108c5565b820191906000526020600020905b8154815290600101906020018083116108a857829003601f168201915b5050505050905090565b60086020528060005260406000206000915090508060000160009054906101000a900460ff16908060010154905082565b600061091461090d611a02565b8484611a0a565b6001905092915050565b6000600254905090565b6000610935848484611c01565b6109f684610941611a02565b6109f1856040518060600160405280602881526020016126c560289139600160008b73ffffffffffffffffffffffffffffffffffffffff1673ffffffffffffffffffffffffffffffffffffffff16815260200190815260200160002060006109a7611a02565b73ffffffffffffffffffffffffffffffffffffffff1673ffffffffffffffffffffffffffffffffffffffff16815260200190815260200160002054611ec29092919063ffffffff16565b611a0a565b600190509392505050565b6000600560009054906101000a900460ff16905090565b6000610ac1610a25611a02565b84610abc8560016000610a36611a02565b73ffffffffffffffffffffffffffffffffffffffff1673ffffffffffffffffffffffffffffffffffffffff16815260200190815260200160002060008973ffffffffffffffffffffffffffffffffffffffff1673ffffffffffffffffffffffffffffffffffffffff16815260200190815260200160002054611f8290919063ffffffff16565b611a0a565b6001905092915050565b60075481565b60008060008373ffffffffffffffffffffffffffffffffffffffff1673ffffffffffffffffffffffffffffffffffffffff168152602001908152602001600020549050919050565b610b21611a02565b73ffffffffffffffffffffffffffffffffffffffff16600560019054906101000a900473ffffffffffffffffffffffffffffffffffffffff1673ffffffffffffffffffffffffffffffffffffffff1614610be3576040517f08c379a00000000000000000000000000000000000000000000000000000000081526004018080602001828103825260208152602001807f4f776e61626c653a2063616c6c6572206973206e6f7420746865206f776e657281525060200191505060405180910390fd5b600073ffffffffffffffffffffffffffffffffffffffff16600560019054906101000a900473ffffffffffffffffffffffffffffffffffffffff1673ffffffffffffffffffffffffffffffffffffffff167f8be0079c531659141344cd1fd0a4f28419497f9722a3daafe3b4186f6b6457e060405160405180910390a36000600560016101000a81548173ffffffffffffffffffffffffffffffffffffffff021916908373ffffffffffffffffffffffffffffffffffffffff160217905550565b600660009054906101000a900473ffffffffffffffffffffffffffffffffffffffff1681565b6000610cdc610cd7611a02565b611280565b610d4e576040517f08c379a000000000000000000000000000000000000000000000000000000000815260040180806020018281038252601f8152602001807f50726f6a6563743a2063616c6c6572206973206e6f742061206d656d6265720081525060200191505060405180910390fd5b6000610d58611a02565b9050600660009054906101000a900473ffffffffffffffffffffffffffffffffffffffff1673ffffffffffffffffffffffffffffffffffffffff16633367a853600754866040518363ffffffff1660e01b8152600401808381526020018281526020019250505060206040518083038186803b158015610dd757600080fd5b505afa158015610deb573d6000803e3d6000fd5b505050506040513d6020811015610e0157600080fd5b8101908080519060200190929190505050610e67576040517f08c379a00000000000000000000000000000000000000000000000000000000081526004018080602001828103825260248152602001806125ed6024913960400191505060405180910390fd5b600660009054906101000a900473ffffffffffffffffffffffffffffffffffffffff1673ffffffffffffffffffffffffffffffffffffffff16631381f63460075486600860008673ffffffffffffffffffffffffffffffffffffffff1673ffffffffffffffffffffffffffffffffffffffff168152602001908152602001600020600101546040518463ffffffff1660e01b815260040180848152602001838152602001828152602001935050505060206040518083038186803b158015610f2e57600080fd5b505afa158015610f42573d6000803e3d6000fd5b505050506040513d6020811015610f5857600080fd5b810190808051906020019092919050505015610fbf576040517f08c379a00000000000000000000000000000000000000000000000000000000081526004018080602001828103825260288152602001806127c36028913960400191505060405180910390fd5b610fc9818461200a565b610ff2836009600087815260200190815260200160002060000154611f8290919063ffffffff16565b6009600086815260200190815260200160002060000181905550611072836009600087815260200190815260200160002060010160008473ffffffffffffffffffffffffffffffffffffffff1673ffffffffffffffffffffffffffffffffffffffff16815260200190815260200160002054611f8290919063ffffffff16565b6009600086815260200190815260200160002060010160008373ffffffffffffffffffffffffffffffffffffffff1673ffffffffffffffffffffffffffffffffffffffff16815260200190815260200160002081905550600191505092915050565b6000600560019054906101000a900473ffffffffffffffffffffffffffffffffffffffff16905090565b606060048054600181600116156101000203166002900480601f0160208091040260200160405190810160405280929190818152602001828054600181600116156101000203166002900480156111965780601f1061116b57610100808354040283529160200191611196565b820191906000526020600020905b81548152906001019060200180831161117957829003601f168201915b5050505050905090565b60006111aa611a02565b73ffffffffffffffffffffffffffffffffffffffff16600560019054906101000a900473ffffffffffffffffffffffffffffffffffffffff1673ffffffffffffffffffffffffffffffffffffffff161461126c576040517f08c379a00000000000000000000000000000000000000000000000000000000081526004018080602001828103825260208152602001807f4f776e61626c653a2063616c6c6572206973206e6f7420746865206f776e657281525060200191505060405180910390fd5b61127683836121ce565b6001905092915050565b6000600860008373ffffffffffffffffffffffffffffffffffffffff1673ffffffffffffffffffffffffffffffffffffffff16815260200190815260200160002060000160009054906101000a900460ff169050919050565b600061139c6112e6611a02565b84611397856040518060600160405280602581526020016127eb6025913960016000611310611a02565b73ffffffffffffffffffffffffffffffffffffffff1673ffffffffffffffffffffffffffffffffffffffff16815260200190815260200160002060008a73ffffffffffffffffffffffffffffffffffffffff1673ffffffffffffffffffffffffffffffffffffffff16815260200190815260200160002054611ec29092919063ffffffff16565b611a0a565b6001905092915050565b60006113ba6113b3611a02565b8484611c01565b6001905092915050565b60006113d66113d1611a02565b611280565b611448576040517f08c379a000000000000000000000000000000000000000000000000000000000815260040180806020018281038252601f8152602001807f50726f6a6563743a2063616c6c6572206973206e6f742061206d656d6265720081525060200191505060405180910390fd5b6000611452611a02565b90506000600960008581526020019081526020016000209050600660009054906101000a900473ffffffffffffffffffffffffffffffffffffffff1673ffffffffffffffffffffffffffffffffffffffff16636390605c600754866040518363ffffffff1660e01b8152600401808381526020018281526020019250505060206040518083038186803b1580156114e857600080fd5b505afa1580156114fc573d6000803e3d6000fd5b505050506040513d602081101561151257600080fd5b8101908080519060200190929190505050611578576040517f08c379a00000000000000000000000000000000000000000000000000000000081526004018080602001828103825260248152602001806126ed6024913960400191505060405180910390fd5b600660009054906101000a900473ffffffffffffffffffffffffffffffffffffffff1673ffffffffffffffffffffffffffffffffffffffff16631381f63460075486600860008773ffffffffffffffffffffffffffffffffffffffff1673ffffffffffffffffffffffffffffffffffffffff168152602001908152602001600020600101546040518463ffffffff1660e01b815260040180848152602001838152602001828152602001935050505060206040518083038186803b15801561163f57600080fd5b505afa158015611653573d6000803e3d6000fd5b505050506040513d602081101561166957600080fd5b81019080805190602001909291905050506116cf576040517f08c379a000000000000000000000000000000000000000000000000000000000815260040180806020018281038252602481526020018061279f6024913960400191505060405180910390fd5b6116e582826002016122c090919063ffffffff16565b1561173b576040517f08c379a00000000000000000000000000000000000000000000000000000000081526004018080602001828103825260248152602001806127576024913960400191505060405180910390fd5b61175182826002016122f090919063ffffffff16565b50611760828260000154612320565b600192505050919050565b6000600160008473ffffffffffffffffffffffffffffffffffffffff1673ffffffffffffffffffffffffffffffffffffffff16815260200190815260200160002060008373ffffffffffffffffffffffffffffffffffffffff1673ffffffffffffffffffffffffffffffffffffffff16815260200190815260200160002054905092915050565b6117fa611a02565b73ffffffffffffffffffffffffffffffffffffffff16600560019054906101000a900473ffffffffffffffffffffffffffffffffffffffff1673ffffffffffffffffffffffffffffffffffffffff16146118bc576040517f08c379a00000000000000000000000000000000000000000000000000000000081526004018080602001828103825260208152602001807f4f776e61626c653a2063616c6c6572206973206e6f7420746865206f776e657281525060200191505060405180910390fd5b600073ffffffffffffffffffffffffffffffffffffffff168173ffffffffffffffffffffffffffffffffffffffff161415611942576040517f08c379a00000000000000000000000000000000000000000000000000000000081526004018080602001828103825260268152602001806126576026913960400191505060405180910390fd5b8073ffffffffffffffffffffffffffffffffffffffff16600560019054906101000a900473ffffffffffffffffffffffffffffffffffffffff1673ffffffffffffffffffffffffffffffffffffffff167f8be0079c531659141344cd1fd0a4f28419497f9722a3daafe3b4186f6b6457e060405160405180910390a380600560016101000a81548173ffffffffffffffffffffffffffffffffffffffff021916908373ffffffffffffffffffffffffffffffffffffffff16021790555050565b600033905090565b600073ffffffffffffffffffffffffffffffffffffffff168373ffffffffffffffffffffffffffffffffffffffff161415611a90576040517f08c379a000000000000000000000000000000000000000000000000000000000815260040180806020018281038252602481526020018061277b6024913960400191505060405180910390fd5b600073ffffffffffffffffffffffffffffffffffffffff168273ffffffffffffffffffffffffffffffffffffffff161415611b16576040517f08c379a000000000000000000000000000000000000000000000000000000000815260040180806020018281038252602281526020018061267d6022913960400191505060405180910390fd5b80600160008573ffffffffffffffffffffffffffffffffffffffff1673ffffffffffffffffffffffffffffffffffffffff16815260200190815260200160002060008473ffffffffffffffffffffffffffffffffffffffff1673ffffffffffffffffffffffffffffffffffffffff168152602001908152602001600020819055508173ffffffffffffffffffffffffffffffffffffffff168373ffffffffffffffffffffffffffffffffffffffff167f8c5be1e5ebec7d5bd14f71427d1e84f3dd0314c0f7b2291e5b200ac8c7c3b925836040518082815260200191505060405180910390a3505050565b600073ffffffffffffffffffffffffffffffffffffffff168373ffffffffffffffffffffffffffffffffffffffff161415611c87576040517f08c379a00000000000000000000000000000000000000000000000000000000081526004018080602001828103825260258152602001806127326025913960400191505060405180910390fd5b600073ffffffffffffffffffffffffffffffffffffffff168273ffffffffffffffffffffffffffffffffffffffff161415611d0d576040517f08c379a00000000000000000000000000000000000000000000000000000000081526004018080602001828103825260238152602001806125ca6023913960400191505060405180910390fd5b611d188383836124e7565b611d838160405180606001604052806026815260200161269f602691396000808773ffffffffffffffffffffffffffffffffffffffff1673ffffffffffffffffffffffffffffffffffffffff16815260200190815260200160002054611ec29092919063ffffffff16565b6000808573ffffffffffffffffffffffffffffffffffffffff1673ffffffffffffffffffffffffffffffffffffffff16815260200190815260200160002081905550611e16816000808573ffffffffffffffffffffffffffffffffffffffff1673ffffffffffffffffffffffffffffffffffffffff16815260200190815260200160002054611f8290919063ffffffff16565b6000808473ffffffffffffffffffffffffffffffffffffffff1673ffffffffffffffffffffffffffffffffffffffff168152602001908152602001600020819055508173ffffffffffffffffffffffffffffffffffffffff168373ffffffffffffffffffffffffffffffffffffffff167fddf252ad1be2c89b69c2b068fc378daa952ba7f163c4a11628f55a4df523b3ef836040518082815260200191505060405180910390a3505050565b6000838311158290611f6f576040517f08c379a00000000000000000000000000000000000000000000000000000000081526004018080602001828103825283818151815260200191508051906020019080838360005b83811015611f34578082015181840152602081019050611f19565b50505050905090810190601f168015611f615780820380516001836020036101000a031916815260200191505b509250505060405180910390fd5b5060008385039050809150509392505050565b600080828401905083811015612000576040517f08c379a000000000000000000000000000000000000000000000000000000000815260040180806020018281038252601b8152602001807f536166654d6174683a206164646974696f6e206f766572666c6f77000000000081525060200191505060405180910390fd5b8091505092915050565b600073ffffffffffffffffffffffffffffffffffffffff168273ffffffffffffffffffffffffffffffffffffffff161415612090576040517f08c379a00000000000000000000000000000000000000000000000000000000081526004018080602001828103825260218152602001806127116021913960400191505060405180910390fd5b61209c826000836124e7565b61210781604051806060016040528060228152602001612635602291396000808673ffffffffffffffffffffffffffffffffffffffff1673ffffffffffffffffffffffffffffffffffffffff16815260200190815260200160002054611ec29092919063ffffffff16565b6000808473ffffffffffffffffffffffffffffffffffffffff1673ffffffffffffffffffffffffffffffffffffffff1681526020019081526020016000208190555061215e816002546124ec90919063ffffffff16565b600281905550600073ffffffffffffffffffffffffffffffffffffffff168273ffffffffffffffffffffffffffffffffffffffff167fddf252ad1be2c89b69c2b068fc378daa952ba7f163c4a11628f55a4df523b3ef836040518082815260200191505060405180910390a35050565b6121d782611280565b1561222d576040517f08c379a00000000000000000000000000000000000000000000000000000000081526004018080602001828103825260248152602001806126116024913960400191505060405180910390fd5b604051806040016040528060011515815260200182815250600860008473ffffffffffffffffffffffffffffffffffffffff1673ffffffffffffffffffffffffffffffffffffffff16815260200190815260200160002060008201518160000160006101000a81548160ff021916908315150217905550602082015181600101559050506122bc826064612320565b5050565b60006122e8836000018373ffffffffffffffffffffffffffffffffffffffff1660001b612536565b905092915050565b6000612318836000018373ffffffffffffffffffffffffffffffffffffffff1660001b612559565b905092915050565b600073ffffffffffffffffffffffffffffffffffffffff168273ffffffffffffffffffffffffffffffffffffffff1614156123c3576040517f08c379a000000000000000000000000000000000000000000000000000000000815260040180806020018281038252601f8152602001807f45524332303a206d696e7420746f20746865207a65726f20616464726573730081525060200191505060405180910390fd5b6123cf600083836124e7565b6123e481600254611f8290919063ffffffff16565b60028190555061243b816000808573ffffffffffffffffffffffffffffffffffffffff1673ffffffffffffffffffffffffffffffffffffffff16815260200190815260200160002054611f8290919063ffffffff16565b6000808473ffffffffffffffffffffffffffffffffffffffff1673ffffffffffffffffffffffffffffffffffffffff168152602001908152602001600020819055508173ffffffffffffffffffffffffffffffffffffffff16600073ffffffffffffffffffffffffffffffffffffffff167fddf252ad1be2c89b69c2b068fc378daa952ba7f163c4a11628f55a4df523b3ef836040518082815260200191505060405180910390a35050565b505050565b600061252e83836040518060400160405280601e81526020017f536166654d6174683a207375627472616374696f6e206f766572666c6f770000815250611ec2565b905092915050565b600080836001016000848152602001908152602001600020541415905092915050565b60006125658383612536565b6125be5782600001829080600181540180825580915050600190039060005260206000200160009091909190915055826000018054905083600101600084815260200190815260200160002081905550600190506125c3565b600090505b9291505056fe45524332303a207472616e7366657220746f20746865207a65726f206164647265737350726f6a6563743a206d657267652072657175657374206973206e6f74206f70656e656450726f6a6563743a206163636f756e7420697320616c72656164792061206d656d62657245524332303a206275726e20616d6f756e7420657863656564732062616c616e63654f776e61626c653a206e6577206f776e657220697320746865207a65726f206164647265737345524332303a20617070726f766520746f20746865207a65726f206164647265737345524332303a207472616e7366657220616d6f756e7420657863656564732062616c616e636545524332303a207472616e7366657220616d6f756e74206578636565647320616c6c6f77616e636550726f6a6563743a206d657267652072657175657374206973206e6f74206d657267656445524332303a206275726e2066726f6d20746865207a65726f206164647265737345524332303a207472616e736665722066726f6d20746865207a65726f206164647265737350726f6a6563743a2073656e6465722068617320616c72656164792072656465656d656445524332303a20617070726f76652066726f6d20746865207a65726f206164647265737350726f6a6563743a2073656e646572206973206e6f742061207061727469636970616e7450726f6a6563743a2073656e64657220697320616c72656164792061207061727469636970616e7445524332303a2064656372656173656420616c6c6f77616e63652062656c6f77207a65726fa2646970667358221220792656d38190a5379a760e94005ee0fd9b94582ec759e0059bf7bde2c944b6a164736f6c6343000602003350726f6a6563743a206163636f756e7420697320616c72656164792061206d656d6265724f776e61626c653a206e6577206f776e657220697320746865207a65726f206164647265737350726f6a6563743a2070726f6a656374486173682063616e206e6f7420626520656d70747950726f6a6563743a206f7261636c65416464726573732063616e206e6f7420626520746865207a65726f206164647265737350726f6a65637452656769737472793a2070726f6a6563742068617320616c7265616479206265656e2072656769737465726564a2646970667358221220c28b9310c3d9b5c84aa3c081d879d5dc951b7f3c398fdb9b444cf0e8d15fdf3064736f6c6343000602003350726f6a65637452656769737472793a206f7261636c65416464726573732063616e206e6f7420626520746865207a65726f2061646472657373",
  "source": "pragma solidity ^0.6.2;\n\nimport \"./Project.sol\";\n\ncontract ProjectRegistry {\n    address public oracleAddress;\n    mapping(bytes32 => address) public registry;\n\n    constructor(address _oracleAddress) public {\n        require(_oracleAddress != address(0), \"ProjectRegistry: oracleAddress can not be the zero address\");\n        oracleAddress = _oracleAddress;\n    }\n\n    function registerProject(bytes32 projectHash, uint256 managerId) public {\n        require(registry[projectHash] == address(0), \"ProjectRegistry: project has already been registered\");\n\n        Project newProject = new Project(projectHash, msg.sender, managerId, oracleAddress);\n        registry[projectHash] = address(newProject);\n    }\n}",
  "sourcePath": "/Users/v-g/Documents/personal-projects/mr-project/mr-jam/packages/smart-contracts/contracts/ProjectRegistry.sol",
  "compiler": {
    "name": "solc",
    "version": "0.6.2+commit.bacdbe57.Emscripten.clang"
  },
  "schemaVersion": "3.1.0",
  "updatedAt": "2020-04-26T14:39:33.473Z",
  "devdoc": {
    "methods": {}
  },
  "userdoc": {
    "methods": {}
  }
}