{
  "contractName": "ProjectRegistry",
  "abi": [
    {
      "inputs": [
        {
          "internalType": "address",
          "name": "_oracleAddress",
          "type": "address"
        }
      ],
      "stateMutability": "nonpayable",
      "type": "constructor"
    },
    {
      "inputs": [],
      "name": "oracleAddress",
      "outputs": [
        {
          "internalType": "address",
          "name": "",
          "type": "address"
        }
      ],
      "stateMutability": "view",
      "type": "function",
      "constant": true
    },
    {
      "inputs": [
        {
          "internalType": "bytes32",
          "name": "",
          "type": "bytes32"
        }
      ],
      "name": "registry",
      "outputs": [
        {
          "internalType": "address",
          "name": "",
          "type": "address"
        }
      ],
      "stateMutability": "view",
      "type": "function",
      "constant": true
    },
    {
      "inputs": [
        {
          "internalType": "bytes32",
          "name": "projectHash",
          "type": "bytes32"
        },
        {
          "internalType": "address",
          "name": "managerAccount",
          "type": "address"
        },
        {
          "internalType": "uint256",
          "name": "managerId",
          "type": "uint256"
        },
        {
          "internalType": "address[]",
          "name": "additionalAccounts",
          "type": "address[]"
        },
        {
          "internalType": "uint256[]",
          "name": "additionalIds",
          "type": "uint256[]"
        }
      ],
      "name": "registerProject",
      "outputs": [],
      "stateMutability": "nonpayable",
      "type": "function"
    }
  ],
  "bytecode": "0x608060405234801561001057600080fd5b506040516140ba3803806140ba8339818101604052602081101561003357600080fd5b8101908080519060200190929190505050600073ffffffffffffffffffffffffffffffffffffffff168173ffffffffffffffffffffffffffffffffffffffff1614156100ca576040517f08c379a000000000000000000000000000000000000000000000000000000000815260040180806020018281038252603a815260200180614080603a913960400191505060405180910390fd5b806000806101000a81548173ffffffffffffffffffffffffffffffffffffffff021916908373ffffffffffffffffffffffffffffffffffffffff16021790555050613f668061011a6000396000f3fe60806040523480156200001157600080fd5b5060043610620000465760003560e01c80637ef50298146200004b578063a89ae4ba14620000bc578063f4e163311462000108575b600080fd5b6200007a600480360360208110156200006357600080fd5b810190808035906020019092919050505062000291565b604051808273ffffffffffffffffffffffffffffffffffffffff1673ffffffffffffffffffffffffffffffffffffffff16815260200191505060405180910390f35b620000c6620002c4565b604051808273ffffffffffffffffffffffffffffffffffffffff1673ffffffffffffffffffffffffffffffffffffffff16815260200191505060405180910390f35b6200028f600480360360a08110156200012057600080fd5b8101908080359060200190929190803573ffffffffffffffffffffffffffffffffffffffff16906020019092919080359060200190929190803590602001906401000000008111156200017257600080fd5b8201836020820111156200018557600080fd5b80359060200191846020830284011164010000000083111715620001a857600080fd5b919080806020026020016040519081016040528093929190818152602001838360200280828437600081840152601f19601f820116905080830192505050505050509192919290803590602001906401000000008111156200020957600080fd5b8201836020820111156200021c57600080fd5b803590602001918460208302840111640100000000831117156200023f57600080fd5b919080806020026020016040519081016040528093929190818152602001838360200280828437600081840152601f19601f820116905080830192505050505050509192919290505050620002e9565b005b60016020528060005260406000206000915054906101000a900473ffffffffffffffffffffffffffffffffffffffff1681565b6000809054906101000a900473ffffffffffffffffffffffffffffffffffffffff1681565b600073ffffffffffffffffffffffffffffffffffffffff166001600087815260200190815260200160002060009054906101000a900473ffffffffffffffffffffffffffffffffffffffff1673ffffffffffffffffffffffffffffffffffffffff1614620003a3576040517f08c379a000000000000000000000000000000000000000000000000000000000815260040180806020018281038252603481526020018062003efd6034913960400191505060405180910390fd5b600085858585856000809054906101000a900473ffffffffffffffffffffffffffffffffffffffff16604051620003da906200055f565b808781526020018673ffffffffffffffffffffffffffffffffffffffff1673ffffffffffffffffffffffffffffffffffffffff16815260200185815260200180602001806020018473ffffffffffffffffffffffffffffffffffffffff1673ffffffffffffffffffffffffffffffffffffffff168152602001838103835286818151815260200191508051906020019060200280838360005b838110156200049057808201518184015260208101905062000473565b50505050905001838103825285818151815260200191508051906020019060200280838360005b83811015620004d4578082015181840152602081019050620004b7565b5050505090500198505050505050505050604051809103906000f08015801562000502573d6000803e3d6000fd5b509050806001600088815260200190815260200160002060006101000a81548173ffffffffffffffffffffffffffffffffffffffff021916908373ffffffffffffffffffffffffffffffffffffffff160217905550505050505050565b61398f806200056e8339019056fe60806040523480156200001157600080fd5b506040516200398f3803806200398f833981810160405260c08110156200003757600080fd5b81019080805190602001909291908051906020019092919080519060200190929190805160405193929190846401000000008211156200007657600080fd5b838201915060208201858111156200008d57600080fd5b8251866020820283011164010000000082111715620000ab57600080fd5b8083526020830192505050908051906020019060200280838360005b83811015620000e4578082015181840152602081019050620000c7565b50505050905001604052602001805160405193929190846401000000008211156200010e57600080fd5b838201915060208201858111156200012557600080fd5b82518660208202830111640100000000821117156200014357600080fd5b8083526020830192505050908051906020019060200280838360005b838110156200017c5780820151818401526020810190506200015f565b50505050905001604052602001805190602001909291905050506040518060400160405280601881526020017f54657374204d6572676520546f6b656e20436f6f6c6f732000000000000000008152506040518060400160405280600481526020017f544d54430000000000000000000000000000000000000000000000000000000081525081600390805190602001906200021a92919062000b9b565b5080600490805190602001906200023392919062000b9b565b506012600560006101000a81548160ff021916908360ff16021790555050506000620002646200052760201b60201c565b905080600560016101000a81548173ffffffffffffffffffffffffffffffffffffffff021916908373ffffffffffffffffffffffffffffffffffffffff1602179055508073ffffffffffffffffffffffffffffffffffffffff16600073ffffffffffffffffffffffffffffffffffffffff167f8be0079c531659141344cd1fd0a4f28419497f9722a3daafe3b4186f6b6457e060405160405180910390a35060008087141562000360576040517f08c379a0000000000000000000000000000000000000000000000000000000008152600401808060200182810382526025815260200180620038cd6025913960400191505060405180910390fd5b600073ffffffffffffffffffffffffffffffffffffffff168273ffffffffffffffffffffffffffffffffffffffff161415620003e8576040517f08c379a0000000000000000000000000000000000000000000000000000000008152600401808060200182810382526032815260200180620038f26032913960400191505060405180910390fd5b825184511462000444576040517f08c379a000000000000000000000000000000000000000000000000000000000815260040180806020018281038252603f81526020018062003950603f913960400191505060405180910390fd5b8660078190555081600660006101000a81548173ffffffffffffffffffffffffffffffffffffffff021916908373ffffffffffffffffffffffffffffffffffffffff1602179055506200049d866200052f60201b60201c565b620004af86866200074a60201b60201c565b60005b84518110156200051957620004f6858281518110620004cd57fe5b6020026020010151858381518110620004e257fe5b60200260200101516200074a60201b60201c565b62000511600182620008d660201b620022751790919060201c565b9050620004b2565b505050505050505062000c4a565b600033905090565b6200053f6200052760201b60201c565b73ffffffffffffffffffffffffffffffffffffffff16600560019054906101000a900473ffffffffffffffffffffffffffffffffffffffff1673ffffffffffffffffffffffffffffffffffffffff161462000602576040517f08c379a00000000000000000000000000000000000000000000000000000000081526004018080602001828103825260208152602001807f4f776e61626c653a2063616c6c6572206973206e6f7420746865206f776e657281525060200191505060405180910390fd5b600073ffffffffffffffffffffffffffffffffffffffff168173ffffffffffffffffffffffffffffffffffffffff1614156200068a576040517f08c379a0000000000000000000000000000000000000000000000000000000008152600401808060200182810382526026815260200180620038a76026913960400191505060405180910390fd5b8073ffffffffffffffffffffffffffffffffffffffff16600560019054906101000a900473ffffffffffffffffffffffffffffffffffffffff1673ffffffffffffffffffffffffffffffffffffffff167f8be0079c531659141344cd1fd0a4f28419497f9722a3daafe3b4186f6b6457e060405160405180910390a380600560016101000a81548173ffffffffffffffffffffffffffffffffffffffff021916908373ffffffffffffffffffffffffffffffffffffffff16021790555050565b600073ffffffffffffffffffffffffffffffffffffffff168273ffffffffffffffffffffffffffffffffffffffff161415620007d2576040517f08c379a000000000000000000000000000000000000000000000000000000000815260040180806020018281038252602c81526020018062003924602c913960400191505060405180910390fd5b620007e3826200095f60201b60201c565b156200083b576040517f08c379a0000000000000000000000000000000000000000000000000000000008152600401808060200182810382526024815260200180620038836024913960400191505060405180910390fd5b604051806040016040528060011515815260200182815250600860008473ffffffffffffffffffffffffffffffffffffffff1673ffffffffffffffffffffffffffffffffffffffff16815260200190815260200160002060008201518160000160006101000a81548160ff02191690831515021790555060208201518160010155905050620008d2826064620009b860201b60201c565b5050565b60008082840190508381101562000955576040517f08c379a000000000000000000000000000000000000000000000000000000000815260040180806020018281038252601b8152602001807f536166654d6174683a206164646974696f6e206f766572666c6f77000000000081525060200191505060405180910390fd5b8091505092915050565b6000600860008373ffffffffffffffffffffffffffffffffffffffff1673ffffffffffffffffffffffffffffffffffffffff16815260200190815260200160002060000160009054906101000a900460ff169050919050565b600073ffffffffffffffffffffffffffffffffffffffff168273ffffffffffffffffffffffffffffffffffffffff16141562000a5c576040517f08c379a000000000000000000000000000000000000000000000000000000000815260040180806020018281038252601f8152602001807f45524332303a206d696e7420746f20746865207a65726f20616464726573730081525060200191505060405180910390fd5b62000a706000838362000b9660201b60201c565b62000a8c81600254620008d660201b620022751790919060201c565b60028190555062000aea816000808573ffffffffffffffffffffffffffffffffffffffff1673ffffffffffffffffffffffffffffffffffffffff16815260200190815260200160002054620008d660201b620022751790919060201c565b6000808473ffffffffffffffffffffffffffffffffffffffff1673ffffffffffffffffffffffffffffffffffffffff168152602001908152602001600020819055508173ffffffffffffffffffffffffffffffffffffffff16600073ffffffffffffffffffffffffffffffffffffffff167fddf252ad1be2c89b69c2b068fc378daa952ba7f163c4a11628f55a4df523b3ef836040518082815260200191505060405180910390a35050565b505050565b828054600181600116156101000203166002900490600052602060002090601f016020900481019282601f1062000bde57805160ff191683800117855562000c0f565b8280016001018555821562000c0f579182015b8281111562000c0e57825182559160200191906001019062000bf1565b5b50905062000c1e919062000c22565b5090565b62000c4791905b8082111562000c4357600081600090555060010162000c29565b5090565b90565b612c298062000c5a6000396000f3fe608060405234801561001057600080fd5b50600436106101425760003560e01c80637dc0d1d0116100b8578063a230c5241161007c578063a230c52414610772578063a457c2d7146107ce578063a9059cbb14610834578063db006a751461089a578063dd62ed3e146108e0578063f2fde38b1461095857610142565b80637dc0d1d0146105a55780638c590917146105ef5780638da5cb5b1461063f57806395d89b411461068957806398041ea31461070c57610142565b8063313ce5671161010a578063313ce56714610337578063395093511461035b5780633e72b2bb146103c15780636c5fc62d1461052557806370a0823114610543578063715018a61461059b57610142565b806306fdde031461014757806308ae4b0c146101ca578063095ea7b31461022d57806318160ddd1461029357806323b872dd146102b1575b600080fd5b61014f61099c565b6040518080602001828103825283818151815260200191508051906020019080838360005b8381101561018f578082015181840152602081019050610174565b50505050905090810190601f1680156101bc5780820380516001836020036101000a031916815260200191505b509250505060405180910390f35b61020c600480360360208110156101e057600080fd5b81019080803573ffffffffffffffffffffffffffffffffffffffff169060200190929190505050610a3e565b60405180831515151581526020018281526020019250505060405180910390f35b6102796004803603604081101561024357600080fd5b81019080803573ffffffffffffffffffffffffffffffffffffffff16906020019092919080359060200190929190505050610a6f565b604051808215151515815260200191505060405180910390f35b61029b610a8d565b6040518082815260200191505060405180910390f35b61031d600480360360608110156102c757600080fd5b81019080803573ffffffffffffffffffffffffffffffffffffffff169060200190929190803573ffffffffffffffffffffffffffffffffffffffff16906020019092919080359060200190929190505050610a97565b604051808215151515815260200191505060405180910390f35b61033f610b70565b604051808260ff1660ff16815260200191505060405180910390f35b6103a76004803603604081101561037157600080fd5b81019080803573ffffffffffffffffffffffffffffffffffffffff16906020019092919080359060200190929190505050610b87565b604051808215151515815260200191505060405180910390f35b61050b600480360360408110156103d757600080fd5b81019080803590602001906401000000008111156103f457600080fd5b82018360208201111561040657600080fd5b8035906020019184602083028401116401000000008311171561042857600080fd5b919080806020026020016040519081016040528093929190818152602001838360200280828437600081840152601f19601f8201169050808301925050505050505091929192908035906020019064010000000081111561048857600080fd5b82018360208201111561049a57600080fd5b803590602001918460208302840111640100000000831117156104bc57600080fd5b919080806020026020016040519081016040528093929190818152602001838360200280828437600081840152601f19601f820116905080830192505050505050509192919290505050610c3a565b604051808215151515815260200191505060405180910390f35b61052d610dbe565b6040518082815260200191505060405180910390f35b6105856004803603602081101561055957600080fd5b81019080803573ffffffffffffffffffffffffffffffffffffffff169060200190929190505050610dc4565b6040518082815260200191505060405180910390f35b6105a3610e0c565b005b6105ad610f97565b604051808273ffffffffffffffffffffffffffffffffffffffff1673ffffffffffffffffffffffffffffffffffffffff16815260200191505060405180910390f35b6106256004803603604081101561060557600080fd5b810190808035906020019092919080359060200190929190505050610fbd565b604051808215151515815260200191505060405180910390f35b6106476113c7565b604051808273ffffffffffffffffffffffffffffffffffffffff1673ffffffffffffffffffffffffffffffffffffffff16815260200191505060405180910390f35b6106916113f1565b6040518080602001828103825283818151815260200191508051906020019080838360005b838110156106d15780820151818401526020810190506106b6565b50505050905090810190601f1680156106fe5780820380516001836020036101000a031916815260200191505b509250505060405180910390f35b6107586004803603604081101561072257600080fd5b81019080803573ffffffffffffffffffffffffffffffffffffffff16906020019092919080359060200190929190505050611493565b604051808215151515815260200191505060405180910390f35b6107b46004803603602081101561078857600080fd5b81019080803573ffffffffffffffffffffffffffffffffffffffff169060200190929190505050611573565b604051808215151515815260200191505060405180910390f35b61081a600480360360408110156107e457600080fd5b81019080803573ffffffffffffffffffffffffffffffffffffffff169060200190929190803590602001909291905050506115cc565b604051808215151515815260200191505060405180910390f35b6108806004803603604081101561084a57600080fd5b81019080803573ffffffffffffffffffffffffffffffffffffffff16906020019092919080359060200190929190505050611699565b604051808215151515815260200191505060405180910390f35b6108c6600480360360208110156108b057600080fd5b81019080803590602001909291905050506116b7565b604051808215151515815260200191505060405180910390f35b610942600480360360408110156108f657600080fd5b81019080803573ffffffffffffffffffffffffffffffffffffffff169060200190929190803573ffffffffffffffffffffffffffffffffffffffff169060200190929190505050611a5e565b6040518082815260200191505060405180910390f35b61099a6004803603602081101561096e57600080fd5b81019080803573ffffffffffffffffffffffffffffffffffffffff169060200190929190505050611ae5565b005b606060038054600181600116156101000203166002900480601f016020809104026020016040519081016040528092919081815260200182805460018160011615610100020316600290048015610a345780601f10610a0957610100808354040283529160200191610a34565b820191906000526020600020905b815481529060010190602001808311610a1757829003601f168201915b5050505050905090565b60086020528060005260406000206000915090508060000160009054906101000a900460ff16908060010154905082565b6000610a83610a7c611cf5565b8484611cfd565b6001905092915050565b6000600254905090565b6000610aa4848484611ef4565b610b6584610ab0611cf5565b610b6085604051806060016040528060288152602001612a3e60289139600160008b73ffffffffffffffffffffffffffffffffffffffff1673ffffffffffffffffffffffffffffffffffffffff1681526020019081526020016000206000610b16611cf5565b73ffffffffffffffffffffffffffffffffffffffff1673ffffffffffffffffffffffffffffffffffffffff168152602001908152602001600020546121b59092919063ffffffff16565b611cfd565b600190509392505050565b6000600560009054906101000a900460ff16905090565b6000610c30610b94611cf5565b84610c2b8560016000610ba5611cf5565b73ffffffffffffffffffffffffffffffffffffffff1673ffffffffffffffffffffffffffffffffffffffff16815260200190815260200160002060008973ffffffffffffffffffffffffffffffffffffffff1673ffffffffffffffffffffffffffffffffffffffff1681526020019081526020016000205461227590919063ffffffff16565b611cfd565b6001905092915050565b6000610c44611cf5565b73ffffffffffffffffffffffffffffffffffffffff16600560019054906101000a900473ffffffffffffffffffffffffffffffffffffffff1673ffffffffffffffffffffffffffffffffffffffff1614610d06576040517f08c379a00000000000000000000000000000000000000000000000000000000081526004018080602001828103825260208152602001807f4f776e61626c653a2063616c6c6572206973206e6f7420746865206f776e657281525060200191505060405180910390fd5b8151835114610d60576040517f08c379a000000000000000000000000000000000000000000000000000000000815260040180806020018281038252603f815260200180612b68603f913960400191505060405180910390fd5b60005b8351811015610db757610d9c848281518110610d7b57fe5b6020026020010151848381518110610d8f57fe5b60200260200101516122fd565b610db060018261227590919063ffffffff16565b9050610d63565b5092915050565b60075481565b60008060008373ffffffffffffffffffffffffffffffffffffffff1673ffffffffffffffffffffffffffffffffffffffff168152602001908152602001600020549050919050565b610e14611cf5565b73ffffffffffffffffffffffffffffffffffffffff16600560019054906101000a900473ffffffffffffffffffffffffffffffffffffffff1673ffffffffffffffffffffffffffffffffffffffff1614610ed6576040517f08c379a00000000000000000000000000000000000000000000000000000000081526004018080602001828103825260208152602001807f4f776e61626c653a2063616c6c6572206973206e6f7420746865206f776e657281525060200191505060405180910390fd5b600073ffffffffffffffffffffffffffffffffffffffff16600560019054906101000a900473ffffffffffffffffffffffffffffffffffffffff1673ffffffffffffffffffffffffffffffffffffffff167f8be0079c531659141344cd1fd0a4f28419497f9722a3daafe3b4186f6b6457e060405160405180910390a36000600560016101000a81548173ffffffffffffffffffffffffffffffffffffffff021916908373ffffffffffffffffffffffffffffffffffffffff160217905550565b600660009054906101000a900473ffffffffffffffffffffffffffffffffffffffff1681565b6000610fcf610fca611cf5565b611573565b611041576040517f08c379a000000000000000000000000000000000000000000000000000000000815260040180806020018281038252601f8152602001807f50726f6a6563743a2063616c6c6572206973206e6f742061206d656d6265720081525060200191505060405180910390fd5b600061104b611cf5565b9050600660009054906101000a900473ffffffffffffffffffffffffffffffffffffffff1673ffffffffffffffffffffffffffffffffffffffff16633367a853600754866040518363ffffffff1660e01b8152600401808381526020018281526020019250505060206040518083038186803b1580156110ca57600080fd5b505afa1580156110de573d6000803e3d6000fd5b505050506040513d60208110156110f457600080fd5b810190808051906020019092919050505061115a576040517f08c379a00000000000000000000000000000000000000000000000000000000081526004018080602001828103825260248152602001806129666024913960400191505060405180910390fd5b600660009054906101000a900473ffffffffffffffffffffffffffffffffffffffff1673ffffffffffffffffffffffffffffffffffffffff16631381f63460075486600860008673ffffffffffffffffffffffffffffffffffffffff1673ffffffffffffffffffffffffffffffffffffffff168152602001908152602001600020600101546040518463ffffffff1660e01b815260040180848152602001838152602001828152602001935050505060206040518083038186803b15801561122157600080fd5b505afa158015611235573d6000803e3d6000fd5b505050506040513d602081101561124b57600080fd5b8101908080519060200190929190505050156112b2576040517f08c379a0000000000000000000000000000000000000000000000000000000008152600401808060200182810382526028815260200180612ba76028913960400191505060405180910390fd5b6112bc8184612475565b6112e583600960008781526020019081526020016000206000015461227590919063ffffffff16565b6009600086815260200190815260200160002060000181905550611365836009600087815260200190815260200160002060010160008473ffffffffffffffffffffffffffffffffffffffff1673ffffffffffffffffffffffffffffffffffffffff1681526020019081526020016000205461227590919063ffffffff16565b6009600086815260200190815260200160002060010160008373ffffffffffffffffffffffffffffffffffffffff1673ffffffffffffffffffffffffffffffffffffffff16815260200190815260200160002081905550600191505092915050565b6000600560019054906101000a900473ffffffffffffffffffffffffffffffffffffffff16905090565b606060048054600181600116156101000203166002900480601f0160208091040260200160405190810160405280929190818152602001828054600181600116156101000203166002900480156114895780601f1061145e57610100808354040283529160200191611489565b820191906000526020600020905b81548152906001019060200180831161146c57829003601f168201915b5050505050905090565b600061149d611cf5565b73ffffffffffffffffffffffffffffffffffffffff16600560019054906101000a900473ffffffffffffffffffffffffffffffffffffffff1673ffffffffffffffffffffffffffffffffffffffff161461155f576040517f08c379a00000000000000000000000000000000000000000000000000000000081526004018080602001828103825260208152602001807f4f776e61626c653a2063616c6c6572206973206e6f7420746865206f776e657281525060200191505060405180910390fd5b61156983836122fd565b6001905092915050565b6000600860008373ffffffffffffffffffffffffffffffffffffffff1673ffffffffffffffffffffffffffffffffffffffff16815260200190815260200160002060000160009054906101000a900460ff169050919050565b600061168f6115d9611cf5565b8461168a85604051806060016040528060258152602001612bcf6025913960016000611603611cf5565b73ffffffffffffffffffffffffffffffffffffffff1673ffffffffffffffffffffffffffffffffffffffff16815260200190815260200160002060008a73ffffffffffffffffffffffffffffffffffffffff1673ffffffffffffffffffffffffffffffffffffffff168152602001908152602001600020546121b59092919063ffffffff16565b611cfd565b6001905092915050565b60006116ad6116a6611cf5565b8484611ef4565b6001905092915050565b60006116c96116c4611cf5565b611573565b61173b576040517f08c379a000000000000000000000000000000000000000000000000000000000815260040180806020018281038252601f8152602001807f50726f6a6563743a2063616c6c6572206973206e6f742061206d656d6265720081525060200191505060405180910390fd5b6000611745611cf5565b90506000600960008581526020019081526020016000209050600660009054906101000a900473ffffffffffffffffffffffffffffffffffffffff1673ffffffffffffffffffffffffffffffffffffffff16636390605c600754866040518363ffffffff1660e01b8152600401808381526020018281526020019250505060206040518083038186803b1580156117db57600080fd5b505afa1580156117ef573d6000803e3d6000fd5b505050506040513d602081101561180557600080fd5b810190808051906020019092919050505061186b576040517f08c379a0000000000000000000000000000000000000000000000000000000008152600401808060200182810382526024815260200180612a666024913960400191505060405180910390fd5b600660009054906101000a900473ffffffffffffffffffffffffffffffffffffffff1673ffffffffffffffffffffffffffffffffffffffff16631381f63460075486600860008773ffffffffffffffffffffffffffffffffffffffff1673ffffffffffffffffffffffffffffffffffffffff168152602001908152602001600020600101546040518463ffffffff1660e01b815260040180848152602001838152602001828152602001935050505060206040518083038186803b15801561193257600080fd5b505afa158015611946573d6000803e3d6000fd5b505050506040513d602081101561195c57600080fd5b81019080805190602001909291905050506119c2576040517f08c379a0000000000000000000000000000000000000000000000000000000008152600401808060200182810382526024815260200180612b446024913960400191505060405180910390fd5b6119d8828260020161263990919063ffffffff16565b15611a2e576040517f08c379a0000000000000000000000000000000000000000000000000000000008152600401808060200182810382526024815260200180612ad06024913960400191505060405180910390fd5b611a44828260020161266990919063ffffffff16565b50611a53828260000154612699565b600192505050919050565b6000600160008473ffffffffffffffffffffffffffffffffffffffff1673ffffffffffffffffffffffffffffffffffffffff16815260200190815260200160002060008373ffffffffffffffffffffffffffffffffffffffff1673ffffffffffffffffffffffffffffffffffffffff16815260200190815260200160002054905092915050565b611aed611cf5565b73ffffffffffffffffffffffffffffffffffffffff16600560019054906101000a900473ffffffffffffffffffffffffffffffffffffffff1673ffffffffffffffffffffffffffffffffffffffff1614611baf576040517f08c379a00000000000000000000000000000000000000000000000000000000081526004018080602001828103825260208152602001807f4f776e61626c653a2063616c6c6572206973206e6f7420746865206f776e657281525060200191505060405180910390fd5b600073ffffffffffffffffffffffffffffffffffffffff168173ffffffffffffffffffffffffffffffffffffffff161415611c35576040517f08c379a00000000000000000000000000000000000000000000000000000000081526004018080602001828103825260268152602001806129d06026913960400191505060405180910390fd5b8073ffffffffffffffffffffffffffffffffffffffff16600560019054906101000a900473ffffffffffffffffffffffffffffffffffffffff1673ffffffffffffffffffffffffffffffffffffffff167f8be0079c531659141344cd1fd0a4f28419497f9722a3daafe3b4186f6b6457e060405160405180910390a380600560016101000a81548173ffffffffffffffffffffffffffffffffffffffff021916908373ffffffffffffffffffffffffffffffffffffffff16021790555050565b600033905090565b600073ffffffffffffffffffffffffffffffffffffffff168373ffffffffffffffffffffffffffffffffffffffff161415611d83576040517f08c379a0000000000000000000000000000000000000000000000000000000008152600401808060200182810382526024815260200180612af46024913960400191505060405180910390fd5b600073ffffffffffffffffffffffffffffffffffffffff168273ffffffffffffffffffffffffffffffffffffffff161415611e09576040517f08c379a00000000000000000000000000000000000000000000000000000000081526004018080602001828103825260228152602001806129f66022913960400191505060405180910390fd5b80600160008573ffffffffffffffffffffffffffffffffffffffff1673ffffffffffffffffffffffffffffffffffffffff16815260200190815260200160002060008473ffffffffffffffffffffffffffffffffffffffff1673ffffffffffffffffffffffffffffffffffffffff168152602001908152602001600020819055508173ffffffffffffffffffffffffffffffffffffffff168373ffffffffffffffffffffffffffffffffffffffff167f8c5be1e5ebec7d5bd14f71427d1e84f3dd0314c0f7b2291e5b200ac8c7c3b925836040518082815260200191505060405180910390a3505050565b600073ffffffffffffffffffffffffffffffffffffffff168373ffffffffffffffffffffffffffffffffffffffff161415611f7a576040517f08c379a0000000000000000000000000000000000000000000000000000000008152600401808060200182810382526025815260200180612aab6025913960400191505060405180910390fd5b600073ffffffffffffffffffffffffffffffffffffffff168273ffffffffffffffffffffffffffffffffffffffff161415612000576040517f08c379a00000000000000000000000000000000000000000000000000000000081526004018080602001828103825260238152602001806129436023913960400191505060405180910390fd5b61200b838383612860565b61207681604051806060016040528060268152602001612a18602691396000808773ffffffffffffffffffffffffffffffffffffffff1673ffffffffffffffffffffffffffffffffffffffff168152602001908152602001600020546121b59092919063ffffffff16565b6000808573ffffffffffffffffffffffffffffffffffffffff1673ffffffffffffffffffffffffffffffffffffffff16815260200190815260200160002081905550612109816000808573ffffffffffffffffffffffffffffffffffffffff1673ffffffffffffffffffffffffffffffffffffffff1681526020019081526020016000205461227590919063ffffffff16565b6000808473ffffffffffffffffffffffffffffffffffffffff1673ffffffffffffffffffffffffffffffffffffffff168152602001908152602001600020819055508173ffffffffffffffffffffffffffffffffffffffff168373ffffffffffffffffffffffffffffffffffffffff167fddf252ad1be2c89b69c2b068fc378daa952ba7f163c4a11628f55a4df523b3ef836040518082815260200191505060405180910390a3505050565b6000838311158290612262576040517f08c379a00000000000000000000000000000000000000000000000000000000081526004018080602001828103825283818151815260200191508051906020019080838360005b8381101561222757808201518184015260208101905061220c565b50505050905090810190601f1680156122545780820380516001836020036101000a031916815260200191505b509250505060405180910390fd5b5060008385039050809150509392505050565b6000808284019050838110156122f3576040517f08c379a000000000000000000000000000000000000000000000000000000000815260040180806020018281038252601b8152602001807f536166654d6174683a206164646974696f6e206f766572666c6f77000000000081525060200191505060405180910390fd5b8091505092915050565b600073ffffffffffffffffffffffffffffffffffffffff168273ffffffffffffffffffffffffffffffffffffffff161415612383576040517f08c379a000000000000000000000000000000000000000000000000000000000815260040180806020018281038252602c815260200180612b18602c913960400191505060405180910390fd5b61238c82611573565b156123e2576040517f08c379a000000000000000000000000000000000000000000000000000000000815260040180806020018281038252602481526020018061298a6024913960400191505060405180910390fd5b604051806040016040528060011515815260200182815250600860008473ffffffffffffffffffffffffffffffffffffffff1673ffffffffffffffffffffffffffffffffffffffff16815260200190815260200160002060008201518160000160006101000a81548160ff02191690831515021790555060208201518160010155905050612471826064612699565b5050565b600073ffffffffffffffffffffffffffffffffffffffff168273ffffffffffffffffffffffffffffffffffffffff1614156124fb576040517f08c379a0000000000000000000000000000000000000000000000000000000008152600401808060200182810382526021815260200180612a8a6021913960400191505060405180910390fd5b61250782600083612860565b612572816040518060600160405280602281526020016129ae602291396000808673ffffffffffffffffffffffffffffffffffffffff1673ffffffffffffffffffffffffffffffffffffffff168152602001908152602001600020546121b59092919063ffffffff16565b6000808473ffffffffffffffffffffffffffffffffffffffff1673ffffffffffffffffffffffffffffffffffffffff168152602001908152602001600020819055506125c98160025461286590919063ffffffff16565b600281905550600073ffffffffffffffffffffffffffffffffffffffff168273ffffffffffffffffffffffffffffffffffffffff167fddf252ad1be2c89b69c2b068fc378daa952ba7f163c4a11628f55a4df523b3ef836040518082815260200191505060405180910390a35050565b6000612661836000018373ffffffffffffffffffffffffffffffffffffffff1660001b6128af565b905092915050565b6000612691836000018373ffffffffffffffffffffffffffffffffffffffff1660001b6128d2565b905092915050565b600073ffffffffffffffffffffffffffffffffffffffff168273ffffffffffffffffffffffffffffffffffffffff16141561273c576040517f08c379a000000000000000000000000000000000000000000000000000000000815260040180806020018281038252601f8152602001807f45524332303a206d696e7420746f20746865207a65726f20616464726573730081525060200191505060405180910390fd5b61274860008383612860565b61275d8160025461227590919063ffffffff16565b6002819055506127b4816000808573ffffffffffffffffffffffffffffffffffffffff1673ffffffffffffffffffffffffffffffffffffffff1681526020019081526020016000205461227590919063ffffffff16565b6000808473ffffffffffffffffffffffffffffffffffffffff1673ffffffffffffffffffffffffffffffffffffffff168152602001908152602001600020819055508173ffffffffffffffffffffffffffffffffffffffff16600073ffffffffffffffffffffffffffffffffffffffff167fddf252ad1be2c89b69c2b068fc378daa952ba7f163c4a11628f55a4df523b3ef836040518082815260200191505060405180910390a35050565b505050565b60006128a783836040518060400160405280601e81526020017f536166654d6174683a207375627472616374696f6e206f766572666c6f7700008152506121b5565b905092915050565b600080836001016000848152602001908152602001600020541415905092915050565b60006128de83836128af565b61293757826000018290806001815401808255809150506001900390600052602060002001600090919091909150558260000180549050836001016000848152602001908152602001600020819055506001905061293c565b600090505b9291505056fe45524332303a207472616e7366657220746f20746865207a65726f206164647265737350726f6a6563743a206d657267652072657175657374206973206e6f74206f70656e656450726f6a6563743a206163636f756e7420697320616c72656164792061206d656d62657245524332303a206275726e20616d6f756e7420657863656564732062616c616e63654f776e61626c653a206e6577206f776e657220697320746865207a65726f206164647265737345524332303a20617070726f766520746f20746865207a65726f206164647265737345524332303a207472616e7366657220616d6f756e7420657863656564732062616c616e636545524332303a207472616e7366657220616d6f756e74206578636565647320616c6c6f77616e636550726f6a6563743a206d657267652072657175657374206973206e6f74206d657267656445524332303a206275726e2066726f6d20746865207a65726f206164647265737345524332303a207472616e736665722066726f6d20746865207a65726f206164647265737350726f6a6563743a2073656e6465722068617320616c72656164792072656465656d656445524332303a20617070726f76652066726f6d20746865207a65726f206164647265737350726f6a6563743a206163636f756e742063616e206e6f7420626520746865207a65726f206164647265737350726f6a6563743a2073656e646572206973206e6f742061207061727469636970616e7450726f6a6563743a206164646974696f6e616c206163636f756e747320616e6420696473206d757374206265206f66207468652073616d65206c656e67746850726f6a6563743a2073656e64657220697320616c72656164792061207061727469636970616e7445524332303a2064656372656173656420616c6c6f77616e63652062656c6f77207a65726fa26469706673582212200936118698b28a98f83fdcf15f8fde4228c6824025d8a87d58759c92be66c16f64736f6c6343000602003350726f6a6563743a206163636f756e7420697320616c72656164792061206d656d6265724f776e61626c653a206e6577206f776e657220697320746865207a65726f206164647265737350726f6a6563743a2070726f6a656374486173682063616e206e6f7420626520656d70747950726f6a6563743a206f7261636c65416464726573732063616e206e6f7420626520746865207a65726f206164647265737350726f6a6563743a206163636f756e742063616e206e6f7420626520746865207a65726f206164647265737350726f6a6563743a206164646974696f6e616c206163636f756e747320616e6420696473206d757374206265206f66207468652073616d65206c656e67746850726f6a65637452656769737472793a2070726f6a6563742068617320616c7265616479206265656e2072656769737465726564a26469706673582212206edff8933d0acc47cc08a2a17247f363cf235d8ef38b74dc8dc035acb66872e364736f6c6343000602003350726f6a65637452656769737472793a206f7261636c65416464726573732063616e206e6f7420626520746865207a65726f2061646472657373",
  "source": "pragma solidity ^0.6.2;\n\nimport \"./Project.sol\";\n\ncontract ProjectRegistry {\n    address public oracleAddress;\n    mapping(bytes32 => address) public registry;\n\n    constructor(address _oracleAddress) public {\n        require(_oracleAddress != address(0), \"ProjectRegistry: oracleAddress can not be the zero address\");\n        oracleAddress = _oracleAddress;\n    }\n\n    function registerProject(\n        bytes32 projectHash,\n        address managerAccount,\n        uint256 managerId,\n        address[] memory additionalAccounts,\n        uint256[] memory additionalIds\n    ) public {\n        require(registry[projectHash] == address(0), \"ProjectRegistry: project has already been registered\");\n\n        Project newProject = new Project(projectHash, managerAccount, managerId, additionalAccounts, additionalIds, oracleAddress);\n        registry[projectHash] = address(newProject);\n    }\n}",
  "sourcePath": "/Users/v-g/Documents/personal-projects/mr-project/mr-jam/packages/smart-contracts/contracts/ProjectRegistry.sol",
  "compiler": {
    "name": "solc",
    "version": "0.6.2+commit.bacdbe57.Emscripten.clang"
  },
  "schemaVersion": "3.1.0",
  "updatedAt": "2020-05-17T13:42:29.542Z",
  "networkType": "ethereum",
  "devdoc": {
    "methods": {}
  },
  "userdoc": {
    "methods": {}
  }
}