{
  "contractName": "Project",
  "abi": [
    {
      "inputs": [
        {
          "internalType": "bytes32",
          "name": "_projectHash",
          "type": "bytes32"
        },
        {
          "internalType": "address",
          "name": "managerAccount",
          "type": "address"
        },
        {
          "internalType": "uint256",
          "name": "managerId",
          "type": "uint256"
        },
        {
          "internalType": "address[]",
          "name": "additionalAccounts",
          "type": "address[]"
        },
        {
          "internalType": "uint256[]",
          "name": "additionalIds",
          "type": "uint256[]"
        },
        {
          "internalType": "address",
          "name": "_oracleAddress",
          "type": "address"
        }
      ],
      "stateMutability": "nonpayable",
      "type": "constructor"
    },
    {
      "anonymous": false,
      "inputs": [
        {
          "indexed": true,
          "internalType": "address",
          "name": "owner",
          "type": "address"
        },
        {
          "indexed": true,
          "internalType": "address",
          "name": "spender",
          "type": "address"
        },
        {
          "indexed": false,
          "internalType": "uint256",
          "name": "value",
          "type": "uint256"
        }
      ],
      "name": "Approval",
      "type": "event"
    },
    {
      "anonymous": false,
      "inputs": [
        {
          "indexed": true,
          "internalType": "address",
          "name": "previousOwner",
          "type": "address"
        },
        {
          "indexed": true,
          "internalType": "address",
          "name": "newOwner",
          "type": "address"
        }
      ],
      "name": "OwnershipTransferred",
      "type": "event"
    },
    {
      "anonymous": false,
      "inputs": [
        {
          "indexed": true,
          "internalType": "address",
          "name": "from",
          "type": "address"
        },
        {
          "indexed": true,
          "internalType": "address",
          "name": "to",
          "type": "address"
        },
        {
          "indexed": false,
          "internalType": "uint256",
          "name": "value",
          "type": "uint256"
        }
      ],
      "name": "Transfer",
      "type": "event"
    },
    {
      "inputs": [
        {
          "internalType": "address",
          "name": "owner",
          "type": "address"
        },
        {
          "internalType": "address",
          "name": "spender",
          "type": "address"
        }
      ],
      "name": "allowance",
      "outputs": [
        {
          "internalType": "uint256",
          "name": "",
          "type": "uint256"
        }
      ],
      "stateMutability": "view",
      "type": "function"
    },
    {
      "inputs": [
        {
          "internalType": "address",
          "name": "spender",
          "type": "address"
        },
        {
          "internalType": "uint256",
          "name": "amount",
          "type": "uint256"
        }
      ],
      "name": "approve",
      "outputs": [
        {
          "internalType": "bool",
          "name": "",
          "type": "bool"
        }
      ],
      "stateMutability": "nonpayable",
      "type": "function"
    },
    {
      "inputs": [
        {
          "internalType": "address",
          "name": "account",
          "type": "address"
        }
      ],
      "name": "balanceOf",
      "outputs": [
        {
          "internalType": "uint256",
          "name": "",
          "type": "uint256"
        }
      ],
      "stateMutability": "view",
      "type": "function"
    },
    {
      "inputs": [],
      "name": "decimals",
      "outputs": [
        {
          "internalType": "uint8",
          "name": "",
          "type": "uint8"
        }
      ],
      "stateMutability": "view",
      "type": "function"
    },
    {
      "inputs": [
        {
          "internalType": "address",
          "name": "spender",
          "type": "address"
        },
        {
          "internalType": "uint256",
          "name": "subtractedValue",
          "type": "uint256"
        }
      ],
      "name": "decreaseAllowance",
      "outputs": [
        {
          "internalType": "bool",
          "name": "",
          "type": "bool"
        }
      ],
      "stateMutability": "nonpayable",
      "type": "function"
    },
    {
      "inputs": [
        {
          "internalType": "address",
          "name": "spender",
          "type": "address"
        },
        {
          "internalType": "uint256",
          "name": "addedValue",
          "type": "uint256"
        }
      ],
      "name": "increaseAllowance",
      "outputs": [
        {
          "internalType": "bool",
          "name": "",
          "type": "bool"
        }
      ],
      "stateMutability": "nonpayable",
      "type": "function"
    },
    {
      "inputs": [
        {
          "internalType": "address",
          "name": "",
          "type": "address"
        }
      ],
      "name": "members",
      "outputs": [
        {
          "internalType": "bool",
          "name": "membership",
          "type": "bool"
        },
        {
          "internalType": "uint256",
          "name": "id",
          "type": "uint256"
        }
      ],
      "stateMutability": "view",
      "type": "function"
    },
    {
      "inputs": [],
      "name": "name",
      "outputs": [
        {
          "internalType": "string",
          "name": "",
          "type": "string"
        }
      ],
      "stateMutability": "view",
      "type": "function"
    },
    {
      "inputs": [],
      "name": "oracle",
      "outputs": [
        {
          "internalType": "contract Oracle",
          "name": "",
          "type": "address"
        }
      ],
      "stateMutability": "view",
      "type": "function"
    },
    {
      "inputs": [],
      "name": "owner",
      "outputs": [
        {
          "internalType": "address",
          "name": "",
          "type": "address"
        }
      ],
      "stateMutability": "view",
      "type": "function"
    },
    {
      "inputs": [],
      "name": "projectHash",
      "outputs": [
        {
          "internalType": "bytes32",
          "name": "",
          "type": "bytes32"
        }
      ],
      "stateMutability": "view",
      "type": "function"
    },
    {
      "inputs": [],
      "name": "renounceOwnership",
      "outputs": [],
      "stateMutability": "nonpayable",
      "type": "function"
    },
    {
      "inputs": [],
      "name": "symbol",
      "outputs": [
        {
          "internalType": "string",
          "name": "",
          "type": "string"
        }
      ],
      "stateMutability": "view",
      "type": "function"
    },
    {
      "inputs": [],
      "name": "totalSupply",
      "outputs": [
        {
          "internalType": "uint256",
          "name": "",
          "type": "uint256"
        }
      ],
      "stateMutability": "view",
      "type": "function"
    },
    {
      "inputs": [
        {
          "internalType": "address",
          "name": "recipient",
          "type": "address"
        },
        {
          "internalType": "uint256",
          "name": "amount",
          "type": "uint256"
        }
      ],
      "name": "transfer",
      "outputs": [
        {
          "internalType": "bool",
          "name": "",
          "type": "bool"
        }
      ],
      "stateMutability": "nonpayable",
      "type": "function"
    },
    {
      "inputs": [
        {
          "internalType": "address",
          "name": "sender",
          "type": "address"
        },
        {
          "internalType": "address",
          "name": "recipient",
          "type": "address"
        },
        {
          "internalType": "uint256",
          "name": "amount",
          "type": "uint256"
        }
      ],
      "name": "transferFrom",
      "outputs": [
        {
          "internalType": "bool",
          "name": "",
          "type": "bool"
        }
      ],
      "stateMutability": "nonpayable",
      "type": "function"
    },
    {
      "inputs": [
        {
          "internalType": "address",
          "name": "newOwner",
          "type": "address"
        }
      ],
      "name": "transferOwnership",
      "outputs": [],
      "stateMutability": "nonpayable",
      "type": "function"
    },
    {
      "inputs": [
        {
          "internalType": "address",
          "name": "account",
          "type": "address"
        },
        {
          "internalType": "uint256",
          "name": "id",
          "type": "uint256"
        }
      ],
      "name": "addMember",
      "outputs": [
        {
          "internalType": "bool",
          "name": "",
          "type": "bool"
        }
      ],
      "stateMutability": "nonpayable",
      "type": "function"
    },
    {
      "inputs": [
        {
          "internalType": "uint256",
          "name": "mrId",
          "type": "uint256"
        },
        {
          "internalType": "uint256",
          "name": "amount",
          "type": "uint256"
        }
      ],
      "name": "contribute",
      "outputs": [
        {
          "internalType": "bool",
          "name": "",
          "type": "bool"
        }
      ],
      "stateMutability": "nonpayable",
      "type": "function"
    },
    {
      "inputs": [
        {
          "internalType": "uint256",
          "name": "mrId",
          "type": "uint256"
        }
      ],
      "name": "redeem",
      "outputs": [
        {
          "internalType": "bool",
          "name": "",
          "type": "bool"
        }
      ],
      "stateMutability": "nonpayable",
      "type": "function"
    },
    {
      "inputs": [
        {
          "internalType": "address",
          "name": "account",
          "type": "address"
        }
      ],
      "name": "isMember",
      "outputs": [
        {
          "internalType": "bool",
          "name": "",
          "type": "bool"
        }
      ],
      "stateMutability": "view",
      "type": "function"
    }
  ],
  "bytecode": "0x60806040523480156200001157600080fd5b506040516200365d3803806200365d833981810160405260c08110156200003757600080fd5b81019080805190602001909291908051906020019092919080519060200190929190805160405193929190846401000000008211156200007657600080fd5b838201915060208201858111156200008d57600080fd5b8251866020820283011164010000000082111715620000ab57600080fd5b8083526020830192505050908051906020019060200280838360005b83811015620000e4578082015181840152602081019050620000c7565b50505050905001604052602001805160405193929190846401000000008211156200010e57600080fd5b838201915060208201858111156200012557600080fd5b82518660208202830111640100000000821117156200014357600080fd5b8083526020830192505050908051906020019060200280838360005b838110156200017c5780820151818401526020810190506200015f565b50505050905001604052602001805190602001909291905050506040518060400160405280601881526020017f54657374204d6572676520546f6b656e20436f6f6c6f732000000000000000008152506040518060400160405280600481526020017f544d54430000000000000000000000000000000000000000000000000000000081525081600390805190602001906200021a92919062000b9b565b5080600490805190602001906200023392919062000b9b565b506012600560006101000a81548160ff021916908360ff16021790555050506000620002646200052760201b60201c565b905080600560016101000a81548173ffffffffffffffffffffffffffffffffffffffff021916908373ffffffffffffffffffffffffffffffffffffffff1602179055508073ffffffffffffffffffffffffffffffffffffffff16600073ffffffffffffffffffffffffffffffffffffffff167f8be0079c531659141344cd1fd0a4f28419497f9722a3daafe3b4186f6b6457e060405160405180910390a35060008087141562000360576040517f08c379a00000000000000000000000000000000000000000000000000000000081526004018080602001828103825260258152602001806200359b6025913960400191505060405180910390fd5b600073ffffffffffffffffffffffffffffffffffffffff168273ffffffffffffffffffffffffffffffffffffffff161415620003e8576040517f08c379a0000000000000000000000000000000000000000000000000000000008152600401808060200182810382526032815260200180620035c06032913960400191505060405180910390fd5b825184511462000444576040517f08c379a000000000000000000000000000000000000000000000000000000000815260040180806020018281038252603f8152602001806200361e603f913960400191505060405180910390fd5b8660078190555081600660006101000a81548173ffffffffffffffffffffffffffffffffffffffff021916908373ffffffffffffffffffffffffffffffffffffffff1602179055506200049d866200052f60201b60201c565b620004af86866200074a60201b60201c565b60005b84518110156200051957620004f6858281518110620004cd57fe5b6020026020010151858381518110620004e257fe5b60200260200101516200074a60201b60201c565b62000511600182620008d660201b62001f821790919060201c565b9050620004b2565b505050505050505062000c4a565b600033905090565b6200053f6200052760201b60201c565b73ffffffffffffffffffffffffffffffffffffffff16600560019054906101000a900473ffffffffffffffffffffffffffffffffffffffff1673ffffffffffffffffffffffffffffffffffffffff161462000602576040517f08c379a00000000000000000000000000000000000000000000000000000000081526004018080602001828103825260208152602001807f4f776e61626c653a2063616c6c6572206973206e6f7420746865206f776e657281525060200191505060405180910390fd5b600073ffffffffffffffffffffffffffffffffffffffff168173ffffffffffffffffffffffffffffffffffffffff1614156200068a576040517f08c379a0000000000000000000000000000000000000000000000000000000008152600401808060200182810382526026815260200180620035756026913960400191505060405180910390fd5b8073ffffffffffffffffffffffffffffffffffffffff16600560019054906101000a900473ffffffffffffffffffffffffffffffffffffffff1673ffffffffffffffffffffffffffffffffffffffff167f8be0079c531659141344cd1fd0a4f28419497f9722a3daafe3b4186f6b6457e060405160405180910390a380600560016101000a81548173ffffffffffffffffffffffffffffffffffffffff021916908373ffffffffffffffffffffffffffffffffffffffff16021790555050565b600073ffffffffffffffffffffffffffffffffffffffff168273ffffffffffffffffffffffffffffffffffffffff161415620007d2576040517f08c379a000000000000000000000000000000000000000000000000000000000815260040180806020018281038252602c815260200180620035f2602c913960400191505060405180910390fd5b620007e3826200095f60201b60201c565b156200083b576040517f08c379a0000000000000000000000000000000000000000000000000000000008152600401808060200182810382526024815260200180620035516024913960400191505060405180910390fd5b604051806040016040528060011515815260200182815250600860008473ffffffffffffffffffffffffffffffffffffffff1673ffffffffffffffffffffffffffffffffffffffff16815260200190815260200160002060008201518160000160006101000a81548160ff02191690831515021790555060208201518160010155905050620008d2826064620009b860201b60201c565b5050565b60008082840190508381101562000955576040517f08c379a000000000000000000000000000000000000000000000000000000000815260040180806020018281038252601b8152602001807f536166654d6174683a206164646974696f6e206f766572666c6f77000000000081525060200191505060405180910390fd5b8091505092915050565b6000600860008373ffffffffffffffffffffffffffffffffffffffff1673ffffffffffffffffffffffffffffffffffffffff16815260200190815260200160002060000160009054906101000a900460ff169050919050565b600073ffffffffffffffffffffffffffffffffffffffff168273ffffffffffffffffffffffffffffffffffffffff16141562000a5c576040517f08c379a000000000000000000000000000000000000000000000000000000000815260040180806020018281038252601f8152602001807f45524332303a206d696e7420746f20746865207a65726f20616464726573730081525060200191505060405180910390fd5b62000a706000838362000b9660201b60201c565b62000a8c81600254620008d660201b62001f821790919060201c565b60028190555062000aea816000808573ffffffffffffffffffffffffffffffffffffffff1673ffffffffffffffffffffffffffffffffffffffff16815260200190815260200160002054620008d660201b62001f821790919060201c565b6000808473ffffffffffffffffffffffffffffffffffffffff1673ffffffffffffffffffffffffffffffffffffffff168152602001908152602001600020819055508173ffffffffffffffffffffffffffffffffffffffff16600073ffffffffffffffffffffffffffffffffffffffff167fddf252ad1be2c89b69c2b068fc378daa952ba7f163c4a11628f55a4df523b3ef836040518082815260200191505060405180910390a35050565b505050565b828054600181600116156101000203166002900490600052602060002090601f016020900481019282601f1062000bde57805160ff191683800117855562000c0f565b8280016001018555821562000c0f579182015b8281111562000c0e57825182559160200191906001019062000bf1565b5b50905062000c1e919062000c22565b5090565b62000c4791905b8082111562000c4357600081600090555060010162000c29565b5090565b90565b6128f78062000c5a6000396000f3fe608060405234801561001057600080fd5b50600436106101375760003560e01c80637dc0d1d0116100b8578063a230c5241161007c578063a230c52414610603578063a457c2d71461065f578063a9059cbb146106c5578063db006a751461072b578063dd62ed3e14610771578063f2fde38b146107e957610137565b80637dc0d1d0146104365780638c590917146104805780638da5cb5b146104d057806395d89b411461051a57806398041ea31461059d57610137565b8063313ce567116100ff578063313ce5671461032c57806339509351146103505780636c5fc62d146103b657806370a08231146103d4578063715018a61461042c57610137565b806306fdde031461013c57806308ae4b0c146101bf578063095ea7b31461022257806318160ddd1461028857806323b872dd146102a6575b600080fd5b61014461082d565b6040518080602001828103825283818151815260200191508051906020019080838360005b83811015610184578082015181840152602081019050610169565b50505050905090810190601f1680156101b15780820380516001836020036101000a031916815260200191505b509250505060405180910390f35b610201600480360360208110156101d557600080fd5b81019080803573ffffffffffffffffffffffffffffffffffffffff1690602001909291905050506108cf565b60405180831515151581526020018281526020019250505060405180910390f35b61026e6004803603604081101561023857600080fd5b81019080803573ffffffffffffffffffffffffffffffffffffffff16906020019092919080359060200190929190505050610900565b604051808215151515815260200191505060405180910390f35b61029061091e565b6040518082815260200191505060405180910390f35b610312600480360360608110156102bc57600080fd5b81019080803573ffffffffffffffffffffffffffffffffffffffff169060200190929190803573ffffffffffffffffffffffffffffffffffffffff16906020019092919080359060200190929190505050610928565b604051808215151515815260200191505060405180910390f35b610334610a01565b604051808260ff1660ff16815260200191505060405180910390f35b61039c6004803603604081101561036657600080fd5b81019080803573ffffffffffffffffffffffffffffffffffffffff16906020019092919080359060200190929190505050610a18565b604051808215151515815260200191505060405180910390f35b6103be610acb565b6040518082815260200191505060405180910390f35b610416600480360360208110156103ea57600080fd5b81019080803573ffffffffffffffffffffffffffffffffffffffff169060200190929190505050610ad1565b6040518082815260200191505060405180910390f35b610434610b19565b005b61043e610ca4565b604051808273ffffffffffffffffffffffffffffffffffffffff1673ffffffffffffffffffffffffffffffffffffffff16815260200191505060405180910390f35b6104b66004803603604081101561049657600080fd5b810190808035906020019092919080359060200190929190505050610cca565b604051808215151515815260200191505060405180910390f35b6104d86110d4565b604051808273ffffffffffffffffffffffffffffffffffffffff1673ffffffffffffffffffffffffffffffffffffffff16815260200191505060405180910390f35b6105226110fe565b6040518080602001828103825283818151815260200191508051906020019080838360005b83811015610562578082015181840152602081019050610547565b50505050905090810190601f16801561058f5780820380516001836020036101000a031916815260200191505b509250505060405180910390f35b6105e9600480360360408110156105b357600080fd5b81019080803573ffffffffffffffffffffffffffffffffffffffff169060200190929190803590602001909291905050506111a0565b604051808215151515815260200191505060405180910390f35b6106456004803603602081101561061957600080fd5b81019080803573ffffffffffffffffffffffffffffffffffffffff169060200190929190505050611280565b604051808215151515815260200191505060405180910390f35b6106ab6004803603604081101561067557600080fd5b81019080803573ffffffffffffffffffffffffffffffffffffffff169060200190929190803590602001909291905050506112d9565b604051808215151515815260200191505060405180910390f35b610711600480360360408110156106db57600080fd5b81019080803573ffffffffffffffffffffffffffffffffffffffff169060200190929190803590602001909291905050506113a6565b604051808215151515815260200191505060405180910390f35b6107576004803603602081101561074157600080fd5b81019080803590602001909291905050506113c4565b604051808215151515815260200191505060405180910390f35b6107d36004803603604081101561078757600080fd5b81019080803573ffffffffffffffffffffffffffffffffffffffff169060200190929190803573ffffffffffffffffffffffffffffffffffffffff16906020019092919050505061176b565b6040518082815260200191505060405180910390f35b61082b600480360360208110156107ff57600080fd5b81019080803573ffffffffffffffffffffffffffffffffffffffff1690602001909291905050506117f2565b005b606060038054600181600116156101000203166002900480601f0160208091040260200160405190810160405280929190818152602001828054600181600116156101000203166002900480156108c55780601f1061089a576101008083540402835291602001916108c5565b820191906000526020600020905b8154815290600101906020018083116108a857829003601f168201915b5050505050905090565b60086020528060005260406000206000915090508060000160009054906101000a900460ff16908060010154905082565b600061091461090d611a02565b8484611a0a565b6001905092915050565b6000600254905090565b6000610935848484611c01565b6109f684610941611a02565b6109f18560405180606001604052806028815260200161274b60289139600160008b73ffffffffffffffffffffffffffffffffffffffff1673ffffffffffffffffffffffffffffffffffffffff16815260200190815260200160002060006109a7611a02565b73ffffffffffffffffffffffffffffffffffffffff1673ffffffffffffffffffffffffffffffffffffffff16815260200190815260200160002054611ec29092919063ffffffff16565b611a0a565b600190509392505050565b6000600560009054906101000a900460ff16905090565b6000610ac1610a25611a02565b84610abc8560016000610a36611a02565b73ffffffffffffffffffffffffffffffffffffffff1673ffffffffffffffffffffffffffffffffffffffff16815260200190815260200160002060008973ffffffffffffffffffffffffffffffffffffffff1673ffffffffffffffffffffffffffffffffffffffff16815260200190815260200160002054611f8290919063ffffffff16565b611a0a565b6001905092915050565b60075481565b60008060008373ffffffffffffffffffffffffffffffffffffffff1673ffffffffffffffffffffffffffffffffffffffff168152602001908152602001600020549050919050565b610b21611a02565b73ffffffffffffffffffffffffffffffffffffffff16600560019054906101000a900473ffffffffffffffffffffffffffffffffffffffff1673ffffffffffffffffffffffffffffffffffffffff1614610be3576040517f08c379a00000000000000000000000000000000000000000000000000000000081526004018080602001828103825260208152602001807f4f776e61626c653a2063616c6c6572206973206e6f7420746865206f776e657281525060200191505060405180910390fd5b600073ffffffffffffffffffffffffffffffffffffffff16600560019054906101000a900473ffffffffffffffffffffffffffffffffffffffff1673ffffffffffffffffffffffffffffffffffffffff167f8be0079c531659141344cd1fd0a4f28419497f9722a3daafe3b4186f6b6457e060405160405180910390a36000600560016101000a81548173ffffffffffffffffffffffffffffffffffffffff021916908373ffffffffffffffffffffffffffffffffffffffff160217905550565b600660009054906101000a900473ffffffffffffffffffffffffffffffffffffffff1681565b6000610cdc610cd7611a02565b611280565b610d4e576040517f08c379a000000000000000000000000000000000000000000000000000000000815260040180806020018281038252601f8152602001807f50726f6a6563743a2063616c6c6572206973206e6f742061206d656d6265720081525060200191505060405180910390fd5b6000610d58611a02565b9050600660009054906101000a900473ffffffffffffffffffffffffffffffffffffffff1673ffffffffffffffffffffffffffffffffffffffff16633367a853600754866040518363ffffffff1660e01b8152600401808381526020018281526020019250505060206040518083038186803b158015610dd757600080fd5b505afa158015610deb573d6000803e3d6000fd5b505050506040513d6020811015610e0157600080fd5b8101908080519060200190929190505050610e67576040517f08c379a00000000000000000000000000000000000000000000000000000000081526004018080602001828103825260248152602001806126736024913960400191505060405180910390fd5b600660009054906101000a900473ffffffffffffffffffffffffffffffffffffffff1673ffffffffffffffffffffffffffffffffffffffff16631381f63460075486600860008673ffffffffffffffffffffffffffffffffffffffff1673ffffffffffffffffffffffffffffffffffffffff168152602001908152602001600020600101546040518463ffffffff1660e01b815260040180848152602001838152602001828152602001935050505060206040518083038186803b158015610f2e57600080fd5b505afa158015610f42573d6000803e3d6000fd5b505050506040513d6020811015610f5857600080fd5b810190808051906020019092919050505015610fbf576040517f08c379a00000000000000000000000000000000000000000000000000000000081526004018080602001828103825260288152602001806128756028913960400191505060405180910390fd5b610fc9818461200a565b610ff2836009600087815260200190815260200160002060000154611f8290919063ffffffff16565b6009600086815260200190815260200160002060000181905550611072836009600087815260200190815260200160002060010160008473ffffffffffffffffffffffffffffffffffffffff1673ffffffffffffffffffffffffffffffffffffffff16815260200190815260200160002054611f8290919063ffffffff16565b6009600086815260200190815260200160002060010160008373ffffffffffffffffffffffffffffffffffffffff1673ffffffffffffffffffffffffffffffffffffffff16815260200190815260200160002081905550600191505092915050565b6000600560019054906101000a900473ffffffffffffffffffffffffffffffffffffffff16905090565b606060048054600181600116156101000203166002900480601f0160208091040260200160405190810160405280929190818152602001828054600181600116156101000203166002900480156111965780601f1061116b57610100808354040283529160200191611196565b820191906000526020600020905b81548152906001019060200180831161117957829003601f168201915b5050505050905090565b60006111aa611a02565b73ffffffffffffffffffffffffffffffffffffffff16600560019054906101000a900473ffffffffffffffffffffffffffffffffffffffff1673ffffffffffffffffffffffffffffffffffffffff161461126c576040517f08c379a00000000000000000000000000000000000000000000000000000000081526004018080602001828103825260208152602001807f4f776e61626c653a2063616c6c6572206973206e6f7420746865206f776e657281525060200191505060405180910390fd5b61127683836121ce565b6001905092915050565b6000600860008373ffffffffffffffffffffffffffffffffffffffff1673ffffffffffffffffffffffffffffffffffffffff16815260200190815260200160002060000160009054906101000a900460ff169050919050565b600061139c6112e6611a02565b846113978560405180606001604052806025815260200161289d6025913960016000611310611a02565b73ffffffffffffffffffffffffffffffffffffffff1673ffffffffffffffffffffffffffffffffffffffff16815260200190815260200160002060008a73ffffffffffffffffffffffffffffffffffffffff1673ffffffffffffffffffffffffffffffffffffffff16815260200190815260200160002054611ec29092919063ffffffff16565b611a0a565b6001905092915050565b60006113ba6113b3611a02565b8484611c01565b6001905092915050565b60006113d66113d1611a02565b611280565b611448576040517f08c379a000000000000000000000000000000000000000000000000000000000815260040180806020018281038252601f8152602001807f50726f6a6563743a2063616c6c6572206973206e6f742061206d656d6265720081525060200191505060405180910390fd5b6000611452611a02565b90506000600960008581526020019081526020016000209050600660009054906101000a900473ffffffffffffffffffffffffffffffffffffffff1673ffffffffffffffffffffffffffffffffffffffff16636390605c600754866040518363ffffffff1660e01b8152600401808381526020018281526020019250505060206040518083038186803b1580156114e857600080fd5b505afa1580156114fc573d6000803e3d6000fd5b505050506040513d602081101561151257600080fd5b8101908080519060200190929190505050611578576040517f08c379a00000000000000000000000000000000000000000000000000000000081526004018080602001828103825260248152602001806127736024913960400191505060405180910390fd5b600660009054906101000a900473ffffffffffffffffffffffffffffffffffffffff1673ffffffffffffffffffffffffffffffffffffffff16631381f63460075486600860008773ffffffffffffffffffffffffffffffffffffffff1673ffffffffffffffffffffffffffffffffffffffff168152602001908152602001600020600101546040518463ffffffff1660e01b815260040180848152602001838152602001828152602001935050505060206040518083038186803b15801561163f57600080fd5b505afa158015611653573d6000803e3d6000fd5b505050506040513d602081101561166957600080fd5b81019080805190602001909291905050506116cf576040517f08c379a00000000000000000000000000000000000000000000000000000000081526004018080602001828103825260248152602001806128516024913960400191505060405180910390fd5b6116e5828260020161234690919063ffffffff16565b1561173b576040517f08c379a00000000000000000000000000000000000000000000000000000000081526004018080602001828103825260248152602001806127dd6024913960400191505060405180910390fd5b611751828260020161237690919063ffffffff16565b506117608282600001546123a6565b600192505050919050565b6000600160008473ffffffffffffffffffffffffffffffffffffffff1673ffffffffffffffffffffffffffffffffffffffff16815260200190815260200160002060008373ffffffffffffffffffffffffffffffffffffffff1673ffffffffffffffffffffffffffffffffffffffff16815260200190815260200160002054905092915050565b6117fa611a02565b73ffffffffffffffffffffffffffffffffffffffff16600560019054906101000a900473ffffffffffffffffffffffffffffffffffffffff1673ffffffffffffffffffffffffffffffffffffffff16146118bc576040517f08c379a00000000000000000000000000000000000000000000000000000000081526004018080602001828103825260208152602001807f4f776e61626c653a2063616c6c6572206973206e6f7420746865206f776e657281525060200191505060405180910390fd5b600073ffffffffffffffffffffffffffffffffffffffff168173ffffffffffffffffffffffffffffffffffffffff161415611942576040517f08c379a00000000000000000000000000000000000000000000000000000000081526004018080602001828103825260268152602001806126dd6026913960400191505060405180910390fd5b8073ffffffffffffffffffffffffffffffffffffffff16600560019054906101000a900473ffffffffffffffffffffffffffffffffffffffff1673ffffffffffffffffffffffffffffffffffffffff167f8be0079c531659141344cd1fd0a4f28419497f9722a3daafe3b4186f6b6457e060405160405180910390a380600560016101000a81548173ffffffffffffffffffffffffffffffffffffffff021916908373ffffffffffffffffffffffffffffffffffffffff16021790555050565b600033905090565b600073ffffffffffffffffffffffffffffffffffffffff168373ffffffffffffffffffffffffffffffffffffffff161415611a90576040517f08c379a00000000000000000000000000000000000000000000000000000000081526004018080602001828103825260248152602001806128016024913960400191505060405180910390fd5b600073ffffffffffffffffffffffffffffffffffffffff168273ffffffffffffffffffffffffffffffffffffffff161415611b16576040517f08c379a00000000000000000000000000000000000000000000000000000000081526004018080602001828103825260228152602001806127036022913960400191505060405180910390fd5b80600160008573ffffffffffffffffffffffffffffffffffffffff1673ffffffffffffffffffffffffffffffffffffffff16815260200190815260200160002060008473ffffffffffffffffffffffffffffffffffffffff1673ffffffffffffffffffffffffffffffffffffffff168152602001908152602001600020819055508173ffffffffffffffffffffffffffffffffffffffff168373ffffffffffffffffffffffffffffffffffffffff167f8c5be1e5ebec7d5bd14f71427d1e84f3dd0314c0f7b2291e5b200ac8c7c3b925836040518082815260200191505060405180910390a3505050565b600073ffffffffffffffffffffffffffffffffffffffff168373ffffffffffffffffffffffffffffffffffffffff161415611c87576040517f08c379a00000000000000000000000000000000000000000000000000000000081526004018080602001828103825260258152602001806127b86025913960400191505060405180910390fd5b600073ffffffffffffffffffffffffffffffffffffffff168273ffffffffffffffffffffffffffffffffffffffff161415611d0d576040517f08c379a00000000000000000000000000000000000000000000000000000000081526004018080602001828103825260238152602001806126506023913960400191505060405180910390fd5b611d1883838361256d565b611d8381604051806060016040528060268152602001612725602691396000808773ffffffffffffffffffffffffffffffffffffffff1673ffffffffffffffffffffffffffffffffffffffff16815260200190815260200160002054611ec29092919063ffffffff16565b6000808573ffffffffffffffffffffffffffffffffffffffff1673ffffffffffffffffffffffffffffffffffffffff16815260200190815260200160002081905550611e16816000808573ffffffffffffffffffffffffffffffffffffffff1673ffffffffffffffffffffffffffffffffffffffff16815260200190815260200160002054611f8290919063ffffffff16565b6000808473ffffffffffffffffffffffffffffffffffffffff1673ffffffffffffffffffffffffffffffffffffffff168152602001908152602001600020819055508173ffffffffffffffffffffffffffffffffffffffff168373ffffffffffffffffffffffffffffffffffffffff167fddf252ad1be2c89b69c2b068fc378daa952ba7f163c4a11628f55a4df523b3ef836040518082815260200191505060405180910390a3505050565b6000838311158290611f6f576040517f08c379a00000000000000000000000000000000000000000000000000000000081526004018080602001828103825283818151815260200191508051906020019080838360005b83811015611f34578082015181840152602081019050611f19565b50505050905090810190601f168015611f615780820380516001836020036101000a031916815260200191505b509250505060405180910390fd5b5060008385039050809150509392505050565b600080828401905083811015612000576040517f08c379a000000000000000000000000000000000000000000000000000000000815260040180806020018281038252601b8152602001807f536166654d6174683a206164646974696f6e206f766572666c6f77000000000081525060200191505060405180910390fd5b8091505092915050565b600073ffffffffffffffffffffffffffffffffffffffff168273ffffffffffffffffffffffffffffffffffffffff161415612090576040517f08c379a00000000000000000000000000000000000000000000000000000000081526004018080602001828103825260218152602001806127976021913960400191505060405180910390fd5b61209c8260008361256d565b612107816040518060600160405280602281526020016126bb602291396000808673ffffffffffffffffffffffffffffffffffffffff1673ffffffffffffffffffffffffffffffffffffffff16815260200190815260200160002054611ec29092919063ffffffff16565b6000808473ffffffffffffffffffffffffffffffffffffffff1673ffffffffffffffffffffffffffffffffffffffff1681526020019081526020016000208190555061215e8160025461257290919063ffffffff16565b600281905550600073ffffffffffffffffffffffffffffffffffffffff168273ffffffffffffffffffffffffffffffffffffffff167fddf252ad1be2c89b69c2b068fc378daa952ba7f163c4a11628f55a4df523b3ef836040518082815260200191505060405180910390a35050565b600073ffffffffffffffffffffffffffffffffffffffff168273ffffffffffffffffffffffffffffffffffffffff161415612254576040517f08c379a000000000000000000000000000000000000000000000000000000000815260040180806020018281038252602c815260200180612825602c913960400191505060405180910390fd5b61225d82611280565b156122b3576040517f08c379a00000000000000000000000000000000000000000000000000000000081526004018080602001828103825260248152602001806126976024913960400191505060405180910390fd5b604051806040016040528060011515815260200182815250600860008473ffffffffffffffffffffffffffffffffffffffff1673ffffffffffffffffffffffffffffffffffffffff16815260200190815260200160002060008201518160000160006101000a81548160ff021916908315150217905550602082015181600101559050506123428260646123a6565b5050565b600061236e836000018373ffffffffffffffffffffffffffffffffffffffff1660001b6125bc565b905092915050565b600061239e836000018373ffffffffffffffffffffffffffffffffffffffff1660001b6125df565b905092915050565b600073ffffffffffffffffffffffffffffffffffffffff168273ffffffffffffffffffffffffffffffffffffffff161415612449576040517f08c379a000000000000000000000000000000000000000000000000000000000815260040180806020018281038252601f8152602001807f45524332303a206d696e7420746f20746865207a65726f20616464726573730081525060200191505060405180910390fd5b6124556000838361256d565b61246a81600254611f8290919063ffffffff16565b6002819055506124c1816000808573ffffffffffffffffffffffffffffffffffffffff1673ffffffffffffffffffffffffffffffffffffffff16815260200190815260200160002054611f8290919063ffffffff16565b6000808473ffffffffffffffffffffffffffffffffffffffff1673ffffffffffffffffffffffffffffffffffffffff168152602001908152602001600020819055508173ffffffffffffffffffffffffffffffffffffffff16600073ffffffffffffffffffffffffffffffffffffffff167fddf252ad1be2c89b69c2b068fc378daa952ba7f163c4a11628f55a4df523b3ef836040518082815260200191505060405180910390a35050565b505050565b60006125b483836040518060400160405280601e81526020017f536166654d6174683a207375627472616374696f6e206f766572666c6f770000815250611ec2565b905092915050565b600080836001016000848152602001908152602001600020541415905092915050565b60006125eb83836125bc565b612644578260000182908060018154018082558091505060019003906000526020600020016000909190919091505582600001805490508360010160008481526020019081526020016000208190555060019050612649565b600090505b9291505056fe45524332303a207472616e7366657220746f20746865207a65726f206164647265737350726f6a6563743a206d657267652072657175657374206973206e6f74206f70656e656450726f6a6563743a206163636f756e7420697320616c72656164792061206d656d62657245524332303a206275726e20616d6f756e7420657863656564732062616c616e63654f776e61626c653a206e6577206f776e657220697320746865207a65726f206164647265737345524332303a20617070726f766520746f20746865207a65726f206164647265737345524332303a207472616e7366657220616d6f756e7420657863656564732062616c616e636545524332303a207472616e7366657220616d6f756e74206578636565647320616c6c6f77616e636550726f6a6563743a206d657267652072657175657374206973206e6f74206d657267656445524332303a206275726e2066726f6d20746865207a65726f206164647265737345524332303a207472616e736665722066726f6d20746865207a65726f206164647265737350726f6a6563743a2073656e6465722068617320616c72656164792072656465656d656445524332303a20617070726f76652066726f6d20746865207a65726f206164647265737350726f6a6563743a206163636f756e742063616e206e6f7420626520746865207a65726f206164647265737350726f6a6563743a2073656e646572206973206e6f742061207061727469636970616e7450726f6a6563743a2073656e64657220697320616c72656164792061207061727469636970616e7445524332303a2064656372656173656420616c6c6f77616e63652062656c6f77207a65726fa2646970667358221220eff4f8951ee9a9d2a9aa7b97f0d1082994a2b8c39c54fa64dfcb2276e6be229d64736f6c6343000602003350726f6a6563743a206163636f756e7420697320616c72656164792061206d656d6265724f776e61626c653a206e6577206f776e657220697320746865207a65726f206164647265737350726f6a6563743a2070726f6a656374486173682063616e206e6f7420626520656d70747950726f6a6563743a206f7261636c65416464726573732063616e206e6f7420626520746865207a65726f206164647265737350726f6a6563743a206163636f756e742063616e206e6f7420626520746865207a65726f206164647265737350726f6a6563743a206164646974696f6e616c206163636f756e747320616e6420696473206d757374206265206f66207468652073616d65206c656e677468",
  "source": "pragma solidity ^0.6.2;\n\nimport \"@openzeppelin/contracts/token/ERC20/ERC20.sol\";\nimport \"@openzeppelin/contracts/utils/EnumerableSet.sol\";\nimport \"@openzeppelin/contracts/access/Ownable.sol\";\nimport \"./Oracle.sol\";\n\ncontract Project is ERC20, Ownable {\n    using EnumerableSet for EnumerableSet.AddressSet;\n\n    struct Bounty {\n        uint256 amount;\n        mapping(address => uint256) contributions;\n        EnumerableSet.AddressSet registeredRedeemers;\n    }\n\n    struct Member {\n        bool membership;\n        uint256 id;\n    }\n\n    uint256 constant INITIAL_BALANCE = 100;\n\n    Oracle public oracle;\n    bytes32 public projectHash;\n    mapping(address => Member) public members;\n    mapping(uint256 => Bounty) bounties;\n\n    constructor(\n        bytes32 _projectHash,\n        address managerAccount,\n        uint256 managerId,\n        address[] memory additionalAccounts,\n        uint256[] memory additionalIds,\n        address _oracleAddress\n    ) ERC20(\"Test Merge Token Coolos \", \"TMTC\") public {\n        bytes32 emptyBytes;\n        require(_projectHash != emptyBytes, \"Project: projectHash can not be empty\");\n        require(_oracleAddress != address(0), \"Project: oracleAddress can not be the zero address\");\n        require(additionalAccounts.length == additionalIds.length, \"Project: additional accounts and ids must be of the same length\");\n        projectHash = _projectHash;\n        oracle = Oracle(_oracleAddress);\n        // The manager becomes the owner\n        transferOwnership(managerAccount);\n        // Register the manager as member and transfer the initial balance\n        _addMember(managerAccount, managerId);\n        // Register the additional users\n        uint256 index;\n        while (index < additionalAccounts.length) {\n            _addMember(additionalAccounts[index], additionalIds[index]);\n            index = index.add(1);\n        }\n    }\n\n    modifier onlyMember() {\n        require(isMember(_msgSender()), \"Project: caller is not a member\");\n        _;\n    }\n\n    function addMember(address account, uint256 id) public onlyOwner returns (bool) {\n        _addMember(account, id);\n        return true;\n    }\n\n    function contribute(uint256 mrId, uint256 amount) public onlyMember returns (bool) {\n        address sender = _msgSender();\n        require(oracle.isMergeRequestOpened(projectHash, mrId), \"Project: merge request is not opened\");\n        require(!oracle.isParticipant(projectHash, mrId, members[sender].id), \"Project: sender is already a participant\");\n        _burn(sender, amount);\n        bounties[mrId].amount = bounties[mrId].amount.add(amount);\n        bounties[mrId].contributions[sender] = bounties[mrId].contributions[sender].add(amount);\n        return true;\n    }\n\n    function redeem(uint256 mrId) public onlyMember returns (bool) {\n        address sender = _msgSender();\n        Bounty storage bounty = bounties[mrId];\n        require(oracle.isMergeRequestMerged(projectHash, mrId), \"Project: merge request is not merged\");\n        require(oracle.isParticipant(projectHash, mrId, members[sender].id), \"Project: sender is not a participant\");\n        require(!bounty.registeredRedeemers.contains(sender), \"Project: sender has already redeemed\");\n        bounty.registeredRedeemers.add(sender);\n        _mint(sender, bounty.amount);\n        return true;\n    }\n\n    function isMember(address account) public view returns (bool) {\n        return members[account].membership;\n    }\n \n    function _addMember(address account, uint256 id) internal {\n        require(account != address(0), \"Project: account can not be the zero address\");\n        require(!isMember(account), \"Project: account is already a member\");\n        // The account is registered as member\n        members[account] = Member(true, id);\n        // The account receives the initial balance\n        _mint(account, INITIAL_BALANCE);\n    }\n}\n",
  "sourcePath": "/Users/v-g/Documents/personal-projects/mr-project/mr-jam/packages/smart-contracts/contracts/Project.sol",
  "compiler": {
    "name": "solc",
    "version": "0.6.2+commit.bacdbe57.Emscripten.clang"
  },
  "schemaVersion": "3.1.0",
  "updatedAt": "2020-04-30T12:04:09.820Z",
  "devdoc": {
    "methods": {
      "allowance(address,address)": {
        "details": "See {IERC20-allowance}."
      },
      "approve(address,uint256)": {
        "details": "See {IERC20-approve}.     * Requirements:     * - `spender` cannot be the zero address."
      },
      "balanceOf(address)": {
        "details": "See {IERC20-balanceOf}."
      },
      "decimals()": {
        "details": "Returns the number of decimals used to get its user representation. For example, if `decimals` equals `2`, a balance of `505` tokens should be displayed to a user as `5,05` (`505 / 10 ** 2`).     * Tokens usually opt for a value of 18, imitating the relationship between Ether and Wei. This is the value {ERC20} uses, unless {_setupDecimals} is called.     * NOTE: This information is only used for _display_ purposes: it in no way affects any of the arithmetic of the contract, including {IERC20-balanceOf} and {IERC20-transfer}."
      },
      "decreaseAllowance(address,uint256)": {
        "details": "Atomically decreases the allowance granted to `spender` by the caller.     * This is an alternative to {approve} that can be used as a mitigation for problems described in {IERC20-approve}.     * Emits an {Approval} event indicating the updated allowance.     * Requirements:     * - `spender` cannot be the zero address. - `spender` must have allowance for the caller of at least `subtractedValue`."
      },
      "increaseAllowance(address,uint256)": {
        "details": "Atomically increases the allowance granted to `spender` by the caller.     * This is an alternative to {approve} that can be used as a mitigation for problems described in {IERC20-approve}.     * Emits an {Approval} event indicating the updated allowance.     * Requirements:     * - `spender` cannot be the zero address."
      },
      "name()": {
        "details": "Returns the name of the token."
      },
      "owner()": {
        "details": "Returns the address of the current owner."
      },
      "renounceOwnership()": {
        "details": "Leaves the contract without owner. It will not be possible to call `onlyOwner` functions anymore. Can only be called by the current owner.     * NOTE: Renouncing ownership will leave the contract without an owner, thereby removing any functionality that is only available to the owner."
      },
      "symbol()": {
        "details": "Returns the symbol of the token, usually a shorter version of the name."
      },
      "totalSupply()": {
        "details": "See {IERC20-totalSupply}."
      },
      "transfer(address,uint256)": {
        "details": "See {IERC20-transfer}.     * Requirements:     * - `recipient` cannot be the zero address. - the caller must have a balance of at least `amount`."
      },
      "transferFrom(address,address,uint256)": {
        "details": "See {IERC20-transferFrom}.     * Emits an {Approval} event indicating the updated allowance. This is not required by the EIP. See the note at the beginning of {ERC20};     * Requirements: - `sender` and `recipient` cannot be the zero address. - `sender` must have a balance of at least `amount`. - the caller must have allowance for ``sender``'s tokens of at least `amount`."
      },
      "transferOwnership(address)": {
        "details": "Transfers ownership of the contract to a new account (`newOwner`). Can only be called by the current owner."
      }
    }
  },
  "userdoc": {
    "methods": {}
  }
}