{
  "contractName": "Project",
  "abi": [
    {
      "inputs": [
        {
          "internalType": "uint256",
          "name": "_projectId",
          "type": "uint256"
        },
        {
          "internalType": "address",
          "name": "managerAccount",
          "type": "address"
        },
        {
          "internalType": "uint256",
          "name": "managerId",
          "type": "uint256"
        },
        {
          "internalType": "address[]",
          "name": "additionalAccounts",
          "type": "address[]"
        },
        {
          "internalType": "uint256[]",
          "name": "additionalIds",
          "type": "uint256[]"
        },
        {
          "internalType": "address",
          "name": "_oracleAddress",
          "type": "address"
        }
      ],
      "stateMutability": "nonpayable",
      "type": "constructor"
    },
    {
      "anonymous": false,
      "inputs": [
        {
          "indexed": true,
          "internalType": "address",
          "name": "owner",
          "type": "address"
        },
        {
          "indexed": true,
          "internalType": "address",
          "name": "spender",
          "type": "address"
        },
        {
          "indexed": false,
          "internalType": "uint256",
          "name": "value",
          "type": "uint256"
        }
      ],
      "name": "Approval",
      "type": "event"
    },
    {
      "anonymous": false,
      "inputs": [
        {
          "indexed": true,
          "internalType": "address",
          "name": "previousOwner",
          "type": "address"
        },
        {
          "indexed": true,
          "internalType": "address",
          "name": "newOwner",
          "type": "address"
        }
      ],
      "name": "OwnershipTransferred",
      "type": "event"
    },
    {
      "anonymous": false,
      "inputs": [
        {
          "indexed": true,
          "internalType": "address",
          "name": "from",
          "type": "address"
        },
        {
          "indexed": true,
          "internalType": "address",
          "name": "to",
          "type": "address"
        },
        {
          "indexed": false,
          "internalType": "uint256",
          "name": "value",
          "type": "uint256"
        }
      ],
      "name": "Transfer",
      "type": "event"
    },
    {
      "inputs": [
        {
          "internalType": "address",
          "name": "owner",
          "type": "address"
        },
        {
          "internalType": "address",
          "name": "spender",
          "type": "address"
        }
      ],
      "name": "allowance",
      "outputs": [
        {
          "internalType": "uint256",
          "name": "",
          "type": "uint256"
        }
      ],
      "stateMutability": "view",
      "type": "function"
    },
    {
      "inputs": [
        {
          "internalType": "address",
          "name": "spender",
          "type": "address"
        },
        {
          "internalType": "uint256",
          "name": "amount",
          "type": "uint256"
        }
      ],
      "name": "approve",
      "outputs": [
        {
          "internalType": "bool",
          "name": "",
          "type": "bool"
        }
      ],
      "stateMutability": "nonpayable",
      "type": "function"
    },
    {
      "inputs": [
        {
          "internalType": "address",
          "name": "account",
          "type": "address"
        }
      ],
      "name": "balanceOf",
      "outputs": [
        {
          "internalType": "uint256",
          "name": "",
          "type": "uint256"
        }
      ],
      "stateMutability": "view",
      "type": "function"
    },
    {
      "inputs": [],
      "name": "decimals",
      "outputs": [
        {
          "internalType": "uint8",
          "name": "",
          "type": "uint8"
        }
      ],
      "stateMutability": "view",
      "type": "function"
    },
    {
      "inputs": [
        {
          "internalType": "address",
          "name": "spender",
          "type": "address"
        },
        {
          "internalType": "uint256",
          "name": "subtractedValue",
          "type": "uint256"
        }
      ],
      "name": "decreaseAllowance",
      "outputs": [
        {
          "internalType": "bool",
          "name": "",
          "type": "bool"
        }
      ],
      "stateMutability": "nonpayable",
      "type": "function"
    },
    {
      "inputs": [
        {
          "internalType": "address",
          "name": "spender",
          "type": "address"
        },
        {
          "internalType": "uint256",
          "name": "addedValue",
          "type": "uint256"
        }
      ],
      "name": "increaseAllowance",
      "outputs": [
        {
          "internalType": "bool",
          "name": "",
          "type": "bool"
        }
      ],
      "stateMutability": "nonpayable",
      "type": "function"
    },
    {
      "inputs": [
        {
          "internalType": "uint256",
          "name": "",
          "type": "uint256"
        }
      ],
      "name": "memberList",
      "outputs": [
        {
          "internalType": "address",
          "name": "",
          "type": "address"
        }
      ],
      "stateMutability": "view",
      "type": "function"
    },
    {
      "inputs": [
        {
          "internalType": "address",
          "name": "",
          "type": "address"
        }
      ],
      "name": "members",
      "outputs": [
        {
          "internalType": "bool",
          "name": "membership",
          "type": "bool"
        },
        {
          "internalType": "uint256",
          "name": "id",
          "type": "uint256"
        }
      ],
      "stateMutability": "view",
      "type": "function"
    },
    {
      "inputs": [],
      "name": "name",
      "outputs": [
        {
          "internalType": "string",
          "name": "",
          "type": "string"
        }
      ],
      "stateMutability": "view",
      "type": "function"
    },
    {
      "inputs": [],
      "name": "oracle",
      "outputs": [
        {
          "internalType": "contract Oracle",
          "name": "",
          "type": "address"
        }
      ],
      "stateMutability": "view",
      "type": "function"
    },
    {
      "inputs": [],
      "name": "owner",
      "outputs": [
        {
          "internalType": "address",
          "name": "",
          "type": "address"
        }
      ],
      "stateMutability": "view",
      "type": "function"
    },
    {
      "inputs": [],
      "name": "projectId",
      "outputs": [
        {
          "internalType": "uint256",
          "name": "",
          "type": "uint256"
        }
      ],
      "stateMutability": "view",
      "type": "function"
    },
    {
      "inputs": [],
      "name": "renounceOwnership",
      "outputs": [],
      "stateMutability": "nonpayable",
      "type": "function"
    },
    {
      "inputs": [],
      "name": "symbol",
      "outputs": [
        {
          "internalType": "string",
          "name": "",
          "type": "string"
        }
      ],
      "stateMutability": "view",
      "type": "function"
    },
    {
      "inputs": [],
      "name": "totalSupply",
      "outputs": [
        {
          "internalType": "uint256",
          "name": "",
          "type": "uint256"
        }
      ],
      "stateMutability": "view",
      "type": "function"
    },
    {
      "inputs": [
        {
          "internalType": "address",
          "name": "recipient",
          "type": "address"
        },
        {
          "internalType": "uint256",
          "name": "amount",
          "type": "uint256"
        }
      ],
      "name": "transfer",
      "outputs": [
        {
          "internalType": "bool",
          "name": "",
          "type": "bool"
        }
      ],
      "stateMutability": "nonpayable",
      "type": "function"
    },
    {
      "inputs": [
        {
          "internalType": "address",
          "name": "sender",
          "type": "address"
        },
        {
          "internalType": "address",
          "name": "recipient",
          "type": "address"
        },
        {
          "internalType": "uint256",
          "name": "amount",
          "type": "uint256"
        }
      ],
      "name": "transferFrom",
      "outputs": [
        {
          "internalType": "bool",
          "name": "",
          "type": "bool"
        }
      ],
      "stateMutability": "nonpayable",
      "type": "function"
    },
    {
      "inputs": [
        {
          "internalType": "address",
          "name": "newOwner",
          "type": "address"
        }
      ],
      "name": "transferOwnership",
      "outputs": [],
      "stateMutability": "nonpayable",
      "type": "function"
    },
    {
      "inputs": [
        {
          "internalType": "address",
          "name": "account",
          "type": "address"
        },
        {
          "internalType": "uint256",
          "name": "id",
          "type": "uint256"
        }
      ],
      "name": "addMember",
      "outputs": [
        {
          "internalType": "bool",
          "name": "",
          "type": "bool"
        }
      ],
      "stateMutability": "nonpayable",
      "type": "function"
    },
    {
      "inputs": [
        {
          "internalType": "address[]",
          "name": "additionalAccounts",
          "type": "address[]"
        },
        {
          "internalType": "uint256[]",
          "name": "additionalIds",
          "type": "uint256[]"
        }
      ],
      "name": "addMembers",
      "outputs": [
        {
          "internalType": "bool",
          "name": "",
          "type": "bool"
        }
      ],
      "stateMutability": "nonpayable",
      "type": "function"
    },
    {
      "inputs": [
        {
          "internalType": "uint256",
          "name": "mrId",
          "type": "uint256"
        },
        {
          "internalType": "uint256",
          "name": "amount",
          "type": "uint256"
        }
      ],
      "name": "contribute",
      "outputs": [
        {
          "internalType": "bool",
          "name": "",
          "type": "bool"
        }
      ],
      "stateMutability": "nonpayable",
      "type": "function"
    },
    {
      "inputs": [
        {
          "internalType": "uint256",
          "name": "mrId",
          "type": "uint256"
        }
      ],
      "name": "redeem",
      "outputs": [
        {
          "internalType": "bool",
          "name": "",
          "type": "bool"
        }
      ],
      "stateMutability": "nonpayable",
      "type": "function"
    },
    {
      "inputs": [
        {
          "internalType": "address",
          "name": "account",
          "type": "address"
        }
      ],
      "name": "isMember",
      "outputs": [
        {
          "internalType": "bool",
          "name": "",
          "type": "bool"
        }
      ],
      "stateMutability": "view",
      "type": "function"
    },
    {
      "inputs": [
        {
          "internalType": "uint256",
          "name": "id",
          "type": "uint256"
        }
      ],
      "name": "isIdRegistered",
      "outputs": [
        {
          "internalType": "bool",
          "name": "",
          "type": "bool"
        }
      ],
      "stateMutability": "view",
      "type": "function"
    },
    {
      "inputs": [],
      "name": "getMembers",
      "outputs": [
        {
          "internalType": "address[]",
          "name": "",
          "type": "address[]"
        },
        {
          "internalType": "uint256[]",
          "name": "",
          "type": "uint256[]"
        }
      ],
      "stateMutability": "view",
      "type": "function"
    }
  ],
  "bytecode": "0x60806040523480156200001157600080fd5b5060405162003fa638038062003fa6833981810160405260c08110156200003757600080fd5b81019080805190602001909291908051906020019092919080519060200190929190805160405193929190846401000000008211156200007657600080fd5b838201915060208201858111156200008d57600080fd5b8251866020820283011164010000000082111715620000ab57600080fd5b8083526020830192505050908051906020019060200280838360005b83811015620000e4578082015181840152602081019050620000c7565b50505050905001604052602001805160405193929190846401000000008211156200010e57600080fd5b838201915060208201858111156200012557600080fd5b82518660208202830111640100000000821117156200014357600080fd5b8083526020830192505050908051906020019060200280838360005b838110156200017c5780820151818401526020810190506200015f565b50505050905001604052602001805190602001909291905050506040518060400160405280601881526020017f54657374204d6572676520546f6b656e20436f6f6c6f732000000000000000008152506040518060400160405280600481526020017f544d54430000000000000000000000000000000000000000000000000000000081525081600390805190602001906200021a92919062000cf0565b5080600490805190602001906200023392919062000cf0565b506012600560006101000a81548160ff021916908360ff1602179055505050600062000264620004c960201b60201c565b905080600560016101000a81548173ffffffffffffffffffffffffffffffffffffffff021916908373ffffffffffffffffffffffffffffffffffffffff1602179055508073ffffffffffffffffffffffffffffffffffffffff16600073ffffffffffffffffffffffffffffffffffffffff167f8be0079c531659141344cd1fd0a4f28419497f9722a3daafe3b4186f6b6457e060405160405180910390a350600073ffffffffffffffffffffffffffffffffffffffff168173ffffffffffffffffffffffffffffffffffffffff1614156200038b576040517f08c379a000000000000000000000000000000000000000000000000000000000815260040180806020018281038252603281526020018062003f096032913960400191505060405180910390fd5b8151835114620003e7576040517f08c379a000000000000000000000000000000000000000000000000000000000815260040180806020018281038252603f81526020018062003f67603f913960400191505060405180910390fd5b8560078190555080600660006101000a81548173ffffffffffffffffffffffffffffffffffffffff021916908373ffffffffffffffffffffffffffffffffffffffff1602179055506200044085620004d160201b60201c565b620004528585620006ec60201b60201c565b60005b8351811015620004bc57620004998482815181106200047057fe5b60200260200101518483815181106200048557fe5b6020026020010151620006ec60201b60201c565b620004b46001826200096060201b6200267d1790919060201c565b905062000455565b5050505050505062000d9f565b600033905090565b620004e1620004c960201b60201c565b73ffffffffffffffffffffffffffffffffffffffff16600560019054906101000a900473ffffffffffffffffffffffffffffffffffffffff1673ffffffffffffffffffffffffffffffffffffffff1614620005a4576040517f08c379a00000000000000000000000000000000000000000000000000000000081526004018080602001828103825260208152602001807f4f776e61626c653a2063616c6c6572206973206e6f7420746865206f776e657281525060200191505060405180910390fd5b600073ffffffffffffffffffffffffffffffffffffffff168173ffffffffffffffffffffffffffffffffffffffff1614156200062c576040517f08c379a000000000000000000000000000000000000000000000000000000000815260040180806020018281038252602681526020018062003ee36026913960400191505060405180910390fd5b8073ffffffffffffffffffffffffffffffffffffffff16600560019054906101000a900473ffffffffffffffffffffffffffffffffffffffff1673ffffffffffffffffffffffffffffffffffffffff167f8be0079c531659141344cd1fd0a4f28419497f9722a3daafe3b4186f6b6457e060405160405180910390a380600560016101000a81548173ffffffffffffffffffffffffffffffffffffffff021916908373ffffffffffffffffffffffffffffffffffffffff16021790555050565b600073ffffffffffffffffffffffffffffffffffffffff168273ffffffffffffffffffffffffffffffffffffffff16141562000774576040517f08c379a000000000000000000000000000000000000000000000000000000000815260040180806020018281038252602c81526020018062003f3b602c913960400191505060405180910390fd5b6200078582620009e960201b60201c565b15620007dd576040517f08c379a000000000000000000000000000000000000000000000000000000000815260040180806020018281038252602481526020018062003ebf6024913960400191505060405180910390fd5b620007ee8162000a4260201b60201c565b1562000862576040517f08c379a000000000000000000000000000000000000000000000000000000000815260040180806020018281038252601f8152602001807f50726f6a6563743a20696420697320616c72656164792061737369676e65640081525060200191505060405180910390fd5b604051806040016040528060011515815260200182815250600860008473ffffffffffffffffffffffffffffffffffffffff1673ffffffffffffffffffffffffffffffffffffffff16815260200190815260200160002060008201518160000160006101000a81548160ff021916908315150217905550602082015181600101559050506009829080600181540180825580915050600190039060005260206000200160009091909190916101000a81548173ffffffffffffffffffffffffffffffffffffffff021916908373ffffffffffffffffffffffffffffffffffffffff1602179055506200095c82606462000b0d60201b60201c565b5050565b600080828401905083811015620009df576040517f08c379a000000000000000000000000000000000000000000000000000000000815260040180806020018281038252601b8152602001807f536166654d6174683a206164646974696f6e206f766572666c6f77000000000081525060200191505060405180910390fd5b8091505092915050565b6000600860008373ffffffffffffffffffffffffffffffffffffffff1673ffffffffffffffffffffffffffffffffffffffff16815260200190815260200160002060000160009054906101000a900460ff169050919050565b60008060005b8015801562000a5b575060098054905082105b1562000b035783600860006009858154811062000a7457fe5b9060005260206000200160009054906101000a900473ffffffffffffffffffffffffffffffffffffffff1673ffffffffffffffffffffffffffffffffffffffff1673ffffffffffffffffffffffffffffffffffffffff1681526020019081526020016000206001015414905062000afb6001836200096060201b6200267d1790919060201c565b915062000a48565b8092505050919050565b600073ffffffffffffffffffffffffffffffffffffffff168273ffffffffffffffffffffffffffffffffffffffff16141562000bb1576040517f08c379a000000000000000000000000000000000000000000000000000000000815260040180806020018281038252601f8152602001807f45524332303a206d696e7420746f20746865207a65726f20616464726573730081525060200191505060405180910390fd5b62000bc56000838362000ceb60201b60201c565b62000be1816002546200096060201b6200267d1790919060201c565b60028190555062000c3f816000808573ffffffffffffffffffffffffffffffffffffffff1673ffffffffffffffffffffffffffffffffffffffff168152602001908152602001600020546200096060201b6200267d1790919060201c565b6000808473ffffffffffffffffffffffffffffffffffffffff1673ffffffffffffffffffffffffffffffffffffffff168152602001908152602001600020819055508173ffffffffffffffffffffffffffffffffffffffff16600073ffffffffffffffffffffffffffffffffffffffff167fddf252ad1be2c89b69c2b068fc378daa952ba7f163c4a11628f55a4df523b3ef836040518082815260200191505060405180910390a35050565b505050565b828054600181600116156101000203166002900490600052602060002090601f016020900481019282601f1062000d3357805160ff191683800117855562000d64565b8280016001018555821562000d64579182015b8281111562000d6357825182559160200191906001019062000d46565b5b50905062000d73919062000d77565b5090565b62000d9c91905b8082111562000d9857600081600090555060010162000d7e565b5090565b90565b6131108062000daf6000396000f3fe608060405234801561001057600080fd5b50600436106101735760003560e01c80638c590917116100de578063a457c2d711610097578063db006a7511610071578063db006a75146109e0578063dd62ed3e14610a26578063f2fde38b14610a9e578063fe274f9214610ae257610173565b8063a457c2d7146108a6578063a9059cbb1461090c578063b307fc6d1461097257610173565b80638c590917146106205780638da5cb5b1461067057806395d89b41146106ba57806398041ea31461073d5780639eab5253146107a3578063a230c5241461084a57610173565b80633950935111610130578063395093511461038c5780633e72b2bb146103f25780633fafa1271461055657806370a0823114610574578063715018a6146105cc5780637dc0d1d0146105d657610173565b806306fdde031461017857806308ae4b0c146101fb578063095ea7b31461025e57806318160ddd146102c457806323b872dd146102e2578063313ce56714610368575b600080fd5b610180610b28565b6040518080602001828103825283818151815260200191508051906020019080838360005b838110156101c05780820151818401526020810190506101a5565b50505050905090810190601f1680156101ed5780820380516001836020036101000a031916815260200191505b509250505060405180910390f35b61023d6004803603602081101561021157600080fd5b81019080803573ffffffffffffffffffffffffffffffffffffffff169060200190929190505050610bca565b60405180831515151581526020018281526020019250505060405180910390f35b6102aa6004803603604081101561027457600080fd5b81019080803573ffffffffffffffffffffffffffffffffffffffff16906020019092919080359060200190929190505050610bfb565b604051808215151515815260200191505060405180910390f35b6102cc610c19565b6040518082815260200191505060405180910390f35b61034e600480360360608110156102f857600080fd5b81019080803573ffffffffffffffffffffffffffffffffffffffff169060200190929190803573ffffffffffffffffffffffffffffffffffffffff16906020019092919080359060200190929190505050610c23565b604051808215151515815260200191505060405180910390f35b610370610cfc565b604051808260ff1660ff16815260200191505060405180910390f35b6103d8600480360360408110156103a257600080fd5b81019080803573ffffffffffffffffffffffffffffffffffffffff16906020019092919080359060200190929190505050610d13565b604051808215151515815260200191505060405180910390f35b61053c6004803603604081101561040857600080fd5b810190808035906020019064010000000081111561042557600080fd5b82018360208201111561043757600080fd5b8035906020019184602083028401116401000000008311171561045957600080fd5b919080806020026020016040519081016040528093929190818152602001838360200280828437600081840152601f19601f820116905080830192505050505050509192919290803590602001906401000000008111156104b957600080fd5b8201836020820111156104cb57600080fd5b803590602001918460208302840111640100000000831117156104ed57600080fd5b919080806020026020016040519081016040528093929190818152602001838360200280828437600081840152601f19601f820116905080830192505050505050509192919290505050610dc6565b604051808215151515815260200191505060405180910390f35b61055e610f4a565b6040518082815260200191505060405180910390f35b6105b66004803603602081101561058a57600080fd5b81019080803573ffffffffffffffffffffffffffffffffffffffff169060200190929190505050610f50565b6040518082815260200191505060405180910390f35b6105d4610f98565b005b6105de611123565b604051808273ffffffffffffffffffffffffffffffffffffffff1673ffffffffffffffffffffffffffffffffffffffff16815260200191505060405180910390f35b6106566004803603604081101561063657600080fd5b810190808035906020019092919080359060200190929190505050611149565b604051808215151515815260200191505060405180910390f35b610678611553565b604051808273ffffffffffffffffffffffffffffffffffffffff1673ffffffffffffffffffffffffffffffffffffffff16815260200191505060405180910390f35b6106c261157d565b6040518080602001828103825283818151815260200191508051906020019080838360005b838110156107025780820151818401526020810190506106e7565b50505050905090810190601f16801561072f5780820380516001836020036101000a031916815260200191505b509250505060405180910390f35b6107896004803603604081101561075357600080fd5b81019080803573ffffffffffffffffffffffffffffffffffffffff1690602001909291908035906020019092919050505061161f565b604051808215151515815260200191505060405180910390f35b6107ab6116ff565b604051808060200180602001838103835285818151815260200191508051906020019060200280838360005b838110156107f25780820151818401526020810190506107d7565b50505050905001838103825284818151815260200191508051906020019060200280838360005b83811015610834578082015181840152602081019050610819565b5050505090500194505050505060405180910390f35b61088c6004803603602081101561086057600080fd5b81019080803573ffffffffffffffffffffffffffffffffffffffff16906020019092919050505061187f565b604051808215151515815260200191505060405180910390f35b6108f2600480360360408110156108bc57600080fd5b81019080803573ffffffffffffffffffffffffffffffffffffffff169060200190929190803590602001909291905050506118d8565b604051808215151515815260200191505060405180910390f35b6109586004803603604081101561092257600080fd5b81019080803573ffffffffffffffffffffffffffffffffffffffff169060200190929190803590602001909291905050506119a5565b604051808215151515815260200191505060405180910390f35b61099e6004803603602081101561098857600080fd5b81019080803590602001909291905050506119c3565b604051808273ffffffffffffffffffffffffffffffffffffffff1673ffffffffffffffffffffffffffffffffffffffff16815260200191505060405180910390f35b610a0c600480360360208110156109f657600080fd5b81019080803590602001909291905050506119ff565b604051808215151515815260200191505060405180910390f35b610a8860048036036040811015610a3c57600080fd5b81019080803573ffffffffffffffffffffffffffffffffffffffff169060200190929190803573ffffffffffffffffffffffffffffffffffffffff169060200190929190505050611da6565b6040518082815260200191505060405180910390f35b610ae060048036036020811015610ab457600080fd5b81019080803573ffffffffffffffffffffffffffffffffffffffff169060200190929190505050611e2d565b005b610b0e60048036036020811015610af857600080fd5b810190808035906020019092919050505061203d565b604051808215151515815260200191505060405180910390f35b606060038054600181600116156101000203166002900480601f016020809104026020016040519081016040528092919081815260200182805460018160011615610100020316600290048015610bc05780601f10610b9557610100808354040283529160200191610bc0565b820191906000526020600020905b815481529060010190602001808311610ba357829003601f168201915b5050505050905090565b60086020528060005260406000206000915090508060000160009054906101000a900460ff16908060010154905082565b6000610c0f610c086120fd565b8484612105565b6001905092915050565b6000600254905090565b6000610c308484846122fc565b610cf184610c3c6120fd565b610cec85604051806060016040528060288152602001612f2560289139600160008b73ffffffffffffffffffffffffffffffffffffffff1673ffffffffffffffffffffffffffffffffffffffff1681526020019081526020016000206000610ca26120fd565b73ffffffffffffffffffffffffffffffffffffffff1673ffffffffffffffffffffffffffffffffffffffff168152602001908152602001600020546125bd9092919063ffffffff16565b612105565b600190509392505050565b6000600560009054906101000a900460ff16905090565b6000610dbc610d206120fd565b84610db78560016000610d316120fd565b73ffffffffffffffffffffffffffffffffffffffff1673ffffffffffffffffffffffffffffffffffffffff16815260200190815260200160002060008973ffffffffffffffffffffffffffffffffffffffff1673ffffffffffffffffffffffffffffffffffffffff1681526020019081526020016000205461267d90919063ffffffff16565b612105565b6001905092915050565b6000610dd06120fd565b73ffffffffffffffffffffffffffffffffffffffff16600560019054906101000a900473ffffffffffffffffffffffffffffffffffffffff1673ffffffffffffffffffffffffffffffffffffffff1614610e92576040517f08c379a00000000000000000000000000000000000000000000000000000000081526004018080602001828103825260208152602001807f4f776e61626c653a2063616c6c6572206973206e6f7420746865206f776e657281525060200191505060405180910390fd5b8151835114610eec576040517f08c379a000000000000000000000000000000000000000000000000000000000815260040180806020018281038252603f81526020018061304f603f913960400191505060405180910390fd5b60005b8351811015610f4357610f28848281518110610f0757fe5b6020026020010151848381518110610f1b57fe5b6020026020010151612705565b610f3c60018261267d90919063ffffffff16565b9050610eef565b5092915050565b60075481565b60008060008373ffffffffffffffffffffffffffffffffffffffff1673ffffffffffffffffffffffffffffffffffffffff168152602001908152602001600020549050919050565b610fa06120fd565b73ffffffffffffffffffffffffffffffffffffffff16600560019054906101000a900473ffffffffffffffffffffffffffffffffffffffff1673ffffffffffffffffffffffffffffffffffffffff1614611062576040517f08c379a00000000000000000000000000000000000000000000000000000000081526004018080602001828103825260208152602001807f4f776e61626c653a2063616c6c6572206973206e6f7420746865206f776e657281525060200191505060405180910390fd5b600073ffffffffffffffffffffffffffffffffffffffff16600560019054906101000a900473ffffffffffffffffffffffffffffffffffffffff1673ffffffffffffffffffffffffffffffffffffffff167f8be0079c531659141344cd1fd0a4f28419497f9722a3daafe3b4186f6b6457e060405160405180910390a36000600560016101000a81548173ffffffffffffffffffffffffffffffffffffffff021916908373ffffffffffffffffffffffffffffffffffffffff160217905550565b600660009054906101000a900473ffffffffffffffffffffffffffffffffffffffff1681565b600061115b6111566120fd565b61187f565b6111cd576040517f08c379a000000000000000000000000000000000000000000000000000000000815260040180806020018281038252601f8152602001807f50726f6a6563743a2063616c6c6572206973206e6f742061206d656d6265720081525060200191505060405180910390fd5b60006111d76120fd565b9050600660009054906101000a900473ffffffffffffffffffffffffffffffffffffffff1673ffffffffffffffffffffffffffffffffffffffff1663437109f6600754866040518363ffffffff1660e01b8152600401808381526020018281526020019250505060206040518083038186803b15801561125657600080fd5b505afa15801561126a573d6000803e3d6000fd5b505050506040513d602081101561128057600080fd5b81019080805190602001909291905050506112e6576040517f08c379a0000000000000000000000000000000000000000000000000000000008152600401808060200182810382526024815260200180612e4d6024913960400191505060405180910390fd5b600660009054906101000a900473ffffffffffffffffffffffffffffffffffffffff1673ffffffffffffffffffffffffffffffffffffffff1663d2687c6060075486600860008673ffffffffffffffffffffffffffffffffffffffff1673ffffffffffffffffffffffffffffffffffffffff168152602001908152602001600020600101546040518463ffffffff1660e01b815260040180848152602001838152602001828152602001935050505060206040518083038186803b1580156113ad57600080fd5b505afa1580156113c1573d6000803e3d6000fd5b505050506040513d60208110156113d757600080fd5b81019080805190602001909291905050501561143e576040517f08c379a000000000000000000000000000000000000000000000000000000000815260040180806020018281038252602881526020018061308e6028913960400191505060405180910390fd5b611448818461295c565b61147183600a60008781526020019081526020016000206000015461267d90919063ffffffff16565b600a6000868152602001908152602001600020600001819055506114f183600a600087815260200190815260200160002060010160008473ffffffffffffffffffffffffffffffffffffffff1673ffffffffffffffffffffffffffffffffffffffff1681526020019081526020016000205461267d90919063ffffffff16565b600a600086815260200190815260200160002060010160008373ffffffffffffffffffffffffffffffffffffffff1673ffffffffffffffffffffffffffffffffffffffff16815260200190815260200160002081905550600191505092915050565b6000600560019054906101000a900473ffffffffffffffffffffffffffffffffffffffff16905090565b606060048054600181600116156101000203166002900480601f0160208091040260200160405190810160405280929190818152602001828054600181600116156101000203166002900480156116155780601f106115ea57610100808354040283529160200191611615565b820191906000526020600020905b8154815290600101906020018083116115f857829003601f168201915b5050505050905090565b60006116296120fd565b73ffffffffffffffffffffffffffffffffffffffff16600560019054906101000a900473ffffffffffffffffffffffffffffffffffffffff1673ffffffffffffffffffffffffffffffffffffffff16146116eb576040517f08c379a00000000000000000000000000000000000000000000000000000000081526004018080602001828103825260208152602001807f4f776e61626c653a2063616c6c6572206973206e6f7420746865206f776e657281525060200191505060405180910390fd5b6116f58383612705565b6001905092915050565b60608060606009805490506040519080825280602002602001820160405280156117385781602001602082028038833980820191505090505b50905060005b6009805490508110156117ea57600860006009838154811061175c57fe5b9060005260206000200160009054906101000a900473ffffffffffffffffffffffffffffffffffffffff1673ffffffffffffffffffffffffffffffffffffffff1673ffffffffffffffffffffffffffffffffffffffff168152602001908152602001600020600101548282815181106117d157fe5b602002602001018181525050808060010191505061173e565b506009818180548060200260200160405190810160405280929190818152602001828054801561186f57602002820191906000526020600020905b8160009054906101000a900473ffffffffffffffffffffffffffffffffffffffff1673ffffffffffffffffffffffffffffffffffffffff1681526020019060010190808311611825575b5050505050915092509250509091565b6000600860008373ffffffffffffffffffffffffffffffffffffffff1673ffffffffffffffffffffffffffffffffffffffff16815260200190815260200160002060000160009054906101000a900460ff169050919050565b600061199b6118e56120fd565b84611996856040518060600160405280602581526020016130b6602591396001600061190f6120fd565b73ffffffffffffffffffffffffffffffffffffffff1673ffffffffffffffffffffffffffffffffffffffff16815260200190815260200160002060008a73ffffffffffffffffffffffffffffffffffffffff1673ffffffffffffffffffffffffffffffffffffffff168152602001908152602001600020546125bd9092919063ffffffff16565b612105565b6001905092915050565b60006119b96119b26120fd565b84846122fc565b6001905092915050565b600981815481106119d057fe5b906000526020600020016000915054906101000a900473ffffffffffffffffffffffffffffffffffffffff1681565b6000611a11611a0c6120fd565b61187f565b611a83576040517f08c379a000000000000000000000000000000000000000000000000000000000815260040180806020018281038252601f8152602001807f50726f6a6563743a2063616c6c6572206973206e6f742061206d656d6265720081525060200191505060405180910390fd5b6000611a8d6120fd565b90506000600a60008581526020019081526020016000209050600660009054906101000a900473ffffffffffffffffffffffffffffffffffffffff1673ffffffffffffffffffffffffffffffffffffffff1663593e3869600754866040518363ffffffff1660e01b8152600401808381526020018281526020019250505060206040518083038186803b158015611b2357600080fd5b505afa158015611b37573d6000803e3d6000fd5b505050506040513d6020811015611b4d57600080fd5b8101908080519060200190929190505050611bb3576040517f08c379a0000000000000000000000000000000000000000000000000000000008152600401808060200182810382526024815260200180612f4d6024913960400191505060405180910390fd5b600660009054906101000a900473ffffffffffffffffffffffffffffffffffffffff1673ffffffffffffffffffffffffffffffffffffffff1663d2687c6060075486600860008773ffffffffffffffffffffffffffffffffffffffff1673ffffffffffffffffffffffffffffffffffffffff168152602001908152602001600020600101546040518463ffffffff1660e01b815260040180848152602001838152602001828152602001935050505060206040518083038186803b158015611c7a57600080fd5b505afa158015611c8e573d6000803e3d6000fd5b505050506040513d6020811015611ca457600080fd5b8101908080519060200190929190505050611d0a576040517f08c379a000000000000000000000000000000000000000000000000000000000815260040180806020018281038252602481526020018061302b6024913960400191505060405180910390fd5b611d208282600201612b2090919063ffffffff16565b15611d76576040517f08c379a0000000000000000000000000000000000000000000000000000000008152600401808060200182810382526024815260200180612fb76024913960400191505060405180910390fd5b611d8c8282600201612b5090919063ffffffff16565b50611d9b828260000154612b80565b600192505050919050565b6000600160008473ffffffffffffffffffffffffffffffffffffffff1673ffffffffffffffffffffffffffffffffffffffff16815260200190815260200160002060008373ffffffffffffffffffffffffffffffffffffffff1673ffffffffffffffffffffffffffffffffffffffff16815260200190815260200160002054905092915050565b611e356120fd565b73ffffffffffffffffffffffffffffffffffffffff16600560019054906101000a900473ffffffffffffffffffffffffffffffffffffffff1673ffffffffffffffffffffffffffffffffffffffff1614611ef7576040517f08c379a00000000000000000000000000000000000000000000000000000000081526004018080602001828103825260208152602001807f4f776e61626c653a2063616c6c6572206973206e6f7420746865206f776e657281525060200191505060405180910390fd5b600073ffffffffffffffffffffffffffffffffffffffff168173ffffffffffffffffffffffffffffffffffffffff161415611f7d576040517f08c379a0000000000000000000000000000000000000000000000000000000008152600401808060200182810382526026815260200180612eb76026913960400191505060405180910390fd5b8073ffffffffffffffffffffffffffffffffffffffff16600560019054906101000a900473ffffffffffffffffffffffffffffffffffffffff1673ffffffffffffffffffffffffffffffffffffffff167f8be0079c531659141344cd1fd0a4f28419497f9722a3daafe3b4186f6b6457e060405160405180910390a380600560016101000a81548173ffffffffffffffffffffffffffffffffffffffff021916908373ffffffffffffffffffffffffffffffffffffffff16021790555050565b60008060005b80158015612055575060098054905082105b156120f35783600860006009858154811061206c57fe5b9060005260206000200160009054906101000a900473ffffffffffffffffffffffffffffffffffffffff1673ffffffffffffffffffffffffffffffffffffffff1673ffffffffffffffffffffffffffffffffffffffff168152602001908152602001600020600101541490506120ec60018361267d90919063ffffffff16565b9150612043565b8092505050919050565b600033905090565b600073ffffffffffffffffffffffffffffffffffffffff168373ffffffffffffffffffffffffffffffffffffffff16141561218b576040517f08c379a0000000000000000000000000000000000000000000000000000000008152600401808060200182810382526024815260200180612fdb6024913960400191505060405180910390fd5b600073ffffffffffffffffffffffffffffffffffffffff168273ffffffffffffffffffffffffffffffffffffffff161415612211576040517f08c379a0000000000000000000000000000000000000000000000000000000008152600401808060200182810382526022815260200180612edd6022913960400191505060405180910390fd5b80600160008573ffffffffffffffffffffffffffffffffffffffff1673ffffffffffffffffffffffffffffffffffffffff16815260200190815260200160002060008473ffffffffffffffffffffffffffffffffffffffff1673ffffffffffffffffffffffffffffffffffffffff168152602001908152602001600020819055508173ffffffffffffffffffffffffffffffffffffffff168373ffffffffffffffffffffffffffffffffffffffff167f8c5be1e5ebec7d5bd14f71427d1e84f3dd0314c0f7b2291e5b200ac8c7c3b925836040518082815260200191505060405180910390a3505050565b600073ffffffffffffffffffffffffffffffffffffffff168373ffffffffffffffffffffffffffffffffffffffff161415612382576040517f08c379a0000000000000000000000000000000000000000000000000000000008152600401808060200182810382526025815260200180612f926025913960400191505060405180910390fd5b600073ffffffffffffffffffffffffffffffffffffffff168273ffffffffffffffffffffffffffffffffffffffff161415612408576040517f08c379a0000000000000000000000000000000000000000000000000000000008152600401808060200182810382526023815260200180612e2a6023913960400191505060405180910390fd5b612413838383612d47565b61247e81604051806060016040528060268152602001612eff602691396000808773ffffffffffffffffffffffffffffffffffffffff1673ffffffffffffffffffffffffffffffffffffffff168152602001908152602001600020546125bd9092919063ffffffff16565b6000808573ffffffffffffffffffffffffffffffffffffffff1673ffffffffffffffffffffffffffffffffffffffff16815260200190815260200160002081905550612511816000808573ffffffffffffffffffffffffffffffffffffffff1673ffffffffffffffffffffffffffffffffffffffff1681526020019081526020016000205461267d90919063ffffffff16565b6000808473ffffffffffffffffffffffffffffffffffffffff1673ffffffffffffffffffffffffffffffffffffffff168152602001908152602001600020819055508173ffffffffffffffffffffffffffffffffffffffff168373ffffffffffffffffffffffffffffffffffffffff167fddf252ad1be2c89b69c2b068fc378daa952ba7f163c4a11628f55a4df523b3ef836040518082815260200191505060405180910390a3505050565b600083831115829061266a576040517f08c379a00000000000000000000000000000000000000000000000000000000081526004018080602001828103825283818151815260200191508051906020019080838360005b8381101561262f578082015181840152602081019050612614565b50505050905090810190601f16801561265c5780820380516001836020036101000a031916815260200191505b509250505060405180910390fd5b5060008385039050809150509392505050565b6000808284019050838110156126fb576040517f08c379a000000000000000000000000000000000000000000000000000000000815260040180806020018281038252601b8152602001807f536166654d6174683a206164646974696f6e206f766572666c6f77000000000081525060200191505060405180910390fd5b8091505092915050565b600073ffffffffffffffffffffffffffffffffffffffff168273ffffffffffffffffffffffffffffffffffffffff16141561278b576040517f08c379a000000000000000000000000000000000000000000000000000000000815260040180806020018281038252602c815260200180612fff602c913960400191505060405180910390fd5b6127948261187f565b156127ea576040517f08c379a0000000000000000000000000000000000000000000000000000000008152600401808060200182810382526024815260200180612e716024913960400191505060405180910390fd5b6127f38161203d565b15612866576040517f08c379a000000000000000000000000000000000000000000000000000000000815260040180806020018281038252601f8152602001807f50726f6a6563743a20696420697320616c72656164792061737369676e65640081525060200191505060405180910390fd5b604051806040016040528060011515815260200182815250600860008473ffffffffffffffffffffffffffffffffffffffff1673ffffffffffffffffffffffffffffffffffffffff16815260200190815260200160002060008201518160000160006101000a81548160ff021916908315150217905550602082015181600101559050506009829080600181540180825580915050600190039060005260206000200160009091909190916101000a81548173ffffffffffffffffffffffffffffffffffffffff021916908373ffffffffffffffffffffffffffffffffffffffff160217905550612958826064612b80565b5050565b600073ffffffffffffffffffffffffffffffffffffffff168273ffffffffffffffffffffffffffffffffffffffff1614156129e2576040517f08c379a0000000000000000000000000000000000000000000000000000000008152600401808060200182810382526021815260200180612f716021913960400191505060405180910390fd5b6129ee82600083612d47565b612a5981604051806060016040528060228152602001612e95602291396000808673ffffffffffffffffffffffffffffffffffffffff1673ffffffffffffffffffffffffffffffffffffffff168152602001908152602001600020546125bd9092919063ffffffff16565b6000808473ffffffffffffffffffffffffffffffffffffffff1673ffffffffffffffffffffffffffffffffffffffff16815260200190815260200160002081905550612ab081600254612d4c90919063ffffffff16565b600281905550600073ffffffffffffffffffffffffffffffffffffffff168273ffffffffffffffffffffffffffffffffffffffff167fddf252ad1be2c89b69c2b068fc378daa952ba7f163c4a11628f55a4df523b3ef836040518082815260200191505060405180910390a35050565b6000612b48836000018373ffffffffffffffffffffffffffffffffffffffff1660001b612d96565b905092915050565b6000612b78836000018373ffffffffffffffffffffffffffffffffffffffff1660001b612db9565b905092915050565b600073ffffffffffffffffffffffffffffffffffffffff168273ffffffffffffffffffffffffffffffffffffffff161415612c23576040517f08c379a000000000000000000000000000000000000000000000000000000000815260040180806020018281038252601f8152602001807f45524332303a206d696e7420746f20746865207a65726f20616464726573730081525060200191505060405180910390fd5b612c2f60008383612d47565b612c448160025461267d90919063ffffffff16565b600281905550612c9b816000808573ffffffffffffffffffffffffffffffffffffffff1673ffffffffffffffffffffffffffffffffffffffff1681526020019081526020016000205461267d90919063ffffffff16565b6000808473ffffffffffffffffffffffffffffffffffffffff1673ffffffffffffffffffffffffffffffffffffffff168152602001908152602001600020819055508173ffffffffffffffffffffffffffffffffffffffff16600073ffffffffffffffffffffffffffffffffffffffff167fddf252ad1be2c89b69c2b068fc378daa952ba7f163c4a11628f55a4df523b3ef836040518082815260200191505060405180910390a35050565b505050565b6000612d8e83836040518060400160405280601e81526020017f536166654d6174683a207375627472616374696f6e206f766572666c6f7700008152506125bd565b905092915050565b600080836001016000848152602001908152602001600020541415905092915050565b6000612dc58383612d96565b612e1e578260000182908060018154018082558091505060019003906000526020600020016000909190919091505582600001805490508360010160008481526020019081526020016000208190555060019050612e23565b600090505b9291505056fe45524332303a207472616e7366657220746f20746865207a65726f206164647265737350726f6a6563743a206d657267652072657175657374206973206e6f74206f70656e656450726f6a6563743a206163636f756e7420697320616c72656164792061206d656d62657245524332303a206275726e20616d6f756e7420657863656564732062616c616e63654f776e61626c653a206e6577206f776e657220697320746865207a65726f206164647265737345524332303a20617070726f766520746f20746865207a65726f206164647265737345524332303a207472616e7366657220616d6f756e7420657863656564732062616c616e636545524332303a207472616e7366657220616d6f756e74206578636565647320616c6c6f77616e636550726f6a6563743a206d657267652072657175657374206973206e6f74206d657267656445524332303a206275726e2066726f6d20746865207a65726f206164647265737345524332303a207472616e736665722066726f6d20746865207a65726f206164647265737350726f6a6563743a2073656e6465722068617320616c72656164792072656465656d656445524332303a20617070726f76652066726f6d20746865207a65726f206164647265737350726f6a6563743a206163636f756e742063616e206e6f7420626520746865207a65726f206164647265737350726f6a6563743a2073656e646572206973206e6f742061207061727469636970616e7450726f6a6563743a206164646974696f6e616c206163636f756e747320616e6420696473206d757374206265206f66207468652073616d65206c656e67746850726f6a6563743a2073656e64657220697320616c72656164792061207061727469636970616e7445524332303a2064656372656173656420616c6c6f77616e63652062656c6f77207a65726fa26469706673582212207ab05f82924315b87188e27b05beb4e8f196a917bcc1557a247c81b24c6b523064736f6c6343000602003350726f6a6563743a206163636f756e7420697320616c72656164792061206d656d6265724f776e61626c653a206e6577206f776e657220697320746865207a65726f206164647265737350726f6a6563743a206f7261636c65416464726573732063616e206e6f7420626520746865207a65726f206164647265737350726f6a6563743a206163636f756e742063616e206e6f7420626520746865207a65726f206164647265737350726f6a6563743a206164646974696f6e616c206163636f756e747320616e6420696473206d757374206265206f66207468652073616d65206c656e677468",
  "source": "pragma solidity ^0.6.2;\n\nimport \"@openzeppelin/contracts/token/ERC20/ERC20.sol\";\nimport \"@openzeppelin/contracts/utils/EnumerableSet.sol\";\nimport \"@openzeppelin/contracts/access/Ownable.sol\";\nimport \"./Oracle.sol\";\n\ncontract Project is ERC20, Ownable {\n    using EnumerableSet for EnumerableSet.AddressSet;\n\n    struct Bounty {\n        uint256 amount;\n        mapping(address => uint256) contributions;\n        EnumerableSet.AddressSet registeredRedeemers;\n    }\n\n    struct Member {\n        bool membership;\n        uint256 id;\n    }\n\n    uint256 constant INITIAL_BALANCE = 100;\n\n    Oracle public oracle;\n    uint256 public projectId;\n    mapping(address => Member) public members;\n    address[] public memberList;\n    mapping(uint256 => Bounty) bounties;\n\n    constructor(\n        uint256 _projectId,\n        address managerAccount,\n        uint256 managerId,\n        address[] memory additionalAccounts,\n        uint256[] memory additionalIds,\n        address _oracleAddress\n    ) ERC20(\"Test Merge Token Coolos \", \"TMTC\") public {\n        require(_oracleAddress != address(0), \"Project: oracleAddress can not be the zero address\");\n        require(additionalAccounts.length == additionalIds.length, \"Project: additional accounts and ids must be of the same length\");\n        projectId = _projectId;\n        oracle = Oracle(_oracleAddress);\n        // The manager becomes the owner\n        transferOwnership(managerAccount);\n        // Register the manager as member and transfer the initial balance\n        _addMember(managerAccount, managerId);\n        // Register the additional users\n        uint256 index;\n        while (index < additionalAccounts.length) {\n            _addMember(additionalAccounts[index], additionalIds[index]);\n            index = index.add(1);\n        }\n    }\n\n    modifier onlyMember() {\n        require(isMember(_msgSender()), \"Project: caller is not a member\");\n        _;\n    }\n\n    function addMember(address account, uint256 id) public onlyOwner returns (bool) {\n        _addMember(account, id);\n        return true;\n    }\n\n    function addMembers(\n        address[] memory additionalAccounts,\n        uint256[] memory additionalIds\n    ) public onlyOwner returns (bool) {\n        require(additionalAccounts.length == additionalIds.length, \"Project: additional accounts and ids must be of the same length\");\n        // Register the additional users\n        uint256 index;\n        while (index < additionalAccounts.length) {\n            _addMember(additionalAccounts[index], additionalIds[index]);\n            index = index.add(1);\n        }\n    }\n\n    function contribute(uint256 mrId, uint256 amount) public onlyMember returns (bool) {\n        address sender = _msgSender();\n        require(oracle.isMergeRequestOpened(projectId, mrId), \"Project: merge request is not opened\");\n        require(!oracle.isParticipant(projectId, mrId, members[sender].id), \"Project: sender is already a participant\");\n        _burn(sender, amount);\n        bounties[mrId].amount = bounties[mrId].amount.add(amount);\n        bounties[mrId].contributions[sender] = bounties[mrId].contributions[sender].add(amount);\n        return true;\n    }\n\n    function redeem(uint256 mrId) public onlyMember returns (bool) {\n        address sender = _msgSender();\n        Bounty storage bounty = bounties[mrId];\n        require(oracle.isMergeRequestMerged(projectId, mrId), \"Project: merge request is not merged\");\n        require(oracle.isParticipant(projectId, mrId, members[sender].id), \"Project: sender is not a participant\");\n        require(!bounty.registeredRedeemers.contains(sender), \"Project: sender has already redeemed\");\n        bounty.registeredRedeemers.add(sender);\n        _mint(sender, bounty.amount);\n        return true;\n    }\n\n    function isMember(address account) public view returns (bool) {\n        return members[account].membership;\n    }\n\n    function isIdRegistered(uint256 id) public view returns (bool) {\n        uint256 index;\n        bool isIdMember;\n        while (!isIdMember && index < memberList.length) {\n            isIdMember = members[memberList[index]].id == id;\n            index = index.add(1);\n        }\n        return isIdMember;\n    }\n\n    function getMembers() public view returns (address[] memory, uint256[] memory) {\n        uint256[] memory ids = new uint256[](memberList.length);\n\n        for (uint256 i; i < memberList.length; i++) {\n            ids[i] = members[memberList[i]].id;\n        }\n\n        return (\n            memberList,\n            ids\n        );\n    }\n\n    function _addMember(address account, uint256 id) internal {\n        require(account != address(0), \"Project: account can not be the zero address\");\n        require(!isMember(account), \"Project: account is already a member\");\n        require(!isIdRegistered(id), \"Project: id is already assigned\");\n        // The account is registered as member\n        members[account] = Member(true, id);\n        memberList.push(account);\n        // The account receives the initial balance\n        _mint(account, INITIAL_BALANCE);\n    }\n}\n",
  "sourcePath": "/Users/v-g/Documents/personal-projects/mr-project/mr-jam/packages/smart-contracts/contracts/Project.sol",
  "compiler": {
    "name": "solc",
    "version": "0.6.2+commit.bacdbe57.Emscripten.clang"
  },
  "schemaVersion": "3.1.0",
  "updatedAt": "2020-05-21T15:17:28.775Z",
  "devdoc": {
    "methods": {
      "allowance(address,address)": {
        "details": "See {IERC20-allowance}."
      },
      "approve(address,uint256)": {
        "details": "See {IERC20-approve}.     * Requirements:     * - `spender` cannot be the zero address."
      },
      "balanceOf(address)": {
        "details": "See {IERC20-balanceOf}."
      },
      "decimals()": {
        "details": "Returns the number of decimals used to get its user representation. For example, if `decimals` equals `2`, a balance of `505` tokens should be displayed to a user as `5,05` (`505 / 10 ** 2`).     * Tokens usually opt for a value of 18, imitating the relationship between Ether and Wei. This is the value {ERC20} uses, unless {_setupDecimals} is called.     * NOTE: This information is only used for _display_ purposes: it in no way affects any of the arithmetic of the contract, including {IERC20-balanceOf} and {IERC20-transfer}."
      },
      "decreaseAllowance(address,uint256)": {
        "details": "Atomically decreases the allowance granted to `spender` by the caller.     * This is an alternative to {approve} that can be used as a mitigation for problems described in {IERC20-approve}.     * Emits an {Approval} event indicating the updated allowance.     * Requirements:     * - `spender` cannot be the zero address. - `spender` must have allowance for the caller of at least `subtractedValue`."
      },
      "increaseAllowance(address,uint256)": {
        "details": "Atomically increases the allowance granted to `spender` by the caller.     * This is an alternative to {approve} that can be used as a mitigation for problems described in {IERC20-approve}.     * Emits an {Approval} event indicating the updated allowance.     * Requirements:     * - `spender` cannot be the zero address."
      },
      "name()": {
        "details": "Returns the name of the token."
      },
      "owner()": {
        "details": "Returns the address of the current owner."
      },
      "renounceOwnership()": {
        "details": "Leaves the contract without owner. It will not be possible to call `onlyOwner` functions anymore. Can only be called by the current owner.     * NOTE: Renouncing ownership will leave the contract without an owner, thereby removing any functionality that is only available to the owner."
      },
      "symbol()": {
        "details": "Returns the symbol of the token, usually a shorter version of the name."
      },
      "totalSupply()": {
        "details": "See {IERC20-totalSupply}."
      },
      "transfer(address,uint256)": {
        "details": "See {IERC20-transfer}.     * Requirements:     * - `recipient` cannot be the zero address. - the caller must have a balance of at least `amount`."
      },
      "transferFrom(address,address,uint256)": {
        "details": "See {IERC20-transferFrom}.     * Emits an {Approval} event indicating the updated allowance. This is not required by the EIP. See the note at the beginning of {ERC20};     * Requirements: - `sender` and `recipient` cannot be the zero address. - `sender` must have a balance of at least `amount`. - the caller must have allowance for ``sender``'s tokens of at least `amount`."
      },
      "transferOwnership(address)": {
        "details": "Transfers ownership of the contract to a new account (`newOwner`). Can only be called by the current owner."
      }
    }
  },
  "userdoc": {
    "methods": {}
  }
}